:020000040000fa
:080000000001040000000000f3
:020000040000fa
:0400080004020000ee
:020000040000fa
:04000c0046020000a8
:020000040000fa
:040010008602000064
:020000040000fa
:0400140024020000c2
:020000040000fa
:04001800660200007c
:020000040000fa
:04001c00a602000038
:020000040000fa
:04002000a602000034
:020000040000fa
:04002400a602000030
:020000040000fa
:04002800a60200002c
:020000040000fa
:04002c00a602000028
:020000040000fa
:04003000a602000024
:020000040000fa
:04003400a602000020
:020000040000fa
:04003800a60200001c
:020000040000fa
:04003c00a602000018
:020000040000fa
:04004000a602000014
:020000040000fa
:04004400a602000010
:020000040000fa
:04004800a60200000c
:020000040000fa
:04004c00a602000008
:020000040000fa
:04005000a602000004
:020000040000fa
:04005400a602000000
:020000040000fa
:04005800a6020000fc
:020000040000fa
:04005c00a6020000f8
:020000040000fa
:04006000a6020000f4
:020000040000fa
:04006400a6020000f0
:020000040000fa
:04006800a6020000ec
:020000040000fa
:04006c00a6020000e8
:020000040000fa
:04007000a6020000e4
:020000040000fa
:04007400a6020000e0
:020000040000fa
:04007800a6020000dc
:020000040000fa
:04007c00a6020000d8
:020000040000fa
:04008000a6020000d4
:020000040000fa
:04008400a6020000d0
:020000040000fa
:04008800a6020000cc
:020000040000fa
:04008c00a6020000c8
:020000040000fa
:04009000a6020000c4
:020000040000fa
:04009400a6020000c0
:020000040000fa
:04009800a6020000bc
:020000040000fa
:04009c00a6020000b8
:020000040000fa
:0400a000a6020000b4
:020000040000fa
:0400a400a6020000b0
:020000040000fa
:0400a800a6020000ac
:020000040000fa
:0400ac00a6020000a8
:020000040000fa
:0400b000a6020000a4
:020000040000fa
:0400b400a6020000a0
:020000040000fa
:0400b800a60200009c
:020000040000fa
:0400bc00a602000098
:020000040000fa
:0400c000a602000094
:020000040000fa
:0400c400a602000090
:020000040000fa
:0400c800a60200008c
:020000040000fa
:0400cc00a602000088
:020000040000fa
:0400d000a602000084
:020000040000fa
:0400d400a602000080
:020000040000fa
:0400d800a60200007c
:020000040000fa
:0400dc00a602000078
:020000040000fa
:0400e000a602000074
:020000040000fa
:0400e400a602000070
:020000040000fa
:0400e800a60200006c
:020000040000fa
:0400ec00a602000068
:020000040000fa
:0400f000a602000064
:020000040000fa
:0400f400a602000060
:020000040000fa
:0400f800a60200005c
:020000040000fa
:0400fc00a602000058
:020000040000fa
:04010000a602000053
:020000040000fa
:04010400a60200004f
:020000040000fa
:04010800a60200004b
:020000040000fa
:04010c00a602000047
:020000040000fa
:04011000a602000043
:020000040000fa
:04011400a60200003f
:020000040000fa
:04011800a60200003b
:020000040000fa
:04011c00a602000037
:020000040000fa
:04012000a602000033
:020000040000fa
:04012400a60200002f
:020000040000fa
:04012800a60200002b
:020000040000fa
:04012c00a602000027
:020000040000fa
:04013000a602000023
:020000040000fa
:04013400a60200001f
:020000040000fa
:04013800a60200001b
:020000040000fa
:04013c00a602000017
:020000040000fa
:04014000a602000013
:020000040000fa
:04014400a60200000f
:020000040000fa
:04014800a60200000b
:020000040000fa
:04014c00a602000007
:020000040000fa
:04015000a602000003
:020000040000fa
:04015400a6020000ff
:020000040000fa
:04015800a6020000fb
:020000040000fa
:04015c00a6020000f7
:020000040000fa
:04016000a6020000f3
:020000040000fa
:04016400a6020000ef
:020000040000fa
:04016800a6020000eb
:020000040000fa
:04016c00a6020000e7
:020000040000fa
:04017000a6020000e3
:020000040000fa
:04017400a6020000df
:020000040000fa
:04017800a6020000db
:020000040000fa
:04017c00a6020000d7
:020000040000fa
:04018000a6020000d3
:020000040000fa
:04018400a6020000cf
:020000040000fa
:04018800a6020000cb
:020000040000fa
:04018c00a6020000c7
:020000040000fa
:04019000a6020000c3
:020000040000fa
:04019400a6020000bf
:020000040000fa
:04019800a6020000bb
:020000040000fa
:04019c00a6020000b7
:020000040000fa
:0401a000a6020000b3
:020000040000fa
:0401a400a6020000af
:020000040000fa
:0401a800a6020000ab
:020000040000fa
:0401ac00a6020000a7
:020000040000fa
:0401b000a6020000a3
:020000040000fa
:0401b400a60200009f
:020000040000fa
:0401b800a60200009b
:020000040000fa
:0401bc00a602000097
:020000040000fa
:0401c000a602000093
:020000040000fa
:0401c400a60200008f
:020000040000fa
:0401c800a60200008b
:020000040000fa
:0401cc00a602000087
:020000040000fa
:0401d000a602000083
:020000040000fa
:0401d400a60200007f
:020000040000fa
:0401d800a60200007b
:020000040000fa
:0401dc00a602000077
:020000040000fa
:0401e000a602000073
:020000040000fa
:0401e400a60200006f
:020000040000fa
:0401e800a60200006b
:020000040000fa
:0401ec00a602000067
:020000040000fa
:0401f000a602000063
:020000040000fa
:0401f400a60200005f
:020000040000fa
:0401f800a60200005b
:020000040000fa
:0401fc00a602000057
:020000040000fa
:100200006f8820000e7f24000e018800000000008f
:10021000000020000000e000020032000001200089
:100220002002880014000700ca0007000000e00058
:1002300003003a00006f2000010020000200370098
:100240000000200001002000810f7000010032003a
:1002500014000700000020000000e000020032004f
:10026000000002000000000078030200000000000f
:100270000040da000000fe004440a900a003200076
:100280000000e00003003200002020009001880000
:100290004440a800000006008a1f78008b1f7800e9
:1002a00000000600a1028800800478000000eb0036
:1002b0001f003700e284440054a0b4009905ba003e
:1002c000e284440054a0b4009906ba00e2844400d9
:1002d00054a0b4000006eb00476fde00fd07b2003b
:1002e000ae018800636ce10003003a00eaff0700fa
:1002f0000000eb000e003700606ce10008003a00df
:10030000004deb000a05e800020039003420ec0043
:100310000af0a0008b05e900f9ff3e000400370059
:100320006168e100010032000086eb000b0007006d
:1003300019c7ba001905ba000e04e00003003a001c
:100340000a00e000dbff3a0000000600fe07b200f2
:10035000ae0288008a047800f5ff37000cd0a300b5
:10036000e20f4d001c00390089027800354dba00bb
:100370000a05e800020039003420ec000af0a00071
:100380008b05e9000f003200254dba000a05e80090
:10039000020039003420ec000af0a0008b05e900cf
:1003a000080032000c00e0000600320015cdba0053
:1003b0000a05e800020039003420ec000af0a00031
:1003c0008b05e9008984e80054a0b4000b00e0002c
:1003d000e2ff3a00000006009902ba00055d7800cd
:1003e0008b05e900f7ff3200c82ade00055d7800c2
:1003f0008b05e900f3ff32000c00e000f1ff320052
:1004000019ddba00eeff37003600f800809fbe000d
:10041000829fbe00849fbe00869fbe000000fa003f
:100420008020a9000000eb007b0207000080fa009a
:100430004f03be004f02be004f01be004f00be0082
:100440003600f900004006003600f800809fbe002c
:10045000829fbe00849fbe00869fbe000000fa00ff
:10046000720207008040a900100020006a02070005
:100470000080fa004f03be004f02be004f01be00d5
:100480004f00be003600f900004006003600f800bc
:10049000809fbe00829fbe00849fbe00869fbe00dc
:1004a0000000fa008060a900200020005a02070026
:1004b0000080fa004f03be004f02be004f01be0095
:1004c0004f00be003600f900004006003600f8007c
:1004d000809fbe00829fbe00849fbe00869fbe009c
:1004e0000000fa008080a900300020004a020700c6
:1004f0000080fa004f03be004f02be004f01be0055
:100500004f00be003600f900004006003600f8003b
:10051000809fbe00829fbe00849fbe00869fbe005b
:100520000000fa008600a900700020003a020700cf
:100530000080fa004f03be004f02be004f01be0014
:100540004f00be003600f900004006000040da000f
:100550000000fe0000000500889fbe008a9fbe00cc
:100560008c9fbe00800578000204be000105780063
:100570000200be0001003700820578006156b90014
:100580000c01be002a0007000b01e800e00f50003c
:10059000e08f5800f8ff3a000049eb000c01be0064
:1005a0000800be0032000700004578000c01be00c4
:1005b0000800be001e0007000004be00e94f550001
:1005c000010034006745450000c3b3008055450075
:1005d000e00f5400e08f5c00f0ff3a000b00780061
:1005e0004f06be004f05be004f04be0000000600cf
:1005f000881f780000047800e00f5100e08f590058
:1006000006003d0008007800d4c2b300045878000a
:1006100060011100e0811900010037000800780036
:10062000cdff0700080078004f04780000000600a6
:100630006022b800060220000000d0008180d200b5
:100640000482d2008582d2000000a0000202520083
:1006500083825a00030031000202420083824a0072
:100660000000a1000603e900f3ff3a0000000600c5
:0c067000efff07000400be0000000600c1
:020000040000fa
:10067c000052000041300000205000007265000064
:10068c00737300006564000020200000202000002f
:10069c00202000002020000020200000202000004e
:1006ac0020000000506c00006561000073650000c4
:1006bc00205000007265000073730000204200009f
:1006cc0075740000746f00006e2000002020000084
:1006dc00202000002020000020200000202000000e
:0406ec0020000000ea
:020000040000fa
:1006f0000000fa00d401070020002000004088001c
:10070000e0332800804078006088200001487800ad
:100710001000200010408800c800070000e22400fc
:10072000f4000700d000070000e22400f1000700f9
:1007300078c6a90078e6a9007946a9007966a900db
:1007400079e6a90079e6a8000088230011002000be
:100750009501070079e6a900008823001100200018
:10076000910107000040eb002f000700200320004c
:100770003c00070000c42900010020008a01070096
:100780000040eb004900070020032000560007004e
:1007900000c429000100200083010700200320007d
:1007a0006300070050002000d200070098000700f7
:1007b00050002000cf000700104080006101b90008
:1007c00020872000a100200063ff07002033800065
:1007d000610060000000e00003003a00f0332800f0
:1007e00023010700020037008035280020010700a0
:1007f00081c0b30010c0b300610007002087200053
:100800001b01070050002000ba00070010408000c4
:100810000000e8001040880000c42900010020000a
:1008200061010700c7ff37000200fa00004f78009f
:100830001e80fb00610060004700dd00c1338000c6
:100840000170a10001007000c033880000c42900bd
:1008500001002000540107000000eb000080fa00b6
:10086000000006000200fa00000f780009003700bf
:1008700078c6a80000f42100010020004a0107000a
:1008800078c6a90000f421000100200046010700fd
:100890001e0fe9001e0078000000e000f4ff3c009d
:1008a0000000eb000080fa00000006000200fa00e1
:1008b000004f78001e80fb00610060004b00dd00ef
:1008c000c133800001b0a10001007000c033880076
:1008d00000c4290001002000330107000000eb00e4
:1008e0000080fa00000006000200fa00000f780005
:1008f000090037007946a80000f42100010020001b
:10090000290107007946a90000f421000100200018
:10091000250107001e0fe9001e0078000000e0001e
:10092000f4ff3c000000eb000080fa00000006002d
:100930000200fa00000f78000b0037007946a8008b
:1009400078c6a80000f4210001002000160107006d
:100950007946a90078c6a90000f421000100200012
:10096000110107001e0fe9001e0078000000e000e2
:10097000f2ff3c000000eb000080fa0000000600df
:100980000400fa0020479800314798000040eb002f
:10099000004f78002e409000e14f500004003a00d4
:1009a000be40900000ccb30000cf400003003700f1
:1009b000be40900000c8b30000cf40008100070097
:1009c00080c7b300540007000040eb00520007004e
:1009d0001e40780050000700860007000080fa00e3
:1009e000000006000000fa007600070080c7b30090
:1009f000490007000040eb004700070010c0b300ab
:100a0000450007007b0007000080fa000000060098
:100a10000000fa006b00070080c7b3003e0007002b
:100a20000040eb003c00070020c0b3003a00070084
:100a3000700007000080fa00000006000000fa00c5
:100a40007986a90000e224002a0007007986a80020
:100a500079c6a90079a6a90077c6a90077a6a9003a
:100a60000080fa00000006000000fa0055000700b0
:100a700080c7b300280007000040eb0026000700f5
:100a800080c3b30024000700803e20001900070047
:100a900090c3b30020000700803e2000150007002f
:100aa00040c1b3001c00070080c7b3001a00070054
:100ab000e0c5b30018000700d0c6b3001600070059
:100ac000c0c0b3001400070010c0b300120007003c
:100ad00060c0b30010000700803e20000500070042
:100ae0004400070000712200020007000080fa00a5
:100af000000006000200fa00000f78000100370035
:100b00001e0fe9001e0078000000e000fcff3c0022
:100b10000080fa00000006000400fa002047980058
:100b20000040eb00004f78001a00370077a6a900bc
:100b300000408000cf00de00008040000080d10037
:100b4000ecff07002e4090008080fb001e80fb0021
:100b50008008dd0000082000008060000000e00048
:100b60000200320077c6a8000100370077c6a9004e
:100b700000408000cf00de00008040000080d100f7
:100b8000dcff070077a6a80000408000d9ff07001f
:100b90001e4fe8001e407800e74f5000e3ff36008c
:100ba00077a6a90077c6a80000408000d1ff070003
:100bb00077a6a80000408000ceff07000080fa0062
:100bc000000006000000fa0079c6a90079a6a90075
:100bd00077a6a80077c6a80000408000c5ff0700e0
:100be00077c6a90000408000c2ff07000080fa001d
:100bf000000006000000fa0077a6a900004080006f
:100c0000cf00de00008040000080d100b9ff070067
:100c100077c6a90000408000cf00de0000804000c1
:100c20000080d100b3ff070077a6a8000040800035
:100c3000cf00de00008040000080d100adff070043
:100c400077c6a80000408000cf00de000080400092
:100c50000080d100a7ff070040012000a5ff07008a
:100c600077c6a90077a6a9000080fa000000060058
:100c70000600fa00200798000000eb00100798001b
:100c8000d0ff070080c7b300a3ff070000c4b30074
:100c9000a1ff07000000eb00000f780007003700fd
:100ca0002e009000104078009bff07002e0090005f
:100cb0000000e800200798001e0fe8001e007800e2
:100cc000f30f5000f6ff3400caff07000080fa005f
:100cd000000006000000fa00000023001008880051
:100ce0000621ef006821ef006a21ef000821ef00e4
:100cf00000702000500888000c21ef000e21ef004a
:100d00007821ef007a21ef007c21ef007e21ef00b7
:100d10008021ef008221ef008421ef008621ef0087
:100d20000001eb0080072000a10920001310200023
:100d30008049780081497800824978000001eb0001
:100d40006004200071052000031020008049780015
:100d500081497800824978000080fa00000006008e
:100d60000000fa006626ef007a26ef0070012000ee
:100d700010338800f0332e00b03388007426ef0063
:100d80008826ef007226ef008626ef006826ef0027
:100d90007c26ef006a26ef0000002c00f03388006c
:080da0000080fa0000000600cb
:020000040000fa
:100da800f03fb1000180b10006003500ee030900f4
:100db80000000000403fb1000180b100fbff3d0092
:100dc8001000b000203fb00002003500008009008c
:080dd80000000000000006000d
:020000040000fa
:100de00052080000200000008000000050080000b1
:100df0000200000082000000ffff000072080000f7
:100e000014000000800000000008000050000000f6
:080e100080000000000000005a
:020000040000fa
:100e18000200fa00000f78009e00780081428800e6
:100e2800ffff37000000fa002085200080077800c7
:100e3800a0862000000188000080fa00000006005b
:100e48000000fa00c4ff0700a0ff07000200070027
:100e58000080fa00000006000000fa000080fa0096
:040e68000000060080
:020000040000fa
:020000040005f5
:045e0000ffffff00a1
:020000040000fa
:020000040005f5
:045e2000ffffff0081
:020000040000fa
:020000040005f5
:045e300078ffff00f8
:020000040000fa
:020000040005f5
:045e3800b7ffff00b1
:020000040000fa
:020000040005f5
:045e40009fffff00c1
:020000040000fa
:020000040005f5
:045e4800ffffff0059
:020000040000fa
:020000040005f5
:045e5000dfffff0071
:020000040000fa
:020000040005f5
:045e5800ffffff0049
:00000001FF
