:020000040000fa
:080000000001040000000000f3
:020000040000fa
:0400080008020000ea
:020000040000fa
:04000c004a020000a4
:020000040000fa
:040010008a02000060
:020000040000fa
:0400140028020000be
:020000040000fa
:040018006a02000078
:020000040000fa
:04001c00aa02000034
:020000040000fa
:04002000aa02000030
:020000040000fa
:04002400aa0200002c
:020000040000fa
:04002800aa02000028
:020000040000fa
:04002c00aa02000024
:020000040000fa
:04003000aa02000020
:020000040000fa
:04003400aa0200001c
:020000040000fa
:04003800aa02000018
:020000040000fa
:04003c00aa02000014
:020000040000fa
:04004000aa02000010
:020000040000fa
:04004400aa0200000c
:020000040000fa
:04004800aa02000008
:020000040000fa
:04004c00aa02000004
:020000040000fa
:04005000aa02000000
:020000040000fa
:04005400aa020000fc
:020000040000fa
:04005800aa020000f8
:020000040000fa
:04005c00aa020000f4
:020000040000fa
:04006000aa020000f0
:020000040000fa
:04006400aa020000ec
:020000040000fa
:04006800aa020000e8
:020000040000fa
:04006c00aa020000e4
:020000040000fa
:04007000aa020000e0
:020000040000fa
:04007400aa020000dc
:020000040000fa
:04007800aa020000d8
:020000040000fa
:04007c00aa020000d4
:020000040000fa
:04008000aa020000d0
:020000040000fa
:04008400aa020000cc
:020000040000fa
:04008800aa020000c8
:020000040000fa
:04008c00aa020000c4
:020000040000fa
:04009000aa020000c0
:020000040000fa
:04009400aa020000bc
:020000040000fa
:04009800aa020000b8
:020000040000fa
:04009c00aa020000b4
:020000040000fa
:0400a000aa020000b0
:020000040000fa
:0400a400aa020000ac
:020000040000fa
:0400a800aa020000a8
:020000040000fa
:0400ac00aa020000a4
:020000040000fa
:0400b000aa020000a0
:020000040000fa
:0400b400aa0200009c
:020000040000fa
:0400b800aa02000098
:020000040000fa
:0400bc00aa02000094
:020000040000fa
:0400c000aa02000090
:020000040000fa
:0400c400aa0200008c
:020000040000fa
:0400c800aa02000088
:020000040000fa
:0400cc00aa02000084
:020000040000fa
:0400d000aa02000080
:020000040000fa
:0400d400aa0200007c
:020000040000fa
:0400d800aa02000078
:020000040000fa
:0400dc00aa02000074
:020000040000fa
:0400e000aa02000070
:020000040000fa
:0400e400aa0200006c
:020000040000fa
:0400e800aa02000068
:020000040000fa
:0400ec00aa02000064
:020000040000fa
:0400f000aa02000060
:020000040000fa
:0400f400aa0200005c
:020000040000fa
:0400f800aa02000058
:020000040000fa
:0400fc00aa02000054
:020000040000fa
:04010000aa0200004f
:020000040000fa
:04010400aa0200004b
:020000040000fa
:04010800aa02000047
:020000040000fa
:04010c00aa02000043
:020000040000fa
:04011000aa0200003f
:020000040000fa
:04011400aa0200003b
:020000040000fa
:04011800aa02000037
:020000040000fa
:04011c00aa02000033
:020000040000fa
:04012000aa0200002f
:020000040000fa
:04012400aa0200002b
:020000040000fa
:04012800aa02000027
:020000040000fa
:04012c00aa02000023
:020000040000fa
:04013000aa0200001f
:020000040000fa
:04013400aa0200001b
:020000040000fa
:04013800aa02000017
:020000040000fa
:04013c00aa02000013
:020000040000fa
:04014000aa0200000f
:020000040000fa
:04014400aa0200000b
:020000040000fa
:04014800aa02000007
:020000040000fa
:04014c00aa02000003
:020000040000fa
:04015000aa020000ff
:020000040000fa
:04015400aa020000fb
:020000040000fa
:04015800aa020000f7
:020000040000fa
:04015c00aa020000f3
:020000040000fa
:04016000aa020000ef
:020000040000fa
:04016400aa020000eb
:020000040000fa
:04016800aa020000e7
:020000040000fa
:04016c00aa020000e3
:020000040000fa
:04017000aa020000df
:020000040000fa
:04017400aa020000db
:020000040000fa
:04017800aa020000d7
:020000040000fa
:04017c00aa020000d3
:020000040000fa
:04018000aa020000cf
:020000040000fa
:04018400aa020000cb
:020000040000fa
:04018800aa020000c7
:020000040000fa
:04018c00aa020000c3
:020000040000fa
:04019000aa020000bf
:020000040000fa
:04019400aa020000bb
:020000040000fa
:04019800aa020000b7
:020000040000fa
:04019c00aa020000b3
:020000040000fa
:0401a000aa020000af
:020000040000fa
:0401a400aa020000ab
:020000040000fa
:0401a800aa020000a7
:020000040000fa
:0401ac00aa020000a3
:020000040000fa
:0401b000aa0200009f
:020000040000fa
:0401b400aa0200009b
:020000040000fa
:0401b800aa02000097
:020000040000fa
:0401bc00aa02000093
:020000040000fa
:0401c000aa0200008f
:020000040000fa
:0401c400aa0200008b
:020000040000fa
:0401c800aa02000087
:020000040000fa
:0401cc00aa02000083
:020000040000fa
:0401d000aa0200007f
:020000040000fa
:0401d400aa0200007b
:020000040000fa
:0401d800aa02000077
:020000040000fa
:0401dc00aa02000073
:020000040000fa
:0401e000aa0200006f
:020000040000fa
:0401e400aa0200006b
:020000040000fa
:0401e800aa02000067
:020000040000fa
:0401ec00aa02000063
:020000040000fa
:0401f000aa0200005f
:020000040000fa
:0401f400aa0200005b
:020000040000fa
:0401f800aa02000057
:020000040000fa
:0401fc00aa02000053
:020000040000fa
:10020000cf9120000e7f24000e0188000000000026
:10021000000020000000e000020032000001200089
:100220002002880014000700cc0007000000e00056
:1002300003003a00202f22000100200002003700b6
:100240000000200001002000810f7000010032003a
:1002500014000700000020000000e000020032004f
:1002600000000200000000006a21020000000000ff
:100270000040da000000fe004440a900e02b20000e
:100280000000e00003003200002020009001880000
:100290004440a800000006008a1f78008b1f7800e9
:1002a00000000600a1028800800478000000eb0036
:1002b0001f003700e284440054a0b4009905ba003e
:1002c000e284440054a0b4009906ba00e2844400d9
:1002d00054a0b4000006eb00476fde00fd07b2003b
:1002e000ae018800636ce10003003a00eaff0700fa
:1002f0000000eb000e003700606ce10008003a00df
:10030000004deb000a05e800020039003420ec0043
:100310000af0a0008b05e900f9ff3e000400370059
:100320006168e100010032000086eb000b0007006d
:1003300019c7ba001905ba000e04e00003003a001c
:100340000a00e000dbff3a0000000600fe07b200f2
:10035000ae0288008a047800f5ff37000cd0a300b5
:10036000e20f4d001c00390089027800354dba00bb
:100370000a05e800020039003420ec000af0a00071
:100380008b05e9000f003200254dba000a05e80090
:10039000020039003420ec000af0a0008b05e900cf
:1003a000080032000c00e0000600320015cdba0053
:1003b0000a05e800020039003420ec000af0a00031
:1003c0008b05e9008984e80054a0b4000b00e0002c
:1003d000e2ff3a00000006009902ba00055d7800cd
:1003e0008b05e900f7ff3200c82ade00055d7800c2
:1003f0008b05e900f3ff32000c00e000f1ff320052
:1004000019ddba00eeff3700161c040000000000e2
:100410003600f800809fbe00829fbe00849fbe0011
:10042000869fbe000000fa008020a9000000eb00bb
:100430008b1007000080fa004f03be004f02be0081
:100440004f01be004f00be003600f900004006001c
:100450003600f800809fbe00829fbe00849fbe00d1
:10046000869fbe000000fa00821007008040a900ad
:10047000100020007a1007000080fa004f03be0031
:100480004f02be004f01be004f00be003600f90013
:10049000004006003600f800809fbe00829fbe002c
:1004a000849fbe00869fbe000000fa008060a90005
:1004b000200020006a1007000080fa004f03be00f1
:1004c0004f02be004f01be004f00be003600f900d3
:1004d000004006003600f800809fbe00829fbe00ec
:1004e000849fbe00869fbe000000fa008080a900a5
:1004f000300020005a1007000080fa004f03be00b1
:100500004f02be004f01be004f00be003600f90092
:10051000004006003600f800809fbe00829fbe00ab
:10052000849fbe00869fbe000000fa008600a900de
:10053000700020004a1007000080fa004f03be0040
:100540004f02be004f01be004f00be003600f90052
:10055000004006000040da000000fe000000050038
:1005600003f0a200889fbe008a9fbe008c1f780007
:10057000370107003e0133006450e1004f003200b4
:100580006420e1005200320003826c0007003b004f
:100590000905d0000306d000820f54000c065d0050
:1005a0000200390002003200890178000306780059
:1005b0008582550004003d000003fd008103fd001d
:1005c0008502ea008b854200840f720002003b0026
:1005d00060001000e08018006011b8000005eb001a
:1005e0007a28e1000a00390006007800c75ddd00c6
:1005f000f707b200878075002d00370082817100f7
:100600000a017800610560008180d1000080d3007c
:100610008502e900f9ff3b0006044000878448009a
:1006200002003b0060041400e0841c000988a30061
:10063000070032008a8171008281710061016400cb
:100640008904d1000884d3008b05e8001700370027
:100650000978a30013003a000b00e00013003400f7
:100660008b05e9000804440089844c000a447400a6
:100670000978a3000d003a000b00e00007003400e9
:100680008b05e9000804440089844c0001003a000d
:100690000b0020000978a300f7ff32000001eb00f7
:1006a00002003700828171000a017800ad00070066
:1006b0000cf0a70001f0a000f60037006420e10074
:1006c00002003a00838f6c00f60033000801be0080
:1006d0000200be00ef0037000001eb004a000700f7
:1006e000040032000200200003f8230001f0a600fd
:1006f0009cff0700000006000081eb0003023700aa
:10070000889fbe008a9fbe008c1f7800d000070023
:10071000d700330003866c006450e1002e003200e5
:100720006420e100330032006150e1002f0032000c
:100730006120e1003100320085855500eb07b000f3
:1007400009002000080420000500370008044400c8
:1007500089844c000a0031000603430087834b0064
:100760000001530081815b00f8ff33000203be00eb
:100770000800a0000804440089844c00f6ff3900fa
:10078000c639dd0083017300010032001300200030
:100790008904d1000884d3000998a3000500320021
:1007a0000800a7000300a0008904d1000884d3003a
:1007b0008b05e8008904d1000884d3000001eb0018
:1007c0000281d2006700070001f0a1000cf0a70031
:1007d00001f0a000af0037006420e100b10032005a
:1007e0000801be000200be00f7ff37006120e100f3
:1007f000ac0032006000b800f3ff370000002000ba
:1008000001f82700f0ff3700889fbe008a9fbe00d6
:100810000003be0079000700850578008281520040
:10082000020020006220e10004003a00f307b1005a
:10083000040035007718e100040035000600be0012
:10084000140037006000b8000f003700f50f2000db
:10085000faff2f008502d1000a85d3008301e90049
:10086000fcff3b008184620000046500890f740076
:10087000f2ff32008582ea000a85ea008184620084
:10088000000465003700070007f0a70001f0a00092
:100890000081eb000200e0004f05be004f04be00e7
:1008a000000006001400200072023700f4ff2f0041
:1008b000700237000001be00500007000470a7005e
:1008c00003f0a1006509b100160032000d003500eb
:1008d0006828e10006003500f0ff2f00f1ff270037
:1008e0000300e00013003b000100280000000500a9
:1008f00000004000818048008502e900fcff3a00ca
:1009000008003700f88f420002003c008000eb0036
:10091000000005008100d1000080d3008502e800be
:10092000fcff3a000300e00002003b006000100002
:10093000e0801800000006004f89de008201780088
:10094000670237000001eb00afff07000400320030
:100950000200200003f8230001f0a70000ff0700b9
:100960000000060081002000618055000b003d0062
:100970000b00200061fe2f000100e1001d0034008b
:1009800082817100610164008904d1000884d30070
:100990000000e800faff3a007100200061006400e6
:1009a000030070000200600009003200610444008e
:1009b000e0844c000988a500050032008b05e800a2
:1009c0006808e10002003a008904d1000884d300dd
:1009d000f20f20000258e10005003d00c75ddd0078
:1009e000f907b20089807500080078000000060051
:1009f0000bf827008b00780000000500c70ade0016
:100a0000f107b200f50fb20008003200e1cf42005a
:100a1000020032000170a00024000500810f700068
:100a2000010032000408050044000500810f700039
:100a300002003a00140005008502e90000004000b1
:100a400081c04800fcff3b000170a00024000500ad
:100a50000004be00e9ff07000003be000405be005d
:100a60000200be00e5ff0700844f7500000006008d
:100a70000200be006450e100050036006420e10081
:100a8000020036000968a30001003a000800be0019
:100a90000160a0004f0678004f05be004f04be0065
:100aa00000000600f0ff2f00f1ff2700f9ff3700dc
:100ab000889fbe008a9fbe008c1f7800e4ff07005d
:100ac000ebff330003866c006450e1002400320029
:100ad0006420e100270032006150e1002200320072
:100ae0006120e100210032008b854200eb07b1005c
:100af0000134b800003ab8000804420089844a0072
:100b0000013ab8000030b8008880400009014a006e
:100b100004003300000040008180480002014900c9
:100b20008b05e900c909dd00830170000100320076
:100b300013002000c814de004814dd004709de0061
:100b40001200b200c808de000884700085ff0700ac
:100b500001f0a1000cf0a70001f0a000cdff3700cc
:100b60006120e100cfff32000801be000200be009c
:100b7000f7ff37006150e100fcff3a00c9ff370082
:100b80000c00fa00889fbe008a9fbe008c9fbe00aa
:100b9000afff07000206be00840578000200be0019
:100ba0000200200018ff070005003a008b02b30086
:100bb0001200200014ff070001003a00f8856d00c4
:100bc0000c01be00c60007000800be009b003200fa
:100bd0000b08a3009e003a000df0a7000be0a00058
:100be00009f0a7000bf0a00009f0a1000801be0069
:100bf000bb0007000bf0a6009500320001003c008e
:100c00000bd0a0008acf7500b20033006000b8009e
:100c10006250e10099003900a1003e000b28a300ba
:100c2000a2003a000bf8a300060032000b58a30004
:100c3000a70032000801be00a90007000800be009e
:100c4000940032000800be001b0107000004be0033
:100c5000050578000bf0a7000b30a6000bf0a100f3
:100c60005b079800324f200053f323000dff07006d
:100c700005003d000800be00120020002802070009
:100c80000004be000a05e9004a0798006150b90057
:100c900029ff0700008fbe000c01be0084ff070083
:100ca00004ff0700300798000100e00002003d004b
:100cb00060001000e0801800f2ff2700820f500053
:100cc000e08f580064003e000c00be00f9fe0700f3
:100cd00020079800f2072000820f5000e08f580094
:100ce00005003c0012f82f00f3ff2f00820f500088
:100cf000838f580009003d000a00e0000300320025
:100d000001003c000201ea00020578006000b80022
:100d1000200798003a079800190037003e0090001d
:100d20006100b90004ff0700809fbe000c00be00f8
:100d30004109dd004811de007208b100b2fe070073
:100d40000005be001e01be0059ff07004f01be0096
:100d500003fe0700809fbe000c00be000a01be001b
:100d6000fffd07001e01be0051ff07004f01be003e
:100d7000fcfd07008221270013f323004cff07002e
:100d80000005be002e0090006100b900eafe0700d9
:100d900001f0a2000c01be00f2fd07000006be003b
:100da0000800be00000207000c01be0040ff070063
:100db0000a01be00ebfd0700809fbe004a0007004d
:100dc0002e0590000af0a7000a05ea00050037008a
:100dd0000800be000801be0035ff07000004be0089
:100de0000c00be000801be000a00a70030ff07008b
:100df0000006be000a05d100f5ff3a005e01900032
:100e000002e0a600030037000001be003600070024
:100e10003bfe07000004be004f00be00b300070009
:100e20000801be0022ff07003e019000bc01070040
:100e3000de0590000bf0a70001f0a2004f06be00f7
:100e40004f05be004f04be000080fa0000000600ff
:100e500025000700f9ff3700270007006000b800f1
:100e60000bd0a7000bc0a0000be0a7000bc0a20096
:100e70000bc0a70001f82700f0ff37000df8a30012
:100e8000020032001e000700190007000bf8a30043
:100e9000eaff32000b30a70001f0a200e7ff3700a5
:100ea0000df8a300f9ff3a00f7ff37000801be0074
:100eb0000b000700e6ff320001003c000df0a2002d
:100ec0006000b8000df0a70009000700dbff370045
:100ed0000b000700f1ff2700f0ff2f00d7ff3700be
:100ee000010007006ffe370001f823000000050035
:100ef00001f8270000000500200220000100370053
:100f000010022000b044880000000600889fbe0048
:100f10008a9fbe008c9fbe00820578000004be0040
:100f2000b6fe07000800be006420e100070039009b
:100f300002003a00f1ff2700f0ff2f000160a0003f
:100f400012022000b2448800550037006120e10001
:100f500003003a000b00a70001f8230050003700ff
:100f600001f0a10002002100936424004dfe07005f
:100f70000800be0004003500b2fd2000930c2400e0
:100f8000160107000004be000005eb000b00a600e0
:100f90004f0dde0001f0a1000004be0032982f00ca
:100fa00023ea2300c2fe07000001eb0003f0230048
:100fb0000b00a70003f823006afd07003dfe0700b1
:100fc0000000a7000a00a2005bfe07000b00e00083
:100fd000030032000200200003f0230060fd070040
:100fe00001f0a2000006be000200200093042400cd
:100ff000affe07000801be005afd0700809fbe003b
:101000000c00be0022a22a00d3a72300a8fe0700de
:101010004f01be0053fd07000004be0001f0a10017
:1010200002002000039823001efe07000800be00f7
:10103000190035000001be009dfe07000006be003d
:10104000b2c52900e362230099fe070022222b008b
:10105000f3942b0043fd07000c01be0094fe070033
:10106000e273280083c023003efd07000c01be0090
:101070008ffe070042aa2a00a3e22b0039fd0700d9
:101080000c01be008afe07000801be0088fe0700b2
:101090000801be0033fd07000a00a70001f0a2000e
:1010a0004f06be004f05be004f04be000000060004
:1010b0000001eb0095ff37000003be004ffe070064
:1010c0006220e100020032000600be0005000500bb
:1010d000e507b100f107b20004f02300848070003e
:1010e00007f0a70001f0a00024000500889fbe00c3
:1010f0008a9fbe008c9fbe000004be003ffe07001a
:101100000800be006420e10048003e0055003200a7
:1011100072212700132b2400e4fd070047003c0048
:101120000800be00c2ec2800e32c2c00ddfd070007
:10113000470035000800be0001f0a10002002000b9
:1011400003382300d7fd0700430035000800be0028
:10115000b2a32a0083fb230055fe070002002000f3
:1011600003f0230001f0a70003f0a000fdfc07003e
:10117000d0fd07000005be00effd070001f0a20052
:101180000006be000200280013f3230048fe0700fb
:101190000801be00f3fc0700809fbe000c00be00eb
:1011a00032082800e3952b0041fe07004f01be00e6
:1011b000ecfc07000006be000001be003cfe07007c
:1011c000809fbe004241250083b8230038fe0700ff
:1011d0000200200003e82300e2fc07000c01be002f
:1011e00033fe07000006be004f00be00f2f92b00e0
:1011f000c3d423002efe07000200200003f02300ca
:10120000d8fc07000c01be00d5fc07000001be00a1
:101210000c00be003afd07000200200003f023008e
:10122000d0fc070061014500bd0007004f06be006d
:101230004f05be004f04be000000060001f8270065
:101240000000200022022000b2448800f7ff37008f
:101250006000b800fbff370001f823000000200009
:10126000f2ff370009f8a300f0ff32006000b80079
:10127000eeff3700889fbe008a9fbe00841f780063
:10128000f3fd07004f00780011003300f0ff2f003e
:10129000838f6c0006003b00040565000a00a70070
:1012a0000800370009f0a6001000200008003700f1
:1012b000820f5400838f5c0003003900100020006f
:1012c00001003e000000200009f0a7000000ea0035
:1012d0004f05be004f04be000000e0000000060005
:1012e000881f7800030478000300e00007003d0039
:1012f00060001000e080180060011900e081190012
:1013000002003b0001f02d0003003700040007003d
:1013100008f0a70001f0a0004f04780000000600cc
:10132000889fbe008a9fbe00008270000402710088
:1013300004827100260032000004be000200be00dc
:101340006011b8006b092000950220000182cf00d7
:101350000a0039000541b1000082cf0007003900c2
:101360000541b1000982cf00040039000541b100f8
:101370000882cf00010039000541b100054252004a
:10138000120032000a003b0082817100610164009a
:101390008100d1000080d3008984d3000884d30069
:1013a0008b05e8000442e800f7ff3a000700370029
:1013b0000804440089844c000000480081804800f3
:1013c0008b05e9000442e900f9ff3a0065fd0700da
:1013d0004f05be004f04be000000060004002000c0
:1013e00000003700889fbe008a9fbe008c1f7800d7
:1013f0004f26dd0096fd07009dfd33006120e100d2
:10140000430032006250e10041003e003e003900de
:101410006420e1003c003200058255000f003b00d3
:101420000402e80038003a00800f5300818f5b000f
:10143000350034000800be0003f0a10001f0a60052
:1014400003f0a0000cf0a70046fc070091fd370058
:101450000603430087834b000c46460000055300fb
:1014600081855b00020033000a03be000c00a0006f
:101470000402e900f6ff3b00850578000602430000
:1014800087824b0004003a006000b80009f0a70012
:1014900001f0a0007ffd37000002520081825a0057
:1014a0000704e000040033000603430087834b0079
:1014b0008b05e900faff3700090578000604be0035
:1014c0000203be006011b80026fd0700e00f5200c5
:1014d000e08f5a000700350002003c000c08a30012
:1014e000040032000601be0003f0a0000cf0a700cb
:1014f0001cfc07000a85680001f0a1000af0a700a3
:1015000001f0a00063fd37000800be0061fd370058
:10151000100220000cf0a600b044880061fd3700e6
:101520000003be0035fd07006220e100020032002a
:101530000600be000000060085024100e30f200007
:101540000328e10005003c00a3fe2f000328e10072
:1015500007003d000500200001003700f50f2000c6
:1015600020022000b04488006000b8000800370066
:10157000130020008381520005003d008100d1004e
:101580000080d3008301e800fcff3a000500200042
:10159000c72add00f107b2008580700007f0a700c0
:1015a00001f0a00000000600889fbe008a9fbe00d8
:1015b0008c9fbe00c0fe0700850478000005be00b9
:1015c0006420e10049003e006220e1000300320097
:1015d000090035000bf8a300440032000bf8a3000b
:1015e0000800320010022000b0448800f0ff2f00f5
:1015f000f1ff27003d00370001f82f000000200018
:101600003a0037003d000700d5fb07000006be008a
:101610000a00be00324f200053f32300a3fc070052
:10162000060034000c00be0034000700ccfb0700ad
:101630000006be000a00be00020037008904e9006f
:101640000c00be002d00070019fd07002b0007004d
:10165000c4fb07000001be000c00be0028fc070010
:101660000005be000001be0011fd07000006be001f
:10167000a2f32300430d2c00bafb0700809fbe009d
:101680000c00be00d2e32700d3f02b0008fd0700ba
:101690004f01be001afc07000006be000a01be0092
:1016a00003fd07000a01be00aefb07000006be00f6
:1016b0006148b900a0fc07000005be003208280000
:1016c000e3952b00fafc07000c01be00a5fb070008
:1016d0000006be000a00be000200280013f323002b
:1016e000f3fc07000c01be009efb07004f06be0086
:1016f0004f05be004f04be000000060003f02300ab
:0417000002000500de
:020000040000fa
:1017040020200000202000002020000020200000d5
:1017140020300000202000002020000020200000b5
:101724002020000020000000202000004361000071
:101734006e6e00006f740000204700006f200000f0
:101744004c6f00007765000072200000200000004c
:1017540020430000616e00006e6f000074200000e2
:10176400476f0000204800006967000068650000ba
:101774007220000020000000202000002020000033
:10178400202000002020000020340000352000002c
:101794002020000020200000202000002000000065
:1017a4002020000020200000202000002020000035
:1017b40020390000302000002020000020200000fc
:1017c4002020000020000000202000002020000035
:1017d40020200000202000003133000035200000cc
:1017e4002020000020200000202000002000000015
:1017f40020200000202000002020000020200000e5
:10180400313800003020000020200000202000009b
:1018140020200000200000002020000020200000e4
:10182400202000002020000032320000352000007b
:1018340020200000202000002020000020000000c4
:101844002020000020200000202000002020000094
:10185400323700003020000020200000202000004b
:101864002020000020000000202000002020000094
:10187400202000002020000033310000352000002b
:101884002020000020200000202000002000000074
:101894002020000020200000202000002020000044
:1018a400203500002020000020200000202000001f
:1018b4002020000020000000202000002020000044
:1018c4002020000020200000203100002020000003
:1018d4002020000020200000202000002000000024
:1018e40020200000202000002020000020200000f4
:1018f40020320000202000002020000020200000d2
:1019040020200000200000002020000020200000f3
:1019140020200000202000002033000020200000b0
:1019240020200000202000002020000020000000d3
:1019340020200000202000002020000020200000a3
:10194400203400002020000020200000202000007f
:1019540020200000200000002020000020200000a3
:10196400202000002020000020360000202000005d
:101974002020000020200000202000002000000083
:101984002020000020200000202000002020000053
:10199400203700002020000020200000202000002c
:1019a4002020000020000000202000002020000053
:1019b400202000002020000020380000202000000b
:1019c4002020000020200000202000002000000033
:1019d4002020000020200000202000002020000003
:1019e40020390000202000002020000020200000da
:1019f4002020000020000000202000002020000003
:101a040020200000202000002031000030200000b1
:101a140020200000202000002020000020000000e2
:101a240020200000202000002020000020200000b2
:101a34002031000031200000202000002020000080
:101a4400202000002000000050690000636b0000ab
:101a540020480000656900006768000074200000e9
:101a6400566100006c750000652000002000000035
:101a740050690000636b0000205700006964000097
:101a84007468000020560000616c00007565000059
:101a9400202000002000000050690000636b00005b
:101aa40020430000656e0000746500007220000091
:101ab400582000002020000020200000200000000a
:101ac40050690000636b000020430000656e000055
:101ad40074650000722000005920000020200000de
:101ae400202000002000000050690000636b00000b
:101af400205200006f74000061740000696f0000e0
:101b04006e200000446500006720000020000000f3
:101b140050690000636b0000204200006173000004
:101b240065200000566100006c750000652000000f
:101b3400202000002000000050690000636b0000ba
:101b44002053000069640000652000004c6500001b
:101b54006e67000074680000202000002000000070
:101b6400003100002e54000072690000616e000014
:101b7400676c000065200000322e000052650000f2
:101b84006374000020200000003300002e53000086
:101b940071750000617200006520000020200000c3
:101ba4002020000020200000202000002020000031
:101bb4000054000072690000616e0000676c000050
:101bc4006520000050690000636b0000656400003c
:101bd4002020000020200000005200006563000067
:101be400746100006e6700006c6500002050000006
:101bf400696300006b650000642000002020000081
:101c0400005300007175000061720000652000003f
:101c140050690000636b0000656400002020000030
:101c24002020000020200000004500006c6c000013
:101c340069700000736500002050000069630000b3
:101c44006b650000642000002020000020200000bc
:101c54000053000068610000706500002069000006
:101c640073200000446f00006e6500002020000017
:0c1c7400202000002020000000000000e4
:020000040000fa
:101c80000c00fa00881f78002007980031079800a0
:101c900042079800530798008040eb0010c0b30043
:101ca0000d06070020b82800c70607006000b8002e
:101cb000008fbe00010037000000000018c0b30014
:101cc0002e019000be0190001e00be00f5fa070034
:101cd0000000e000010035000044eb000804e000d3
:101ce0000b0032008040eb000040eb00fa050700db
:101cf00002002000432324001e00be0019fa070042
:101d0000008fbe0060b92800af060700ebff370068
:101d100018c0b3004e019000de0190001e00be000e
:101d2000e2fa07000000e00001003c000044eb0084
:101d30000804e0000b0032008040eb000040eb00a4
:101d4000e505070002002000432324001e00be001a
:101d500003fa0700008fbe00a0ba28009a06070009
:101d6000d6ff370020338000610060000000e000f3
:101d700009003a0002002000432324001e00be0098
:101d8000f8f90700008fbe0000402d00010320007d
:101d9000250a0700c9ff3700c033800068006000d3
:101da0000000e00009003a00020020004323240064
:101db0001e00be00eaf90700008fbe0000402d00a3
:101dc00001032000180a0700bcff3700c033800061
:101dd000640060000000e00004003a001e00be0045
:101de0004f0478000080fa00000006006011b8007f
:101df0001e00be00abfa07000000e00006003a003b
:101e00008040eb0010c0b300b305070020b82800e5
:101e10006d060700a9ff37000200200043232400bd
:101e20001e00be009ffa07000000e00006003a0016
:101e30008040eb0010c0b300a7050700e0bb2800fe
:101e4000610607009dff370002002000432b24009d
:101e50001e00be0093fa07000000e00006003a00f2
:101e60008040eb0010c0b3009b05070020bd280098
:101e70005506070091ff3700020020007330240050
:101e80001e00be0087fa07000000e00006003a00ce
:101e90008040eb0010c0b3008f05070060be280033
:101ea0004906070085ff3700020020004333240065
:101eb0001e00be007bfa07000000e00006003a00aa
:101ec0008040eb0010c0b30083050700a0bf2800ce
:101ed0003d06070079ff370002002000133624007a
:101ee0001e00be006ffa07000000e00006003a0086
:101ef0008040eb0010c0b30077050700e0c0280069
:101f0000310607006dff37000200200073382400ff
:101f10001e00be0063fa07000000e00006003a0061
:101f20008040eb0010c0b3006b05070020c2280002
:101f30002506070061ff370002002800d33924007e
:101f40001e00be0057fa07000000e0005aff3a00ea
:101f50008040eb0010c0b3005f05070060c328009d
:101f60001906070055ff37000c00fa00881f78009b
:101f700020079800310798004207980053079800ff
:101f80008040eb0010c0b30053050700a0c4280038
:101f90000d06070000002000010a2400008fbe008b
:101fa000010037000000000018c0b3002e019000af
:101fb000be0190001e00be003afa07000000e000db
:101fc000010035000044eb000804e0000b00320083
:101fd0008040eb000040eb003f05070002002000be
:101fe00003f823001e00be005ef90700008fbe004c
:101ff00060b92800f4050700ebff370018c0b300f4
:102000004e019000de0190001e00be0027fa07007e
:102010000000e00001003c000044eb000804e00088
:102020000b0032008040eb000040eb002a05070067
:102030000200200003f823001e00be0048f907003c
:10204000008fbe00a0ba2800df050700d6ff3700ca
:1020500020338000610060000000e00009003a00c9
:102060000200200003f823001e00be003df9070017
:10207000008fbe0000402d00010320006a09070008
:10208000c9ff3700c0338000680060000000e00036
:1020900009003a000200200003f823001e00be00e1
:1020a0002ff90700008fbe0000402d000103200023
:1020b0005d090700bcff3700c0338000640060008a
:1020c0000000e00004003a001e00be004f0478004b
:1020d0000080fa00000006000200200003f8230040
:1020e0001e00be00eff907000000e00006003a0005
:1020f0008040eb0010c0b300f7040700e0c52800e3
:10210000b1050700a8ff37000200200003002400eb
:102110001e00be00e3f907000000e00006003a00e0
:102120008040eb0010c0b300eb04070020c728007c
:10213000a50507009cff37000200200003042400cf
:102140001e00be00d7f907000000e00006003a00bc
:102150008040eb0010c0b300df04070060c8280017
:102160009905070090ff37000200200003082400b3
:102170001e00be00cbf907000000e00006003a0098
:102180008040eb0010c0b300d3040700a0c92800b2
:102190008d05070084ff370002002000030a240099
:1021a0001e00be00bff907000000e00006003a0074
:1021b0008040eb0010c0b300c7040700a0c4280093
:1021c0008105070078ff370002002000030c24007f
:1021d0001e00be00b3f907000000e00006003a0050
:1021e0008040eb0010c0b300bb040700e0ca280029
:1021f000750507006cff370002002000030e240065
:102200001e00be00a7f907000000e00006003a002b
:102210008040eb0010c0b300af04070020cc2800c2
:102220006905070060ff370002002000031024004a
:102230001e00be009bf907000000e00006003a0007
:102240008040eb0010c0b300a304070060cd28005d
:102250005d05070054ff3700020020000311240031
:102260001e00be008ff907000000e00006003a00e3
:102270008040eb0010c0b30097040700a0ce2800f8
:102280005105070048ff3700020020000312240018
:102290001e00be0083f907000000e00006003a00bf
:1022a0008040eb0010c0b3008b040700e0cf280093
:1022b000450507003cff37000200200003132400ff
:1022c0001e00be0077f907000000e00035ff3a006d
:1022d0008040eb0010c0b3007f04070020d128002d
:1022e0003905070030ff37000000fa0093040700ab
:1022f00050002000d50407009b0407005000200078
:10230000d204070060d228002f0507000200200039
:10231000030c24000000200001f8230012ff070036
:10232000c0448800d144880000402d0001032000f3
:10233000bd0807008104070050002000c304070007
:102340008904070050002000c0040700a0d3280023
:102350001d05070002002000030c240000002000df
:1023600001f8230000ff0700e0448800f1448800e2
:102370000080fa00000006000000fa006f04070069
:1023800050002000b104070077040700500020002f
:10239000ae040700e0d428000b050700020020006f
:1023a000030c24000000200001042400eefe0700be
:1023b000204588003145880000402d0001032000a1
:1023c000990807005d040700500020009f040700e3
:1023d00065040700500020009c04070020d6280058
:1023e000f904070002002000030c24000000200074
:1023f00001042400dcfe07004045880051458800a8
:102400000080fa00000006000000fa004b040700fc
:10241000500020008d0407005304070050002000e6
:102420008a04070060d72800e704070002002000a4
:10243000433b24006000b80011fe070000458800ff
:10244000114588000080fa00000006006600fa00ce
:10245000889fbe008a9fbe0020379800c24480003b
:10246000d3448000028fbe00e2448000f344800029
:10247000220798003307980002458000134580002a
:10248000420798005307980022458000334580009a
:10249000620798007307980042458000534580000a
:1024a000020f9800130f98002e309000e10f50009b
:1024b00083013a006e019000fe019000220f980007
:1024c000330f980002002000030024001e00be000d
:1024d0008bf807000e0990009e09900021f8070074
:1024e000400f9800510f98000200200003002400c4
:1024f0002e009000be00900081f807000001be0091
:102500006e009000fe00900015f80700600f980024
:10251000710f980002002000030024001e00be007e
:1025200077f807000001be000e0890009e0890009a
:102530000bf8070000179800111798000200200000
:10254000030024002e009000be0090006cf80700ed
:102550006e019000fe01900002f80700201798001d
:102560003117980002002000030024001e00be0066
:1025700063f807000001be000e0890009e0890005e
:10258000f7f707004017980051179800727a2e004d
:10259000e3c823004e009000de00900044f90700dd
:1025a00040079800510798004e009000de00900010
:1025b00051f807000004be006e019000fe0190007b
:1025c0002e089000be089000e5f707000001be004d
:1025d0000800be0036f907000004be004e0090005f
:1025e000de009000b2fa07000005be000e09900060
:1025f0009e0990004e089000de089000d8f7070072
:102600000001be000a00be0029f907000001be005b
:102610000800be00d2f707006e019000fe01900096
:10262000d0f7070060179800711798004e009000cf
:10263000de0090009efa07000004be006e019000cc
:10264000fe0190002e089000be089000c4f707001d
:102650000001be000800be0015f907000004be001e
:102660004e009000de00900023f807000005be0039
:102670000e0990009e0990004e089000de08900020
:10268000b7f707000001be000a00be0008f9070006
:102690000001be000800be00b2f707000e0990005e
:1026a0009e099000aff70700001f9800111f9800c7
:1026b0004e009000de0090000ff807000004be00fe
:1026c0006e019000fe0190006e089000fe089000e0
:1026d000a3f707000001be000800be00f4f80700e1
:1026e0000004be004e009000de00900070fa07006b
:1026f0000005be000e0990009e0990000e1090008b
:102700009e10900096f707000001be000a00be0070
:10271000e7f807000001be000800be0090f70700c0
:102720006e019000fe0190008ef70700201f9800b8
:10273000311f98004e009000de0090005cfa070008
:102740000004be006e019000fe0190006e08900033
:10275000fe08900082f707000001be000800be00de
:10276000d3f807000004be004e009000de00900089
:10277000e1f707000005be000e0990009e099000d9
:102780000e1090009e10900075f707000001be002b
:102790000a00be00c6f807000001be000800be0027
:1027a00070f707000e0990009e0990006df7070072
:1027b000401f9800511f98004e009000de009000ce
:1027c000cdf707000004be006e019000fe019000ee
:1027d0002e109000be10900061f707000001be00af
:1027e0000800be00b2f807000004be004e009000d2
:1027f000de0090002efa07000005be000e099000d2
:102800009e0990004e109000de10900054f70700d3
:102810000001be000a00be00a5f807000001be00ce
:102820000800be004ef707006e019000fe01900008
:102830004cf70700601f9800711f98004e00900031
:10284000de0090001afa07000004be006e0190003e
:10285000fe0190002e109000be10900040f707007f
:102860000001be000800be0091f807000004be0091
:102870004e009000de0090009ff707000005be00ac
:102880000e0990009e0990004e109000de109000fe
:1028900033f707000001be000a00be0084f80700fd
:1028a0000001be000800be002ef707000e099000d0
:1028b0009e0990002bf70700002798001127980029
:1028c0006e119000fe119000000020000113240002
:1028d00023f7070060458800714588000e199000b5
:1028e0009e19900000002000811024001cf70700b2
:1028f00080458800914588002e199000be199000ef
:10290000000020000113240015f70700a0458800ef
:10291000b14588004e199000de199000000020009b
:10292000811024000ef70700c0458800d1458800bb
:102930006e199000fe199000000020000113240081
:1029400007f70700e0458800f14588000e21900058
:102950009e219000000020008110240000f7070055
:10296000004688001146880068c121008245800029
:102970009345800060458000714580000203be00e1
:102980000002be006011b8006000b800080001003d
:10299000d03380004400de00614060000004a200eb
:1029a000614060000080fb00610060004400dd00c9
:1029b000d13380000140a10001007000d0338800b5
:1029c0006ac12100c4458000d5458000a245800031
:1029d000b3458000804580009145800068458000b7
:1029e000794580000403be000202be000001be0063
:1029f0000800be000a00010000202100a1072000fd
:102a0000090707006ac121000446800015468000be
:102a1000e2458000f3458000c0458000d14580003c
:102a2000a8458000b94580000403be000202be0034
:102a30000001be000800be000a00010000202100c5
:102a4000a1072000f80607006ac121008445800024
:102a500095458000624580007345800000468000f7
:102a600011468000e8458000f94580000403be005f
:102a70000202be000001be000800be000a00010004
:102a800000202100a1072000e7060700d0338000c6
:102a90004400de00614060000004a200614060006c
:102aa0000080fb00610060004400dd00d133800045
:102ab0000140a10001007000d0338800bd01370043
:102ac0002e309000e20f5000030032002e309000b4
:102ad000e30f5000b7013a00727a2e00e3c82300da
:102ae0004e009000de009000f1f7070040079800cc
:102af0005107980002002000030024002e009000df
:102b0000be009000fef607000004be004e009000dc
:102b1000de009000f8f607000001be000800be00cd
:102b2000e3f707006e019000fe0190008df60700ac
:102b30000004be0002002000030024001e00be00ae
:102b4000eff607000005be004e009000de0090008a
:102b500057f907000001be000a00be00d4f70700c5
:102b60000001be000800be007df607002027980087
:102b70003127980002002000030024002e0090005e
:102b8000be009000def607000004be004e0090007c
:102b9000de00900046f907000001be000800be00fc
:102ba000c3f707000e0990009e0990006df607001c
:102bb0000004be0002002000030024001e00be002e
:102bc000cff607000005be004e009000de0090002a
:102bd000c9f607000001be000a00be00b4f70700f6
:102be0000001be000800be005ef607004027980006
:102bf0005127980002002000030024002e009000be
:102c0000be009000bef607000004be004e0090001b
:102c1000de009000b8f607000001be000800be000c
:102c2000a3f707000001be006e009000fe009000b8
:102c30004bf607000004be00020020000300240041
:102c40001e00be00aef607000005be004e0090005c
:102c5000de00900016f907000001be000a00be0069
:102c600093f707000001be000800be003cf6070015
:102c700060279800712798000200200003002400bc
:102c80002e009000be0090009df607000004be00dc
:102c90004e009000de00900005f907000001be0024
:102ca0000800be0082f707000001be000e08900079
:102cb0009e0890002af607000004be0002002000d3
:102cc000030024001e00be008df607000005be00b4
:102cd0004e009000de00900087f607000001be0065
:102ce0000a00be0072f707000001be000800be0027
:102cf0001cf60700002f9800112f980002002000fa
:102d0000030024002e009000be0090007cf6070017
:102d10000004be004e009000de00900076f6070032
:102d20000001be000800be0061f707000001be0000
:102d30006e009000fe00900009f607000004be003f
:102d400002002000030024001e00be006cf60700f5
:102d50000005be004e009000de009000d4f8070091
:102d60000001be000a00be0051f707000001be00ce
:102d70000800be00fbf50700202f9800312f9800b7
:102d800002002000030024002e009000be009000ee
:102d90005bf607000004be004e009000de009000cd
:102da000c3f807000001be000800be0040f707009e
:102db0000001be000e0890009e089000e8f5070094
:102dc0000004be0002002000030024001e00be001c
:102dd0004bf607000005be004e009000de0090009c
:102de00045f607000001be000a00be0030f70700ec
:102df0000001be000800be00d9f50700402f980072
:102e0000512f980002002000030024002e009000a3
:102e1000be0090003af607000004be004e0090008d
:102e2000de00900034f607000001be000800be007e
:102e30001ff707006e019000fe019000c9f5070022
:102e40000004be0002002000030024001e00be009b
:102e50002bf607000005be004e009000de0090003b
:102e600093f807000001be000a00be0010f707003b
:102e70000001be000800be00baf50700602f9800f0
:102e8000712f980002002000030024002e00900003
:102e9000be0090001af607000004be004e0090002d
:102ea000de00900082f807000001be000800be00ae
:102eb000fff607000e0990009e099000a9f5070093
:102ec0000004be0002002000030024001e00be001b
:102ed0000bf607000005be004e009000de009000db
:102ee00005f607000001be000a00be00f0f607006c
:102ef0000001be000800be0099f5070000379800e9
:102f0000113798002e219000be2190000000200073
:102f10000113240092f50700604588007145880080
:102f20004e219000de21900000002000811024003e
:102f30008bf5070080458800914588006e21900040
:102f4000fe219000000020000113240084f50700fa
:102f5000a0458800b14588000e2990009e29900068
:102f600000002000811024007df50700c045880086
:102f7000d14588002e299000be2990000000200035
:102f80000113240076f50700e0458800f14588002c
:102f90004e299000de2990000000200081102400be
:102fa0006ff5070000468800114688006e299000e2
:102fb000fe299000000020000113240068f507009e
:102fc00020468800314688000e3190009e319000e6
:102fd000000020008110240061f5070040468800b1
:102fe0005146880068c12100424580005345800059
:102ff00020458000314580000203be000002be0073
:103000006011b8006000b800080001006ac121002a
:1030100084458000954580006245800073458000ae
:10302000404580005145800028458000394580009a
:103030000403be000202be000001be000800be0084
:103040000a000100d03380004400de0061406000cf
:103050000004a200614060000080fb00610060008d
:103060004400dd00d13380000140a1000100700068
:10307000d03388006ac12100c4458000d545800056
:10308000a2458000b34580008045800091458000c6
:1030900068458000794580000403be000202be003e
:1030a0000001be000800be000a000100002021004f
:1030b000a10720005c0507006ac1210004468000ca
:1030c00015468000e2458000f3458000c045800041
:1030d000d1458000a8458000b94580000403be00aa
:1030e0000202be000001be000800be000a0001008e
:1030f00000202100a10720004b0507006ac1210024
:1031000044468000554680002246800033468000b9
:103110000046800011468000e8458000f9458000a7
:103120000403be000202be000001be000800be0093
:103130000a00010000202100a10720003a05070035
:103140006ac1210084458000954580006245800069
:10315000734580004046800051468000284680002c
:10316000394680000403be000202be000001be001a
:103170000800be000a00010000202100a107200075
:1031800029050700d03380004400de006140600064
:103190000004a200614060000080fb00610060004c
:1031a0004400dd00d13380000140a1000100700027
:1031b000d03388004f05be004f04be000080fa00e7
:1031c000000006000000fa006bfc070000a02600cb
:1031d0008101200014050700d800070050002000de
:1031e0001a010700e0000700500020001701070047
:1031f00060d228007401070002002000030c2400a4
:103200000000200001f8230057fb0700c04488009d
:10321000d144880000402d00010320000205070072
:10322000c60007005000200008010700ce0007007c
:103230005000200005010700a0d828006201070007
:1032400002002000031024000000200001f82300e9
:1032500045fb0700e0448800f144880000a02600f8
:1032600081012000f004070067fc070000a0260091
:1032700081012000ec0407001000200073fc07000f
:103280000080fa00000006000200fa00000f78003b
:103290001e0078000000e0000f003a0036fc070036
:1032a00000a0260081012000df0407000efc0700bb
:1032b00000a0260081012000db04070052fc07006b
:1032c00000a0260081012000d70407002000200074
:1032d0005efc07002000370027fc070000a0260046
:1032e00081012000d0040700940007005000200056
:1032f000d60007009c00070050002000d300070004
:10330000e0d928003001070002002000030c24004f
:103310000000200001f8230013fb0700c0448800d0
:10332000d1448800c0448000d1448000e04488003b
:10333000f144880000a0260081012000ba040700a3
:1033400031fc070000a0260081012000b604070020
:10335000300020003dfc07000080fa00000006005d
:103360000000fa0004fc0700dffb070026fc070052
:103370004000200035fc07000080fa000000060035
:103380000200fa00004f78001e80fb006100600020
:103390004700dd00c13380000170a1000100700012
:1033a000c033880000c42900010020009e040700eb
:1033b0000000eb000080fa00000006000200fa00a6
:1033c000000f78000900370078c6a80000f421003b
:1033d000010020009404070078c6a90000f4210031
:1033e00001002000900407001e0fe9001e00780075
:1033f0000000e000f4ff3c000000eb000080fa0059
:10340000000006000200fa00004f78001e80fb005a
:10341000610060004b00dd00c133800001b0a100fd
:1034200001007000c033880000c4290001002000a2
:103430007d0407000000eb000080fa000000060099
:103440000200fa00000f7800090037007946a80052
:1034500000f4210001002000730407007946a90050
:1034600000f42100010020006f0407001e0fe90096
:103470001e0078000000e000f4ff3c000000eb00bc
:103480000080fa00000006000200fa00000f780039
:103490000b0037007946a80078c6a80000f4210088
:1034a00001002000600407007946a90078c6a90041
:1034b00000f42100010020005b0407001e0fe9005a
:1034c0001e0078000000e000f2ff3c000000eb006e
:1034d0000080fa00000006000400fa00204798006f
:1034e000314798000040eb00004f78002e409000dc
:1034f000e14f500004003a00be40900000ccb30001
:1035000000cf400003003700be40900000c8b30069
:1035100000cf40008100070080c7b30054000700bf
:103520000040eb00520007001e40780050000700ea
:10353000860007000080fa00000006000000fa0084
:103540007600070080c7b300490007000040eb0089
:103550004700070010c0b300450007007b000700cc
:103560000080fa00000006000000fa006b0007006f
:1035700080c7b3003e0007000040eb003c0007009e
:1035800020c0b3003a000700700007000080fa0076
:10359000000006000000fa007986a90000e224007d
:1035a0002a0007007986a80079c6a90079a6a90093
:1035b00077c6a90077a6a9000080fa0000000600df
:1035c0000000fa005500070080c7b300280007007c
:1035d0000040eb002600070080c3b3002400070072
:1035e000803e20001900070090c3b30020000700b0
:1035f000803e20001500070040c1b3001c000700fa
:1036000080c7b3001a000700e0c5b3001800070028
:10361000d0c6b30016000700c0c0b30014000700f6
:1036200010c0b3001200070060c0b3001000070014
:10363000803e2000050007004400070000712200c2
:10364000020007000080fa00000006000200fa00f5
:10365000000f7800010037001e0fe9001e007800ff
:103660000000e000fcff3c000080fa0000000600c3
:103670000400fa00204798000040eb00004f78005b
:103680001a00370077a6a90020408000cf00de0096
:10369000008040000080d100ecff07002e40900029
:1036a0008080fb001e80fb008008dd0000082000f9
:1036b000008060000000e0000200320077c6a80031
:1036c0000100370077c6a90020408000cf00de004f
:1036d000008040000080d100dcff070077a6a80032
:1036e00020408000d9ff07001e4fe8001e407800f0
:1036f000e74f5000e3ff360077a6a90077c6a80081
:1037000020408000d1ff070077a6a800204080005d
:10371000ceff07000080fa00000006000000fa005b
:1037200079c6a90079a6a90077a6a80077c6a8003f
:1037300020408000c5ff070077c6a9002040800018
:10374000c2ff07000080fa00000006000000fa0037
:1037500077a6a90020408000cf00de000080400056
:103760000080d100b9ff070077c6a9002040800083
:10377000cf00de00008040000080d100b3ff0700d2
:1037800077a6a80020408000cf00de000080400027
:103790000080d100adff070077c6a8002040800060
:1037a000cf00de00008040000080d100a7ff0700ae
:1037b00040012000a5ff070077c6a90077a6a90051
:1037c0000080fa00000006000600fa0020079800ba
:1037d0000000eb0010079800d0ff070080c7b3007f
:1037e000a3ff070000c4b300a1ff07000000eb0027
:1037f000000f7800070037002e009000104078007e
:103800009bff07002e0090000000e80020079800b2
:103810001e0fe8001e007800f30f5000f6ff340082
:10382000caff07000080fa00000006001000fa003e
:10383000889fbe00008fbe002207980033079800c3
:103840004407980055079800660798007707980086
:10385000d0cc2c00c1f42300604288007142880063
:103860006042800071428000325c2f00830c240093
:103870008ff40700204288003142880060428000b7
:1038800071428000325c2f00830c240088f4070012
:10389000404288005142880090d4290001d0230082
:1038a000804288009142880010c0b30092e8b700bf
:1038b0009368ef001e01be004e009000de009000f5
:1038c00027f30700c28320000089be002e0190006c
:1038d000be0190006e009000fe00900020f30700f3
:1038e000c28320002001980031019800c08320008d
:1038f0001000be0018c0b3006011b800ebf3070061
:103900000000e00001003c000044eb000804e0007f
:103910000300320092c8bf0090e8b7000f003700e4
:10392000c08320001000be0018c0b3006011b800b2
:10393000dcf307000000e000010035000044eb006c
:103940000804e0000300320093c8bf0090e8b7000d
:103950000200370092c8bf0090e8b700c083200083
:10396000b00090002000900018c0b3006011b800b3
:10397000cef307000000e00001003c000044eb0033
:103980000804e0000300320092c8bf0091e8b700cd
:1039900010003700c0832000b0009000200090008d
:1039a00018c0b3006011b800bef307000000e000cb
:1039b000010035000044eb000804e0000300320081
:1039c00093c8bf0091e8b7000200370092c8bf005b
:1039d00091e8b70090c8bf000080fb006100600064
:1039e0004700dd00c13380000170a10001007000bc
:1039f000c033880000c42900010020000a0307002a
:103a000091c8bf000080fb00610060004b00dd003a
:103a1000c133800001b0a10001007000c0338800f4
:103a200000c4290001002000ff020700c08320001d
:103a30001000be0032332300b31c24001cf4070026
:103a40000002be0020428000314280000001be0022
:103a50000400be0016f407000002be008042800091
:103a6000914280000001be000400be0024f3070064
:103a70006043880071438800c0832000b00090003c
:103a80002000900032332300b31c240008f4070008
:103a90000002be0040428000514280000001be0092
:103aa0000400be0002f407000002be008042800055
:103ab000914280000001be000400be0010f3070028
:103ac00080438800914388006043800071438000f8
:103ad00018c0b3006011b80072f307000000e000e6
:103ae000010035000044eb000804e000050032004e
:103af000604380007143800001f0a20060438800b1
:103b000071438800804380009143800018c0b30057
:103b10006011b80063f307000000e0000100350009
:103b20000044eb000804e000050032008043800000
:103b30009143800001f0a2008043880091438800f7
:103b4000604380007143800018c0b3006011b8006a
:103b500056f307000000e00001003c000044eb00c9
:103b60000804e000bd0032008043800091438000e3
:103b700018c0b3006011b8004cf307000000e0006b
:103b800001003c000044eb000804e000b3003200f8
:103b900030002000e04088006443800075438000ce
:103ba00080438000914380000001be000400be00fd
:103bb000d3f207000004be00e04080000000e900ee
:103bc000cf80de005cf307000001be000000200093
:103bd00001122400eaf307000001be000800be0045
:103be000b3f30700430107000004be00e04080007b
:103bf0000000e900cf80de004ff307000001be00a7
:103c00000000200001122400ddf307000001be00c7
:103c10000800be00baf20700a0428800b142880046
:103c2000e0408000cf80de0043f307000001be00cb
:103c30000000200001122400d1f30700c0428800d8
:103c4000d1428800a0428000b14280003df30700cd
:103c5000e0428800f1428800a4428000b542800022
:103c6000e0428000f14280000001be000400be007e
:103c70003bf20700004388001143880000438000a6
:103c80001143800018c0b3006011b80007f30700ab
:103c90000000e00001003c000044eb000804e000ec
:103ca0001c0032000443800015438000c0428000a5
:103cb000d14280000001be000400be007cf307007a
:103cc0002044880031448800c0428000d1428000f6
:103cd00040448800514488004044800051448000a2
:103ce000f4f2070000047800204480003144800092
:103cf000f0f207000000780088007800d500070087
:103d0000cf80de000cf307000044880011448800d7
:103d100004003700c0428000d14280000044880087
:103d2000114488000443800015438000c042800095
:103d3000d14280000001be000400be005cf3070019
:103d40000002be0000448000114480000001be005b
:103d50000400be006af20700d6f2070000007800f7
:103d6000f0408800c4428000d542800000448000ba
:103d7000114480000001be000400be0060f2070094
:103d8000ccf207000000780000418800004180006c
:103d9000cf80de00e8f207000002be00e0428000b3
:103da000f14280000001be000400be0040f30700a5
:103db0000004be00f0408000cf80de00def207008d
:103dc0000001be000800be00e6f10700b9f20700de
:103dd000000078004040880000418000504088008a
:103de000684380007943800040408000cf80de003f
:103df000d1f207000001be000800be0040f207003b
:103e0000acf20700000078009040880088438000f2
:103e10009943800050408000cf80de00c6f207004a
:103e20000001be000800be0035f20700a1f2070045
:103e300000007800a040880091408000a0408000f1
:103e4000808f50000300340090408000b040880014
:103e500002003700a0408000b0408800604380002e
:103e6000714380006011b8008ef207000000e0008e
:103e700011003a000828ef00804380009143800041
:103e80008cf20700000078005040880088438000d2
:103e90009943800050408000cf80de00a6f20700ea
:103ea0000001be000800be0015f2070081f2070005
:103eb00000007800b040880080438000914380007b
:103ec0006011b80077f207000000e00011003a002e
:103ed000604380007143800076f2070000007800a4
:103ee000404088000a28ef00684380007943800042
:103ef00040408000cf80de008ff207000001be004e
:103f00000800be00fef107006af20700000078001a
:103f1000b04088004140800050408000808f5000b9
:103f20000500350050408000c040880040408000bf
:103f3000d04088000400370040408000c040880026
:103f400050408000d04088000c28ef003a00370035
:103f50000e28ef000d00370078c6a8007946a800ab
:103f600000f4210001002000af01070078c6a9007d
:103f70007946a90000f4210001002000aa010700f1
:103f8000704080000000e8007040880071408000b0
:103f9000c0408000808f5000efff35001028ef00f8
:103fa0001c0037004140800050408000808f50004e
:103fb0000900340078c6a80000f4210001002000a8
:103fc0009901070078c6a90000f421000100200033
:103fd000950107000c0037004140800050408000f0
:103fe000808f500008003d007946a80000f42100b1
:103ff000010020008c0107007946a90000f421008f
:104000000100200088010700804080000000e800d7
:1040100080408800d1408000c040800080805000f7
:1040200080408000808f5000deff3c0060408000b8
:104030000000e8006040880061408000b0408000df
:10404000808f5000c2ff35004f04be000080fa0090
:10405000000006000800fa002007980031079800c9
:1040600010002000000f78001000200010079800ba
:1040700015003700ae0090001e009000000178008f
:10408000110009008200d8008000fd000000e0005f
:104090000a003a00be0090001e0090000001780067
:1040a000110009008200d8008000fd000000e0003f
:1040b00002003a009e009000010f78001e00900060
:1040c0000000e800100798009e0090002e0090006d
:1040d000808f500004003c009e0090003e00900045
:1040e000808f5000e3ff34001e0078000080fa004b
:1040f000000006000400fa00881f7800008fbe0050
:104100001e00be000ff207000001be001e00be0030
:1041100013f1070018c0b3000200200003f02300d1
:10412000e2f107000000e00001003d000044eb0068
:104130000804e000050032001e00be0066f1070022
:104140004043880051438800120037001e00be0023
:10415000fcf107000001be001e00be0000f10700d8
:1041600018c0b3000200200003f02300cdf10700c7
:104170000000e000010035000044eb000804e0000e
:10418000040032001e00be00eef10700404388002c
:104190005143880040438000514380004f04780021
:1041a0000080fa00000006000200fa00881f780074
:1041b00078e6a9007966a900080037007946a800ca
:1041c00000f4210001002000170107007946a90032
:1041d00000f421000100200013010700c13380001a
:1041e00000102000008060000000e000f3ff3a00b3
:1041f00000902000d10320000b01070008003700c9
:1042000078c6a80000f42100010020000601070084
:1042100078c6a90000f42100010020000201070077
:10422000c133800000202000008060000000e0001a
:10423000f3ff3a0000902000d1032000fa000700ad
:1042400000002c00e159240060448800714488007b
:1042500078e6a8000000eb00000f78000000eb00fb
:10426000000f78000900370078c6a80000f421008c
:1042700001002000ec00070078c6a90000f421002e
:1042800001002000e80007001e0fe8001e00780073
:10429000cf80de00a8f107000002be00604480006d
:1042a0007144800018c0b3000001be000400be00cd
:1042b0007cf107000000e000010035000044eb0045
:1042c0000804e000e8ff3a004f0478000080fa009c
:1042d000000006000200fa00ed00070020002000a8
:1042e0002040880020db280080407800c08f20001c
:1042f000014878001000200030408800a5fc07002d
:1043000000e22400d1fc0700adfc070000e224001d
:10431000cefc070078c6a90078e6a9007946a90076
:104320007966a90079e6a90000902000d103200059
:10433000bd0007009cff070000902000d103200073
:10434000b90007007dfc070050002000bffc0700fb
:1043500085fc070050002000bcfc070030db280073
:1043600019fd07008040eb0010c0b3005afc0700a5
:1043700070dc280014fd070000b02100710b200044
:10438000a900070001003700000000002033800072
:10439000610060000000e0000d003a0067fc0700cb
:1043a00050002000a9fc07006ffc0700500020000f
:1043b000a6fc0700b0dd280003fd07000030270041
:1043c00051052000980007007efb070039003700e8
:1043d00020338000620060000000e00010003a001e
:1043e00056fc07005000200098fc07005efc070008
:1043f0005000200095fc0700f0de2800f2fc0700ca
:104400000030270051052000870007000000eb0066
:10441000000f78001e0078009bfb07002500370086
:10442000c0338000640060000000e00010003a002b
:1044300042fc07005000200084fc07004afc0700f3
:104440005000200081fc070030e02800defc07005f
:1044500000302700510520007300070010002000e5
:10446000000f78001e00780087fb0700110037005e
:1044700020338000640060000000e000c2ff3a00ca
:104480002efc07005000200070fc070036fc0700df
:10449000500020006dfc070070e12800cafc0700f6
:1044a00000302700510520005f000700acfb07002b
:1044b0000000000000302700510520005a000700ce
:1044c0001efc07005000200060fc070026fc0700cf
:1044d000500020005dfc0700b0e22800bafc070095
:1044e00001003700000000002033800064006000fd
:1044f0000000e000fbff3a000030270051052000db
:10450000490007000080fa00000006000000fa00e1
:1045100000002300100888000621ef006821ef004a
:104520006a21ef000821ef00007020005008880089
:104530000c21ef000e21ef007821ef007a21ef002f
:104540007c21ef007e21ef008021ef008221ef002f
:104550008421ef008621ef000001eb00800720009e
:10456000a1092000131020008049780081497800bb
:10457000824978000001eb006004200071052000f2
:104580000310200080497800814978008249780032
:104590000080fa00000006000000fa006626ef0026
:1045a0007a26ef007001200010338800f0322e00d0
:1045b000b03388007426ef008826ef007226ef00e3
:1045c0008626ef006826ef007c26ef0080002000a2
:1045d0005033880000002400f03388000080fa0087
:0445e00000000600d1
:020000040000fa
:1045e400fc08000020000000800000009408000087
:1045f4000200000082000000ffff00009808000095
:104604006400000080000000000800009400000026
:1046140080000000960800000200000080000000f6
:044624000000000092
:020000040000fa
:10462800f03fb1000180b10006003500ee0309003b
:1046380000000000403fb1000180b100fbff3d00d9
:104648001000b000203fb0000200350000800900d3
:08465800000000000000060054
:020000040000fa
:104660000200fa00000f78009e007800a144880044
:10467000ffff37000000fa00c08f2000800778009d
:1046800040912000000188000080fa000000060030
:104690000000fa00c0ff07009cff070002000700af
:1046a0000080fa00000006000000fa000080fa0016
:0446b0000000060000
:020000040000fa
:020000040005f5
:045e0000ffffff00a1
:020000040000fa
:020000040005f5
:045e2000ffffff0081
:020000040000fa
:020000040005f5
:045e300078ffff00f8
:020000040000fa
:020000040005f5
:045e3800b3ffff00b5
:020000040000fa
:020000040005f5
:045e40009fffff00c1
:020000040000fa
:020000040005f5
:045e4800ffffff0059
:020000040000fa
:020000040005f5
:045e5000dfffff0071
:020000040000fa
:020000040005f5
:045e5800ffffff0049
:00000001FF
