:020000040000fa
:080000000001040000000000f3
:020000040000fa
:0400080008020000ea
:020000040000fa
:04000c004a020000a4
:020000040000fa
:040010008a02000060
:020000040000fa
:0400140028020000be
:020000040000fa
:040018006a02000078
:020000040000fa
:04001c00aa02000034
:020000040000fa
:04002000aa02000030
:020000040000fa
:04002400aa0200002c
:020000040000fa
:04002800aa02000028
:020000040000fa
:04002c00aa02000024
:020000040000fa
:04003000aa02000020
:020000040000fa
:04003400aa0200001c
:020000040000fa
:04003800aa02000018
:020000040000fa
:04003c00aa02000014
:020000040000fa
:04004000aa02000010
:020000040000fa
:04004400aa0200000c
:020000040000fa
:04004800aa02000008
:020000040000fa
:04004c00aa02000004
:020000040000fa
:04005000aa02000000
:020000040000fa
:04005400aa020000fc
:020000040000fa
:04005800aa020000f8
:020000040000fa
:04005c00aa020000f4
:020000040000fa
:04006000aa020000f0
:020000040000fa
:04006400aa020000ec
:020000040000fa
:04006800aa020000e8
:020000040000fa
:04006c00aa020000e4
:020000040000fa
:04007000aa020000e0
:020000040000fa
:04007400aa020000dc
:020000040000fa
:04007800aa020000d8
:020000040000fa
:04007c00aa020000d4
:020000040000fa
:04008000aa020000d0
:020000040000fa
:04008400aa020000cc
:020000040000fa
:04008800aa020000c8
:020000040000fa
:04008c00aa020000c4
:020000040000fa
:04009000aa020000c0
:020000040000fa
:04009400aa020000bc
:020000040000fa
:04009800aa020000b8
:020000040000fa
:04009c00aa020000b4
:020000040000fa
:0400a000aa020000b0
:020000040000fa
:0400a400aa020000ac
:020000040000fa
:0400a800aa020000a8
:020000040000fa
:0400ac00aa020000a4
:020000040000fa
:0400b000aa020000a0
:020000040000fa
:0400b400aa0200009c
:020000040000fa
:0400b800aa02000098
:020000040000fa
:0400bc00aa02000094
:020000040000fa
:0400c000aa02000090
:020000040000fa
:0400c400aa0200008c
:020000040000fa
:0400c800aa02000088
:020000040000fa
:0400cc00aa02000084
:020000040000fa
:0400d000aa02000080
:020000040000fa
:0400d400aa0200007c
:020000040000fa
:0400d800aa02000078
:020000040000fa
:0400dc00aa02000074
:020000040000fa
:0400e000aa02000070
:020000040000fa
:0400e400aa0200006c
:020000040000fa
:0400e800aa02000068
:020000040000fa
:0400ec00aa02000064
:020000040000fa
:0400f000aa02000060
:020000040000fa
:0400f400aa0200005c
:020000040000fa
:0400f800aa02000058
:020000040000fa
:0400fc00aa02000054
:020000040000fa
:04010000aa0200004f
:020000040000fa
:04010400aa0200004b
:020000040000fa
:04010800aa02000047
:020000040000fa
:04010c00aa02000043
:020000040000fa
:04011000aa0200003f
:020000040000fa
:04011400aa0200003b
:020000040000fa
:04011800aa02000037
:020000040000fa
:04011c00aa02000033
:020000040000fa
:04012000aa0200002f
:020000040000fa
:04012400aa0200002b
:020000040000fa
:04012800aa02000027
:020000040000fa
:04012c00aa02000023
:020000040000fa
:04013000aa0200001f
:020000040000fa
:04013400aa0200001b
:020000040000fa
:04013800aa02000017
:020000040000fa
:04013c00aa02000013
:020000040000fa
:04014000aa0200000f
:020000040000fa
:04014400aa0200000b
:020000040000fa
:04014800aa02000007
:020000040000fa
:04014c00aa02000003
:020000040000fa
:04015000aa020000ff
:020000040000fa
:04015400aa020000fb
:020000040000fa
:04015800aa020000f7
:020000040000fa
:04015c00aa020000f3
:020000040000fa
:04016000aa020000ef
:020000040000fa
:04016400aa020000eb
:020000040000fa
:04016800aa020000e7
:020000040000fa
:04016c00aa020000e3
:020000040000fa
:04017000aa020000df
:020000040000fa
:04017400aa020000db
:020000040000fa
:04017800aa020000d7
:020000040000fa
:04017c00aa020000d3
:020000040000fa
:04018000aa020000cf
:020000040000fa
:04018400aa020000cb
:020000040000fa
:04018800aa020000c7
:020000040000fa
:04018c00aa020000c3
:020000040000fa
:04019000aa020000bf
:020000040000fa
:04019400aa020000bb
:020000040000fa
:04019800aa020000b7
:020000040000fa
:04019c00aa020000b3
:020000040000fa
:0401a000aa020000af
:020000040000fa
:0401a400aa020000ab
:020000040000fa
:0401a800aa020000a7
:020000040000fa
:0401ac00aa020000a3
:020000040000fa
:0401b000aa0200009f
:020000040000fa
:0401b400aa0200009b
:020000040000fa
:0401b800aa02000097
:020000040000fa
:0401bc00aa02000093
:020000040000fa
:0401c000aa0200008f
:020000040000fa
:0401c400aa0200008b
:020000040000fa
:0401c800aa02000087
:020000040000fa
:0401cc00aa02000083
:020000040000fa
:0401d000aa0200007f
:020000040000fa
:0401d400aa0200007b
:020000040000fa
:0401d800aa02000077
:020000040000fa
:0401dc00aa02000073
:020000040000fa
:0401e000aa0200006f
:020000040000fa
:0401e400aa0200006b
:020000040000fa
:0401e800aa02000067
:020000040000fa
:0401ec00aa02000063
:020000040000fa
:0401f000aa0200005f
:020000040000fa
:0401f400aa0200005b
:020000040000fa
:0401f800aa02000057
:020000040000fa
:0401fc00aa02000053
:020000040000fa
:100200006fae20000e7f24000e0188000000000069
:10021000000020000000e000020032000001200089
:1002200020028800140007007d0107000000e000a4
:1002300003003a0040a32300010020000200370021
:100240000000200001002000810f7000010032003a
:1002500014000700000020000000e000020032004f
:100260000000020000000000c4380200000000008e
:100270000040da000000fe004440a90000332000e6
:100280000000e00003003200002020009001880000
:100290004440a800000006008a1f78008b1f7800e9
:1002a00000000600a1028800800478000000eb0036
:1002b0001f003700e284440054a0b4009905ba003e
:1002c000e284440054a0b4009906ba00e2844400d9
:1002d00054a0b4000006eb00476fde00fd07b2003b
:1002e000ae018800636ce10003003a00eaff0700fa
:1002f0000000eb000e003700606ce10008003a00df
:10030000004deb000a05e800020039003420ec0043
:100310000af0a0008b05e900f9ff3e000400370059
:100320006168e100010032000086eb000b0007006d
:1003300019c7ba001905ba000e04e00003003a001c
:100340000a00e000dbff3a0000000600fe07b200f2
:10035000ae0288008a047800f5ff37000cd0a300b5
:10036000e20f4d001c00390089027800354dba00bb
:100370000a05e800020039003420ec000af0a00071
:100380008b05e9000f003200254dba000a05e80090
:10039000020039003420ec000af0a0008b05e900cf
:1003a000080032000c00e0000600320015cdba0053
:1003b0000a05e800020039003420ec000af0a00031
:1003c0008b05e9008984e80054a0b4000b00e0002c
:1003d000e2ff3a00000006009902ba00055d7800cd
:1003e0008b05e900f7ff3200c82ade00055d7800c2
:1003f0008b05e900f3ff32000c00e000f1ff320052
:1004000019ddba00eeff3700a6340400000000003a
:100410003600f800809fbe00829fbe00849fbe0011
:10042000869fbe000000fa008020a9000000eb00bb
:100430000d1d07000080fa004f03be004f02be00f2
:100440004f01be004f00be003600f900004006001c
:100450003600f800809fbe00829fbe00849fbe00d1
:10046000869fbe000000fa00041d07008040a9001e
:1004700010002000fc1c07000080fa004f03be00a3
:100480004f02be004f01be004f00be003600f90013
:10049000004006003600f800809fbe00829fbe002c
:1004a000849fbe00869fbe000000fa008060a90005
:1004b00020002000ec1c07000080fa004f03be0063
:1004c0004f02be004f01be004f00be003600f900d3
:1004d000004006003600f800809fbe00829fbe00ec
:1004e000849fbe00869fbe000000fa008080a900a5
:1004f00030002000dc1c07000080fa004f03be0023
:100500004f02be004f01be004f00be003600f90092
:10051000004006003600f800809fbe00829fbe00ab
:10052000849fbe00869fbe000000fa008600a900de
:1005300070002000cc1c07000080fa004f03be00b2
:100540004f02be004f01be004f00be003600f90052
:10055000004006000040da000000fe001004b10078
:10056000070035009001b100040034007000b100b4
:10057000030035009001b10001003c0010000500af
:10058000000005006900e100040035006d00e10095
:10059000030034000002b100010032000000050039
:1005a000100005001004b100030035009001b100f7
:1005b00001003c00100005000000050080007800ec
:1005c0001104b100030035009101b10001003c00ad
:1005d0000050a000000006009803e20004003d0067
:1005e0009b43ab00020032009b03ab00feff3200d6
:1005f0000040da00feff37000a00fa000000e000c9
:100600003b003a00d3558000a34190000304e00072
:1006100037003a0023578000e18f51000300320079
:10062000e28f51000e003a000900370080392000a7
:100630000000e00001003a000040da009803e20008
:100640000b003500a023ef0099e3a8000800370055
:10065000e03a20000000e00001003a000040da002b
:10066000ae03e20002003500b623ef00afe3a800be
:10067000020078001a003700040a2000e18f5100c0
:100680000b003a00030037000402e90002003a00c0
:1006900003003700040a20009a03ab00faff32007f
:1006a000d41c8000050037000402e900020032007b
:1006b000b003ab00fcff3200841d800061026200c9
:1006c00009003200e18f510002003a00f41c800062
:1006d00001003700a41d8000845878000000e90064
:1006e0000000e000e4ff3a0000005100080037007d
:1006f00023002000b3bf9f00c0bf9f00d1bf9f0059
:10070000e2bf9f006a8057005f0907006fb897003b
:100710000080fa00000006000a00fa00e20f500014
:1007200034003e0020578000e10f500003003200eb
:10073000e20f500011003a000c003700833920000e
:100740000300e00001003a000040da009803e200f4
:1007500002003500a023ef0099e3a8009b43ab0003
:100760000d003a009b43a8000b003700e33a20003d
:100770000300e00001003a000040da00ae03e200ae
:1007800002003500b623ef00afe3a800b143ab0091
:1007900001003a00b143a800820178000b00370045
:1007a0003102fb00e10f500004003a009b23ab0034
:1007b000feff3a00e41c880003003700b123ab00c1
:1007c000feff3a00941d88008301e9000300e00069
:1007d000f3ff3a00e10f500003003a009b03ab0027
:1007e000feff32000b003700b103ab00feff32000a
:1007f0000800370033002000b3bf9f00c0bf9f0038
:10080000d1bf9f00e2bf9f006a8057002009070008
:100810006fb99700020078000080fa00000006001f
:100820000000050003f0a200889fbe008a9fbe0062
:100830008c1f7800370107003e0133006450e1004f
:100840004f0032006420e1005200320003826c004d
:1008500007003b000905d0000306d000820f5400ba
:100860000c065d00020039000200320089017800a8
:10087000030678008582550004003d000003fd005a
:100880008103fd008502ea008b854200840f72001f
:1008900002003b0060001000e08018006011b8000a
:1008a0000005eb007a28e1000a0039000600780014
:1008b000c75ddd00f707b200878075002d003700a7
:1008c000828171000a017800610560008180d10099
:1008d0000080d3008502e900f9ff3b0006044000d8
:1008e0008784480002003b0060041400e0841c0080
:1008f0000988a300070032008a817100828171009b
:10090000610164008904d1000884d3008b05e800ec
:10091000170037000978a30013003a000b00e0002d
:10092000130034008b05e9000804440089844c005e
:100930000a4474000978a3000d003a000b00e0009f
:10094000070034008b05e9000804440089844c004a
:1009500001003a000b0020000978a300f7ff3200e5
:100960000001eb0002003700828171000a0178006b
:10097000ad0007000cf0a70001f0a000f600370062
:100980006420e10002003a00838f6c00f60033001f
:100990000801be000200be00ef0037000001eb00be
:1009a0004a000700040032000200200003f8230080
:1009b00001f0a6009cff0700000006000081eb008c
:1009c00003023700889fbe008a9fbe008c1f7800fc
:1009d000d0000700d700330003866c006450e100ac
:1009e0002e0032006420e100330032006150e1004b
:1009f0002f0032006120e100310032008585550072
:100a0000eb07b000090020000804200005003700b3
:100a10000804440089844c000a00310006034300a6
:100a200087834b000001530081815b00f8ff330096
:100a30000203be000800a0000804440089844c00a2
:100a4000f6ff3900c639dd00830173000100320072
:100a5000130020008904d1000884d3000998a30062
:100a6000050032000800a7000300a0008904d1009f
:100a70000884d3008b05e8008904d1000884d300e2
:100a80000001eb000281d2006700070001f0a10025
:100a90000cf0a70001f0a000af0037006420e100d7
:100aa000b10032000801be000200be00f7ff3700af
:100ab0006120e100ac0032006000b800f3ff3700b5
:100ac0000000200001f82700f0ff3700889fbe00db
:100ad0008a9fbe000003be007900070085057800ec
:100ae00082815200020020006220e10004003a00ee
:100af000f307b100040035007718e1000400350069
:100b00000600be00140037006000b8000f00370078
:100b1000f50f2000faff2f008502d1000a85d300cf
:100b20008301e900fcff3b00818462000004650052
:100b3000890f7400f2ff32008582ea000a85ea001c
:100b400081846200000465003700070007f0a700f9
:100b500001f0a0000081eb000200e0004f05be00a4
:100b60004f04be000000060014002000720237008f
:100b7000f4ff2f00700237000001be005000070094
:100b80000470a70003f0a1006509b100160032004f
:100b90000d0035006828e10006003500f0ff2f0049
:100ba000f1ff27000300e00013003b0001002800d4
:100bb0000000050000004000818048008502e90037
:100bc000fcff3a0008003700f88f420002003c00aa
:100bd0008000eb00000005008100d1000080d30000
:100be0008502e800fcff3a000300e00002003b0041
:100bf00060001000e0801800000006004f89de0051
:100c000082017800670237000001eb00afff0700a8
:100c1000040032000200200003f8230001f0a700c6
:100c200000ff0700000006008100200061805500e1
:100c30000b003d000b00200061fe2f000100e100d1
:100c40001d00340082817100610164008904d100bb
:100c50000884d3000000e800faff3a007100200089
:100c600061006400030070000200600009003200af
:100c700061044400e0844c000988a50005003200ae
:100c80008b05e8006808e10002003a008904d10001
:100c90000884d300f20f20000258e10005003d0057
:100ca000c75ddd00f907b200898075000800780093
:100cb000000006000bf827008b00780000000500fc
:100cc000c70ade00f107b200f50fb20008003200db
:100cd000e1cf4200020032000170a00024000500b4
:100ce000810f700001003200040805004400050077
:100cf000810f700002003a00140005008502e9002f
:100d00000000400081c04800fcff3b000170a000d3
:100d1000240005000004be00e9ff07000003be0038
:100d20000405be000200be00e5ff0700844f750009
:100d3000000006000200be006450e100050036001d
:100d40006420e100020036000968a30001003a00b7
:100d50000800be000160a0004f0678004f05be00ed
:100d60004f04be0000000600f0ff2f00f1ff270037
:100d7000f9ff3700889fbe008a9fbe008c1f780055
:100d8000e4ff0700ebff330003866c006450e100d2
:100d9000240032006420e100270032006150e100ad
:100da000220032006120e100210032008b854200e8
:100db000eb07b1000134b800003ab8000804420063
:100dc00089844a00013ab8000030b80088804000a9
:100dd00009014a00040033000000400081804800ff
:100de000020149008b05e900c909dd00830170009b
:100df0000100320013002000c814de004814dd009a
:100e00004709de001200b200c808de000884700046
:100e100085ff070001f0a1000cf0a70001f0a00081
:100e2000cdff37006120e100cfff32000801be0096
:100e30000200be00f7ff37006150e100fcff3a00fe
:100e4000c9ff37000c00fa00889fbe008a9fbe00d1
:100e50008c9fbe00afff07000206be00840578002d
:100e60000200be000200200018ff070005003a0043
:100e70008b02b3001200200014ff070001003a00ab
:100e8000f8856d000c01be00c60007000800be001a
:100e90009b0032000b08a3009e003a000df0a70053
:100ea0000be0a00009f0a7000bf0a00009f0a100e2
:100eb0000801be00bb0007000bf0a6009500320041
:100ec00001003c000bd0a0008acf7500b2003300b7
:100ed0006000b8006250e10099003900a1003e00b6
:100ee0000b28a300a2003a000bf8a3000600320072
:100ef0000b58a300a70032000801be00a90007009c
:100f00000800be00940032000800be001b0107006c
:100f10000004be00050578000bf0a7000b30a6000a
:100f20000bf0a1005b079800324f200053f3230021
:100f30000dff070005003d000800be001200200064
:100f4000280207000004be000a05e9004a079800cd
:100f50006150b90029ff0700008fbe000c01be00e0
:100f600084ff070004ff0700300798000100e0003d
:100f700002003d0060001000e0801800f2ff270032
:100f8000820f5000e08f580064003e000c00be004d
:100f9000f9fe070020079800f2072000820f50009a
:100fa000e08f580005003c0012f82f00f3ff2f00df
:100fb000820f5000838f580009003d000a00e000b6
:100fc0000300320001003c000201ea000205780043
:100fd0006000b800200798003a0798001900370011
:100fe0003e0090006100b90004ff0700809fbe0032
:100ff0000c00be004109dd004811de007208b1009e
:10100000b2fe07000005be001e01be0059ff07002a
:101010004f01be0003fe0700809fbe000c00be0013
:101020000a01be00fffd07001e01be0051ff0700c0
:101030004f01be00fcfd07008221270013f32300af
:101040004cff07000005be002e0090006100b900b3
:10105000eafe070001f0a2000c01be00f2fd07004d
:101060000006be000800be00000207000c01be0022
:1010700040ff07000a01be00ebfd0700809fbe0095
:101080004a0007002e0590000af0a7000a05ea00b2
:10109000050037000800be000801be0035ff07004c
:1010a0000004be000c00be000801be000a00a7003c
:1010b00030ff07000006be000a05d100f5ff3a0028
:1010c0005e01900002e0a600030037000001be00b0
:1010d000360007003bfe07000004be004f00be00c4
:1010e000b30007000801be0022ff07003e01900088
:1010f000bc010700de0590000bf0a70001f0a20084
:101100004f06be004f05be004f04be000080fa002f
:101110000000060025000700f9ff37002700070040
:101120006000b8000bd0a7000bc0a0000be0a70028
:101130000bc0a2000bc0a70001f82700f0ff37008a
:101140000df8a300020032001e000700190007007e
:101150000bf8a300eaff32000b30a70001f0a20059
:10116000e7ff37000df8a300f9ff3a00f7ff37005b
:101170000801be000b000700e6ff320001003c0042
:101180000df0a2006000b8000df0a70009000700f4
:10119000dbff37000b000700f1ff2700f0ff2f00f7
:1011a000d7ff3700010007006ffe370001f823006a
:1011b0000000050001f827000000050020022000c3
:1011c0000100370010022000804488000000060063
:1011d000889fbe008a9fbe008c9fbe00820578005b
:1011e0000004be00b6fe07000800be006420e10057
:1011f0000700390002003a00f1ff2700f0ff2f003e
:101200000160a000120220008244880055003700cf
:101210006120e10003003a000b00a70001f8230061
:101220005000370001f0a100020021009364240067
:101230004dfe07000800be0004003500b2fd20008e
:10124000930c2400160107000004be000005eb000b
:101250000b00a6004f0dde0001f0a1000004be004f
:1012600032982f0023ea2300c2fe07000001eb00a2
:1012700003f023000b00a70003f823006afd07001a
:101280003dfe07000000a7000a00a2005bfe070069
:101290000b00e000030032000200200003f02300f6
:1012a00060fd070001f0a2000006be000200200061
:1012b00093042400affe07000801be005afd07009a
:1012c000809fbe000c00be0022a22a00d3a72300ec
:1012d000a8fe07004f01be0053fd07000004be003a
:1012e00001f0a10002002000039823001efe070069
:1012f0000800be00190035000001be009dfe070079
:101300000006be00b2c52900e362230099fe070073
:1013100022222b00f3942b0043fd07000c01be009a
:1013200094fe0700e273280083c023003efd0700ff
:101330000c01be008ffe070042aa2a00a3e22b0088
:1013400039fd07000c01be008afe07000801be003f
:1013500088fe07000801be0033fd07000a00a70051
:1013600001f0a2004f06be004f05be004f04be00b4
:10137000000006000001eb0095ff37000003be00ef
:101380004ffe07006220e100020032000600be00ae
:1013900005000500e507b100f107b20004f02300e5
:1013a0008480700007f0a70001f0a0002400050071
:1013b000889fbe008a9fbe008c9fbe000004be00b6
:1013c0003ffe07000800be006420e10048003e0028
:1013d0005500320072212700132b2400e4fd070082
:1013e00047003c000800be00c2ec2800e32c2c00a3
:1013f000ddfd0700470035000800be0001f0a10038
:101400000200200003382300d7fd07004300350009
:101410000800be00b2a32a0083fb230055fe07008c
:101420000200200003f0230001f0a70003f0a00059
:10143000fdfc0700d0fd07000005be00effd070022
:1014400001f0a2000006be000200280013f32300f2
:1014500048fe07000801be00f3fc0700809fbe00a5
:101460000c00be0032082800e3952b0041fe070067
:101470004f01be00ecfc07000006be000001be00ec
:101480003cfe0700809fbe004241250083b8230038
:1014900038fe07000200200003e82300e2fc0700fa
:1014a0000c01be0033fe07000006be004f00be0068
:1014b000f2f92b00c3d423002efe07000200200007
:1014c00003f02300d8fc07000c01be00d5fc070088
:1014d0000001be000c00be003afd07000200200023
:1014e00003f02300d0fc070061014500bd000700a8
:1014f0004f06be004f05be004f04be0000000600b0
:1015000001f8270000002000220220008244880009
:10151000f7ff37006000b800fbff370001f8230039
:1015200000002000f2ff370009f8a300f0ff3200ae
:101530006000b800eeff3700889fbe008a9fbe00a3
:10154000841f7800f3fd07004f007800110033007e
:10155000f0ff2f00838f6c0006003b000405650040
:101560000a00a7000800370009f0a60010002000bc
:1015700008003700820f5400838f5c00030039009d
:101580001000200001003e000000200009f0a7002c
:101590000000ea004f05be004f04be000000e0005e
:1015a00000000600881f7800030478000300e000b4
:1015b00007003d0060001000e08018006001190085
:1015c000e081190002003b0001f02d00030037000c
:1015d0000400070008f0a70001f0a0004f04780005
:1015e00000000600889fbe008a9fbe000082700037
:1015f0000402710004827100260032000004be0063
:101600000200be006011b8006b09200095022000a6
:101610000182cf000a0039000541b1000082cf00ed
:10162000070039000541b1000982cf0004003900ec
:101630000541b1000882cf00010039000541b10029
:1016400005425200120032000a003b008281710004
:10165000610164008100d1000080d3008984d3003f
:101660000884d3008b05e8000442e800f7ff3a0045
:10167000070037000804440089844c00000048003b
:10168000818048008b05e9000442e900f9ff3a0037
:1016900065fd07004f05be004f04be0000000600b8
:1016a0000400200000003700889fbe008a9fbe0013
:1016b0008c1f78004f26dd0096fd07009dfd33004e
:1016c0006120e100430032006250e10041003e0031
:1016d0003e0039006420e1003c00320005825500e4
:1016e0000f003b000402e80038003a00800f53006e
:1016f000818f5b00350034000800be0003f0a100bc
:1017000001f0a60003f0a0000cf0a70046fc0700c3
:1017100091fd37000603430087834b000c464600cb
:101720000005530081855b00020033000a03be0000
:101730000c00a0000402e900f6ff3b0085057800dc
:101740000602430087824b0004003a006000b800a4
:1017500009f0a70001f0a0007ffd37000002520051
:1017600081825a000704e0000400330006034300ae
:1017700087834b008b05e900faff370009057800e5
:101780000604be000203be006011b80026fd07007b
:10179000e00f5200e08f5a000700350002003c00c5
:1017a0000c08a300040032000601be0003f0a000f4
:1017b0000cf0a7001cfc07000a85680001f0a100de
:1017c0000af0a70001f0a00063fd37000800be008a
:1017d00061fd3700100220000cf0a6008044880054
:1017e00061fd37000003be0035fd07006220e10007
:1017f000020032000600be00000006008502410023
:10180000e30f20000328e10005003c00a3fe2f00a9
:101810000328e10007003d0005002000010037001b
:10182000f50f200020022000804488006000b800ee
:1018300008003700130020008381520005003d009e
:101840008100d1000080d3008301e800fcff3a0052
:1018500005002000c72add00f107b2008580700076
:1018600007f0a70001f0a00000000600889fbe005e
:101870008a9fbe008c9fbe00c0fe070085047800d2
:101880000005be006420e10049003e006220e10046
:1018900003003200090035000bf8a30044003200b9
:1018a0000bf8a300080032001002200080448800da
:1018b000f0ff2f00f1ff27003d00370001f82f0057
:1018c000000020003a0037003d000700d5fb07006c
:1018d0000006be000a00be00324f200053f3230072
:1018e000a3fc0700060034000c00be003400070013
:1018f000ccfb07000006be000a00be000200370055
:101900008904e9000c00be002d00070019fd070046
:101910002b000700c4fb07000001be000c00be0046
:1019200028fc07000005be000001be0011fd0700f5
:101930000006be00a2f32300430d2c00bafb0700f3
:10194000809fbe000c00be00d2e32700d3f02b0026
:1019500008fd07004f01be001afc07000006be008c
:101960000a01be0003fd07000a01be00aefb07002e
:101970000006be006148b900a0fc07000005be00db
:1019800032082800e3952b00fafc07000c01be008a
:10199000a5fb07000006be000a00be0002002800ea
:1019a00013f32300f3fc07000c01be009efb0700ad
:1019b0004f06be004f05be004f04be0000000600eb
:1019c00003f0230002000500000478000200070075
:1019d0000800780000fb0700000006000000fa0085
:1019e00068815700cfb8970020aa20003a08070066
:1019f0000080fa00000006000000fa00688157002d
:101a0000cfb8970060a92000960007000080fa0078
:101a1000000006000000fa0068815700cfb8970068
:101a200020aa20002c0807000080fa000000060011
:101a3000889fbe0001047800b80090008084eb000d
:101a40000118a3003a003200180190000198a30089
:101a500002003a000200e00035003a000190a000c8
:101a60003104980080047800f90fb2000200e00011
:101a700002003a0028009000000c7800ea8f540021
:101a800005003a000178a30003003a0088007800be
:101a9000d0002000e6ff070018009000d80090005a
:101aa000810f50000b0032000000e8001004980085
:101ab0001800780009487800000ce80011c0b30055
:101ac000c0ad200001487800ea8f540018003a00a9
:101ad000050037008800780009407800e20307001d
:101ae0008004780012003700380090000088a300be
:101af0000f00320018019000a800900048009000ec
:101b000005fb070098009000810f50000400320090
:101b1000380090000003b300300498008084eb008c
:101b20000000eb001004980028009000000c7800e2
:101b3000090078004f04be0000000600889fbe0028
:101b40000004be00050037000000fb00890078009b
:101b5000b7ff0700e10f4000040032003840780072
:101b60000004e000f8ff3a000000eb004f04be0064
:101b700000000600881f780021aa2000efff070060
:101b80000004780021aa2000a0002000a8ff070080
:101b9000080078004f04780000000600881f7800d5
:101ba0001057800033030700000478000800780015
:101bb00074fa07000000e000f9ff3a00e10f44006a
:101bc000030032001157800008007800e503070089
:101bd0004f04780000000600889fbe008a1f78002e
:101be00000047800814478000205780000fd2f0091
:101bf00008004000e90f500002003e000004780099
:101c0000100037000800780066fa07000000e000c6
:101c1000050032000a00e0000300320008007800ee
:101c200066fa070000047800080078004bfa070005
:101c30008000780000c0eb000100e00006003200e8
:101c40007805b1008984fb0000c0eb00890f5400c7
:101c500001003d00084078004f0578004f04be00a9
:101c600000000600cf04b000889fbe008a9fbe001f
:101c70008c9fbe008e1f7800f1b79f000205780090
:101c8000105788000000eb00c0b79f0000067800e6
:101c90008044eb00d9ef9f00e8013700ffb09700c8
:101ca0008100e800f1b79f008884fb0009007800fc
:101cb00034fa07000000e00002003200b7ff07001e
:101cc000dc01370050c2b300804f5400ca013a0013
:101cd0008044eb0020c0b300c0ef9f00894578002e
:101ce0007fb09700800678000a0478002ac0b3000d
:101cf000040037004ac0b300010037002ac0b30017
:101d00000d007800bd40780072c6b30082cf50004d
:101d100021003e0002c1e90082cf500041003100a5
:101d20007941510082cf5000af0032000e003e00da
:101d30006741510082cf50003a00320006003e0059
:101d40000104e0008d0032007b41510082cf500041
:101d5000ff003a003100370072c4b30082cf500058
:101d6000fb003a002f00370032c6b30082cf50008c
:101d7000e00032000c013e006b41510082cf500068
:101d8000f3003a00caef9f00fdb79f0008057800f6
:101d9000100020001e003700e2c6b30082cf5000c2
:101da0009500320008003e006541510082cf50008e
:101db000fd003200d1ff39006341410082cf500065
:101dc000e3003a008800370032c7b30082cf5000ea
:101dd0009900320004003e006441510082cf50005f
:101de000db003a00f600370052c7b30082cf500044
:101df000ed0032006341410082cf5000d4003a0030
:101e0000caef9f00fdb79f00080578000000eb00b7
:101e1000c0b79f0001c1b300ed0037008b45e8005b
:101e2000b7ff3700caef9f00fdb79f000805780095
:101e30005aff07000904e00001003a00b9c3b300eb
:101e4000105780008b0207000c04e800d10220002c
:101e5000810f500008003a008efa2f000f0747004c
:101e6000005f780010578000820207000804e80035
:101e70008944e900020037008efa2f000f0747005f
:101e80000046eb0009003700005f7800e102200007
:101e9000810f500001003a000c46e8001057800006
:101ea000740207000804e8008944e9000904e0001e
:101eb0000400320001fd2f0080804000e98f5000b7
:101ec000f1ff36000c04e00003003a00e1022000bc
:101ed000810f5000ecff32000904e0001d003200c9
:101ee00051062000810f50000300320051042000f1
:101ef000810f500017003a00005f780010578000f3
:101f00005c0207000804e8008944e9000b00320085
:101f1000d1022000810f5000030032008180e900cf
:101f2000810f500005003a00005f780010578000d4
:101f3000500207000804e8008944e9000904e000b1
:101f40000400320001fd2f0080804000e98f500026
:101f5000f5ff3600004feb00e10f400003003200b8
:101f600011578000ff0207000804e90081fa2f00e2
:101f70008f804000810f570002003a00dfec97008d
:101f8000b20037000b04e0002b013a005fe8970035
:101f90000040e800d0ef9f000a85e900cfe89700f5
:101fa000e2cf5000090032009a0478008000eb0074
:101fb00080fa2f000f0040000c02070062040700a7
:101fc000809cbe008294be001b0137009a047800fa
:101fd0008000eb0080fa2f000f0040002301070073
:101fe000808cbe0014013700e24f550041ff3200e3
:101ff0008ac0b30042ff3700caef9f00fdb79f00c1
:10200000080578000b04e00072003a000a85e90038
:102010004fe89700e44f500004003a001a0078009f
:102020006161b9000288be006a0037001a007800ba
:102030000c08780067003700fdb79f00080578009e
:10204000d6fe07000b04e00001003a004a077800c2
:10205000105780000702070080067800e18f4600d5
:10206000020032000c04780014003700dfec970007
:102070000d007800ea0037000804e800ffb0970080
:102080001100fb00808f560003003a008100e80039
:10209000f1b79f00100037000b04e00001003a0088
:1020a0000d5f78000cc04400884f50000a003200d9
:1020b00010578000ef010700800678000d00e8004f
:1020c000e10f5000040036000d0078002df90700e4
:1020d0000000e000e8ff32000b04e000d6003a0008
:1020e0005fe897000040e800d0ef9f000b4f7800ba
:1020f000d1003700fdb79f00080578000b04e00011
:1021000004003a00dfe897008140e800d1ef9f002b
:102110004a0778000c04780010578000d5010700aa
:10212000e10f400002003a00dfec9700bc003700ee
:102130000b04e00002003a000804e800005f7800a9
:102140008944e9004240a900f3ff3c00ba0037008f
:102150008180fb0002fd2f0001014100e90f5100c9
:1021600009003e00a4010700804478008d0078003b
:10217000810678003100fb000003b100e90f500038
:10218000fbff3600defe3700fdb79f000805780034
:102190000104780010578000b6010700800f54003a
:1021a00099003a00a3003700caef9f00fdb79f00d7
:1021b00008057800a0c0b300d0e79f0005003700f5
:1021c000caef9f00fdb79f000805780081c0b300eb
:1021d000d1e79f0071fe070010578000a50107009e
:1021e000d0b79f000c06e800bcb79f000040eb0092
:1021f000c0e79f00d0022000dfb09700808f500022
:1022000008003a00105780009a010700d0b79f00dd
:102210003fb097000000e800b0b79f0011c0b300c6
:10222000c1e79f004fb19700dfe097005fb09700d4
:1022300069fe0700e14f40000d003a00dfec970017
:10224000115780005fb09700460207000904e000c4
:102250007f003a0010578000b00090000000eb00b3
:102260000148a3007b0032000080eb0079003700ba
:1022700000032000dfb09700808f500018003a0064
:10228000105780007b01070081072000810f50005c
:1022900004003a00cfb097000100e00007003200d0
:1022a0000d00370081052000810f50000a003a0020
:1022b000cfb097000100e000070032001057800007
:1022c0006c010700d0b79f003fb097000080e80086
:1022d000b0b79f00020037001157800021020700ad
:1022e0006066b8000a0478000c00be000b46780057
:1022f000dfe697000005be0001003700b3b79f007e
:102300000d81fb008001eb000a00be00890407007c
:102310000005be004fb197008d4078005fb0970078
:102320002dfe07000080fb008000eb00000545004b
:1023300081854d00bfb097008101e8008944e90024
:102340000a0032001057800083bf9f004901070038
:10235000d0b79f004fb197008d4078001efe070058
:102360008fb99700e14f4000e4ff3a000a00be0039
:102370008c45780008057800030478000006be004c
:102380004fb19700dfe097005fb0970012fe0700a3
:10239000e14f400004003a00115780005fb0970001
:1023a000f00107003fb497004fe097000004e00001
:1023b0000200320060061600e0861e000b04e000fa
:1023c0001d003a00dfe897008140e800d1ef9f0050
:1023d0000a85e9004fe89700e44f500003003a00f7
:1023e0001a0078000c88be00130037001a0078002d
:1023f0000c08780010003700105780001d010700fe
:10240000808f540009003200dfec9700e10f40009c
:102410000300320011578000d20107000c00370082
:102420000904e0000a003a000a0037000c04e80042
:10243000010037000c047800080678007fb0970090
:10244000104478000804e00014fe3a00dfec970026
:102450000980fb004f0778004f06be004f05be0005
:102460004f04be00cf04b10000000600889fbe00ec
:102470008a9fbe008c9fbe008e1f780001067800e8
:102480000c00e00001003200000e780080047800ab
:10249000090578008a047800b905fb000b00780074
:1024a00038f807000000e000f9ff3a00d0022000f1
:1024b000808f550003003a000905780018c0b3006a
:1024c000050037000044eb00b0022000808f55006b
:1024d00001003a00090578006000b8008004eb00b4
:1024e00009077800010037000a05e8000a017800b2
:1024f0000848a30005003a00e3c2b3009acf1100d8
:1025000002003a000844a000f7ff37009a4578001f
:102510008b01fb000303b100e98f510015003e0061
:102520000814a0000801fb00e98f54000d003200e0
:102530000240a7000e07e9008904e800a20020007d
:1025400003002000fb03070002cdb30002c14500d9
:102550000281fb008001eb00000041008180490006
:10256000e1ff37000248a300dfff3a000e07e80052
:10257000ddff370053c6b30083cf5500040032009f
:102580008004eb0053c4b30083cf55002c003a0005
:102590005a417800d3c2b300834f510002003a0081
:1025a0000834a00003003700b3c2b300834f5100ca
:1025b00001003a000a05e8000a01780002057800e7
:1025c0003a42780003c3b300834f5200faff32004f
:1025d0008402fb000503b1008004eb00e98f520088
:1025e00015003e00834452008984fb000a017800f4
:1025f000124278008402fb000503b100e98f52000b
:102600000d003e006a4bb900834452008984fb00f0
:1026100086844400524278008402fb000503b10026
:10262000e98f520004003e006a4bb9008344520017
:102630008984fb00868444000830a7008904ea00ee
:102640000c00e000030032000818a3000100320073
:10265000020e780069f907000005be000006be0002
:102660006011b80040f90700000178006000b80070
:102670000200e000580032008e84440032f82f003f
:10268000828f540003003d00220220008244880013
:102690005100370000082000808f540007003400ec
:1026a00020022000804488000808a3004500320072
:1026b0000000200001f82f00470037000900e0006b
:1026c0001b003d008904ea0006003700922f20001d
:1026d000530125000a00be00baf807000005be003d
:1026e000ea845400e98f5400f8ff3c0006003700ec
:1026f00002002000031224000a00be00b1f8070007
:102700000005be008904e9000900e000f8ff3a0076
:102710000a06be0002002000030820000a00be00d6
:1027200011f907000000e00021003d001b00370008
:102730000900e00007003a001d003700922f20003a
:10274000530125000a00be008af907000005be00fb
:10275000ea845400e9cf5400f8ff3e000600370039
:1027600002002000031224000a00be0081f90700c5
:102770000005be008904e9000900e000f8ff3a0006
:102780000a06be00f2ff2f00f3f727000a00be0082
:10279000f7f807000000e000050034000808a30077
:1027a0000b00320000002000010828000a0037005a
:1027b0000808a300010032000df0a2000c00be00ca
:1027c000050037000000200001f827000200370054
:1027d00000002000010820004f0778004f06be00cf
:1027e0004f05be004f04be00000006001fff37006b
:1027f0008000eb001dff37008000780001007800aa
:102800003041780003c2b300834f5100faff320019
:10281000e94f5100f8ff3200edc14100834f5100f4
:1028200003003a008000780013c0b30005003700b1
:102830008041eb00b4c2b300844f510001003a0064
:10284000800078000000eb00020037006a02b90047
:10285000040041003101fb000203b100e90f510007
:10286000faff36000304e000010032000000ea0035
:1028700000000600881f78000004780038009000ef
:10288000f1006000e18f500005003a000098a300bd
:1028900008003200980090000100e00005003200be
:1028a000380090000040a000300498000080eb0049
:1028b0001f0037000090a10030049800180090001d
:1028c0000000e000060034000000e9001004980059
:1028d000980078001180fb00010ce800050037002b
:1028e000380090000068a300edff3a00080078006f
:1028f00011000700b80090000178a3000c003a0016
:10290000fa0f500008003a00280090000000e00094
:10291000e3ff3200180090000000e8001004980067
:10292000180ce900deff3700ed0f5000e3ff320026
:102930004f047800000006000200fa00889fbe00e5
:102940008a1f7800000478000000eb001004980053
:10295000b80090000080eb000108a3003e003200a8
:10296000c0ad20001004e0000f003200aaab200030
:10297000c9fd2f008a844400390090002010b20065
:1029800021102000810f500002003a000900780059
:1029900093000700ec8444008a8f5400f6ff3a004d
:1029a000c0ad20000048eb00580190000200e0009c
:1029b0000e003a001204980012002000e880570030
:1029c000480090000cf70700e10f500003003a00a8
:1029d0008ff897000180fb001f003700380090003f
:1029e0000040a0003004980013003700a8009000b9
:1029f0004800900000f70700100498000000e00075
:102a000003003200e10f40000d003a0003003700e0
:102a1000380090000040a00002003700380090000d
:102a20000003b3003004980028009000000c7800e8
:102a30000000eb00100498000080eb000600370057
:102a4000a8009000010c78000000e9001004980034
:102a50001180fb00010ce8004f0578004f04be0018
:102a60000080fa00000006000200fa00889fbe0005
:102a7000a0ff9f0001047800380090000068a300c8
:102a800033003a00e200600005003a000003b300a2
:102a900030049800110498000080eb002e003700ed
:102aa000d80490000900e00006003a00120020005f
:102ab000e68057004800900017f7070019049800b7
:102ac00023003700a80090000100e00008003a0051
:102ad000f1ad200021049800010c780021002000b5
:102ae00051049800110498000030a00030049800b0
:102af00018019000a80090004800900006f7070019
:102b0000280090008080eb0011049800aff8970037
:102b100001487800000ce8002ff89700ea4f5000b9
:102b20000b003a00380090000088a3000800320033
:102b300018019000a800900048009000f6f60700e9
:102b40000000eb0010049800a8009000010c780031
:102b5000aff897000100fb004f04be000080fa00b0
:102b600000000600e10f40001c003200310190001f
:102b70001220b200e10f510015003a00210290002e
:102b80000400e0001200320011019000d101900019
:102b9000830f51001000320091017800848f5100a2
:102ba00002003a008308e800020037000201e80052
:102bb000920098001101e90082087800b1009000ad
:102bc0000168a30005003a000049780000000600f3
:102bd0000080eb00000006000080eb000000060013
:102be000881f780000047800b80090000100780089
:102bf0001020b200e10f500005003a000000eb0089
:102c00001004980028009000000c7800180037008d
:102c10002120b2000000eb0022202000828f500013
:102c200017003a00a80090000100e00014003200f4
:102c3000180190000200e0001100320048009000ee
:102c4000b5f6070098009000810f50000300320095
:102c5000380090000003b300300498000000eb003f
:102c60001004980028009000000c7800b800900034
:102c70000000eb000158a300010032000080eb00cf
:102c80004f0478000000060000c0da0000000600d3
:102c900000c0da00000006002800fa00889fbe008d
:102ca0008a9fbe008c9fbe00070678008786690059
:102cb0000c003b00030478008704780008f0a100b2
:102cc00009f0a100840f5000858f5800860f59002d
:102cd000890f5c00030033000cf0a20001003a00f1
:102ce0000cf0a100ff0007006400e1005f0032006b
:102cf000780147006408e100610032006c01470080
:102d0000748557003200be001201be003a04be00b6
:102d10001a05be001e039000be0a900085035300f2
:102d200006003d000004fd008104fd000205fd00d9
:102d30008305fd008703ea00050378000df8a30072
:102d40000400320060041400e0841c0060051d00d3
:102d5000e0851d006022b8007d0320000d38e100f1
:102d60008006eb000b0039004433dd00f300b200b5
:102d70008301730039003700848272000d027800ed
:102d8000e10664008b85d1000a85d3008984d300d5
:102d90000884d3008703e900f7ff3b0008004000e8
:102da000898048000a0149008b81490004003b00ea
:102db00060001000e080180060011900e081190037
:102dc0000358a300090032008d82720084827200d1
:102dd000610260008301d1000281d3008180d300b1
:102de0000080d3000603e8001b0037000348a3005f
:102df00017003a000600e000170034000603e9005f
:102e00000d00a30000004800818048000201490035
:102e1000838149000348a3000f003a000600e00048
:102e2000090034000603e9000000400081804800ea
:102e3000020149008381490001003a000003eb00d0
:102e40000348a300f5ff32006022b80002003700fb
:102e500084827200618266007600070003f0a100a0
:102e60000cf0a70003f0a000b20037006401470097
:102e70006408e10002003a000df8a300aa003a003d
:102e80003200be001201be00aa00370000000000a0
:102e90008f1fd100ad0107008f87e9000000e0001f
:102ea00000000600809feb00a80107008f87e90063
:102eb0000000e000000006002800fa00889fbe0025
:102ec0008a9fbe008c9fbe0003866b0085000700b2
:102ed0006400e100440032006408e1004a0032006e
:102ee0006100e100460032006108e1004900320063
:102ef000ec0647006000b8003d02be003d03be0086
:102f0000f48657006011b8003d04be003d05be00c8
:102f10007d0320000b0037000000a0008d06e900b3
:102f2000130032000402420085824a0006034b006f
:102f300087834b0000004000818048000201490067
:102f4000838149000802520089825a000a035b000b
:102f50008b835b00f0ff3b000802420089824a003d
:102f60000a034b008b834b008d06e900edff3a000e
:102f70008482720086827200f707b2008782720034
:102f800001003200150020001e0490003e0b90004e
:102f900006035400e63fb0000368a30007003200b8
:102fa0000000a7000500a0008301d1000281d3002a
:102fb0008180d3000080d3000603e8008301d100a4
:102fc0000281d3008180d3000080d3000002eb0097
:102fd0000482d2001700070003f0a1000cf0a70044
:102fe00003f0a00053003700640247006408e100ca
:102ff0004d0032003400be003401be00f6ff370041
:103000006108e100480032006011b8006000b800bb
:10301000f1ff370003ff270002002000fbff37000d
:10302000801feb00490107008f87e9000000e000e6
:10303000000006001800200057002000080453007c
:103040000d003d000600200097fc2f000740e10026
:103050001e00340084827200610260008301d1008e
:103060000281d3008180d3000080d3000804e800ef
:10307000f8ff3a0047002000610460000504740076
:10308000040464000d00320061004000e08048004c
:1030900060014900e081490003b8a5000700320043
:1030a0000603e8006538e10004003a008301d1001e
:1030b0000281d3008180d3000080d300f87f2000fc
:1030c0000830e10003003500080378006000b80014
:1030d0006011b8004433dd00f300b20083017300d7
:1030e00000000600680447000294be000094be0081
:1030f000fc0447008694be008494be00090078005a
:103100005b0107000800780059010700990078006a
:10311000814f70000b003b000800be003401070027
:103120004f00b10003003700f3ff2700f2ff2f002c
:103130006110b9004f06be004f05be004f04be002f
:103140000080fa000000060081037800dcf607002a
:103150000001be006000b8000478a30013003a002c
:103160006220e10015003e000d0039008301d1000e
:103170000281d3008180d3008301d1000281d3007a
:103180008180d3008301d1000281d3008180d300ec
:103190000538b000c42add00f300b200838172005c
:1031a00007f0a70003f0a00000000600f3ff2700cf
:1031b000f2ff2f006110b900fbff370003ff27006b
:1031c000f7ff37001400fa00889fbe008a9fbe00f8
:1031d0008c9fbe000004be000205be0068004700d0
:1031e0000a90be000890be00210107000070a700f1
:1031f0000bf0a1000bf8a30020003a009e099000fc
:103200000e099000fe0090006e0090009e0290005b
:103210003443200084825200c6ff32000a003c0082
:10322000b4fc2f000428e100140034008301d10015
:103230000281d3008180d3000080d3008502e800a2
:10324000faff3a00bbff3700b40020000428e10079
:1032500007003c0000004000818048000201490056
:10326000838149008502e900faff3a00b1ff370087
:103270000300280002002000010037006011b800a0
:103280006000b800abff37006011b8001f013700c5
:103290001400fa00889fbe008a9fbe008c9fbe006b
:1032a000040678000004be000205be006800470066
:1032b0000a90be000890be00ed0007006200e10029
:1032c0000800be000a01be00040020000b003a0006
:1032d0001e029000e43fb1006e009000fe009000de
:1032e0000e0990009e099000f300b20005fe230035
:1032f000858171000bf0a70003f0a000040e780098
:103300008cff3700000000002800fa00889fbe00f4
:103310008a9fbe008c9fbe0003866b0071ff070072
:103320000028a30064003a000128a30067003a00c7
:103330000008a30062003a000108a30065003a00fb
:103340001e009000be08900081064000ed3fb100d5
:10335000f4805700ee019000111ab8008e09900019
:10336000311bb8009e099000311cb800511db800f7
:10337000f485570046000700fe0190003a00070060
:103380008b85e8003e0007008e0990004000070092
:10339000ee019000340007008b85e800380007003c
:1033a0008e099000400007009e0990001b18b8008d
:1033b000890440000a854800fe019000340007009f
:1033c0008b85e80038000700ee0190003000070010
:1033d0008e0990001b18b800890440000a85480037
:1033e0000a98a30008003a000402420085824a00bd
:1033f00006034b0087834b0008044c0089844c0073
:103400000a054d008d06e900848272008502730072
:103410004c3add00850272000100320015002000e8
:10342000443ade001400b2004538de00cb45dd0032
:103430000b007000c540de00cb4ddd008b807000be
:103440004549de00cb55dd000b017100c551de00a2
:103450000d037800f7fe070003f0a1000cf0a700b1
:1034600003f0a00033ff37001b18b80085024000ae
:1034700006834800e0834b0060044c0007003700df
:103480001b18b8000603400087834800faff370086
:103490001b18b8008703400008844800e0844c00f3
:1034a00060054d00000006001b18b800080440002d
:1034b00089844800faff37000108a3001aff3a0088
:1034c0005800be005801be00e3ff37000008a3000b
:1034d00015ff3a0009047800f9ff370000000000ea
:1034e00007f0a200ecfd37006022b80006022000c1
:1034f0000000d0008180d2000482d2008582d200f8
:103500000000a0000202520083825a000300310032
:103510000202420083824a000000a1000603e90083
:10352000f3ff3a0000000600efff07000400be00b2
:1035300000000600020ab900001bb9000200b80032
:10354000810042008100430000000600889fbe0009
:103550008a9fbe008c9fbe000404be000605be000c
:10356000809fbe00829fbe002f00070004067800e7
:103570000800be000a01be002b0007008406780088
:103580004f03be004f02be008d4f76007fb0970004
:1035900013003300f0ff2f008b8f6b0006003b0001
:1035a0000d0666000c00a7000a00370007f0a60011
:1035b000100020000a003700880f5200898f5a003f
:1035c0008a0f5b008b8f5b00030039001000200026
:1035d00001003e000000200007f0a7000000ea0004
:1035e0004f06be004f05be004f04be00000006009f
:1035f000e48240001078a30007003200640240001b
:103600001178a3003400be001401be000400320093
:103610000330a700000006003500be001501be0003
:103620000330a0000000060005ff270005826100ae
:10363000070032000428e1000100320024000500e8
:103640000600070001003a004400050004080500d8
:1036500002000700f9ff3a00140005006f826100c4
:103660008102700085027100850272000000060070
:10367000800078005002be005003be004439de00d6
:10368000f700b200f37f200003016100090032005f
:103690000218e10016003a008501720083017300f0
:1036a000838173000008200015003a0040002000cc
:1036b000130037008501720083017300838173005a
:1036c00005003a0004a8be0006a8be0010002000b5
:1036d0000b0037000201e9000402420085824a0023
:1036e00006034b0087834b000748a300f9ff320015
:1036f0000740a00004a8be0006a8be0020002000cd
:10370000800098009200980000000600889fbe008c
:1037100000827000040271000482710024003200f3
:1037200036432000c50020008383cf000a00390003
:103730000541b1008283cf00070039000541b10087
:103740008183cf00040039000541b1008083cf00a0
:10375000010039000541b10085c353006022b80063
:10376000120032000a003b00848272006102600095
:103770008301d1000281d3008180d3000080d30077
:103780000603e8008743e800f7ff3a000700370028
:103790000000400081804800020149008381490007
:1037a0000603e9008743e900f9ff3a0021fe07001c
:1037b0004f04be00000006000800fa00889fbe000b
:1037c0008a9fbe000084fb00d1c6b300814f500029
:1037d000340036004b062000110009000b84d8008d
:1037e00081057800720040004300dd00299420002c
:1037f000008044006022b8000600200007fe23007d
:103800005001be004000be00bffe07000002be0027
:103810000203be0084bf9f0095bf9f00a6bf9f000c
:10382000b7bf9f00aa002000110009008a85d800b8
:1038300080057800e9854500c35ddd008b85440087
:103840003b02be002b03be000fb897009fb8970045
:103850002fb99700bfb99700abfe07000002be006a
:103860000203be0084bf9f0095bf9f00a6bf9f00bc
:10387000b7bf9f00110009000a84d8000104780036
:103880004344dd00888444003902be002903be00a1
:103890000fb897009fb897002fb99700bfb997004e
:1038a0001d003700ea4f500013003600aa00200028
:1038b000110009000a84d80001057800690440005d
:1038c0004344dd0029942000088444006022b800ad
:1038d0000600200007fe23003800be002801be00bd
:1038e00089fe07004355dd008a8444003902be008a
:1038f0002903be00080037004344dd002094200067
:10390000080440006022b8000600200007fe2300e3
:103910003800be002801be007bfe07004f05be0038
:103920004f04be000080fa00000006000800fa0004
:10393000889fbe008a9fbe00d1c6b3000004e0008d
:1039400023003d000040ea000004fb00814f5000ce
:103950000a00340042062000110009000204d800c9
:10396000a9002000110009008900d800e9004000ea
:10397000c308dd002a94200021003700ea4f5000e0
:1039800010003400a2002000110009000204d80039
:1039900001017800690040004300dd00219420000f
:1039a000008040004311dd00828040003102be00f3
:1039b0002103be005001be004000be0052fe0700c1
:1039c000380037004344dd002094200032003700e7
:1039d0000004fb00814f5000230034004206200009
:1039e000110009000204d800a900200011000900fc
:1039f0008900d800e9004000c308dd002a892000c2
:103a0000810045003102be002103be008b09200069
:103a10008a8545003b00be002b01be003afe070030
:103a20000002be000203be0084bf9f0095bf9f003e
:103a3000a6bf9f00b7bf9f00110009000904d8006e
:103a4000010478004344dd00080545003a02be0049
:103a50002a03be000fb897009fb897002fb99700b0
:103a6000bfb99700d5ff3700ea4f50000800340077
:103a7000a2002000110009000204d8000101780012
:103a8000690040004300dd0021892000c4ff3700a9
:103a90004344dd0020892000080440003800be00b7
:103aa0002801be004f05be004f04be000080fa0092
:103ab00000000600d0019000028151004240a900a0
:103ac0000300340010017800014978000208e80082
:103ad00001007800000006006f02b000889fbe0061
:103ae0008a9fbe008c9fbe008e1f78000006780063
:103af000b1af9f0082b79f006000b8006011b800ae
:103b0000c0af9f00d1af9f00e2af9f00f3af9f0017
:103b10008006eb006d043700bfa897008100e80025
:103b2000b1af9f0051c2b300814f500003003a0073
:103b3000bfa997000000eb0011003700bc00900007
:103b40000000fb000168a300070032000d017800af
:103b5000800078000c007800d6ff07000000e0002d
:103b600005003a00590437008c007800b0f70700d0
:103b7000e10f4000550432008d06e8005304370081
:103b800003017800b3407800d4c2b30084cf500062
:103b90000c00320007003c006d42520084cf500000
:103ba0000a0032006b42420084cf50000d003a0000
:103bb0000800370004c3b30084cf500009003a0066
:103bc000060037000030a000edff37000000a00025
:103bd000ebff37000010a000e9ff37000020a00035
:103be000e7ff37000010a7000000a1000030a70089
:103bf0000020a1008101fb000303b100e98f510007
:103c00000c003e00820178008005eb006a5ab90082
:103c1000b305fb000b03b100848545000301780068
:103c20009300fb000103b100e98f5000f7ff36005d
:103c3000080037008005eb00a3c2b30083cf50001b
:103c400004003a008fb19700c305780083b79f0046
:103c50000201e800e1c2b30092cf100017003a0061
:103c600000e0a000e4c05000d2cf100004003200f9
:103c7000820078000002eb00e4b79f0008003700e4
:103c80008fb297004503780085b79f00e6b79f0085
:103c90000201e8000c0037006a22b90004824100ea
:103ca00001017800b101fb000303b100e98f51006d
:103cb000f9ff3600e4b79f000300370000c0a00002
:103cc0008003eb00e7b79f00b2407800b2af9f00df
:103cd000c3c6b30083cf50001400320009003c007b
:103ce00032c6b30082cf50007900320063414100f8
:103cf00082cf50000f0032000104e000f8033200d0
:103d00008c00370052c7b30082cf50008e003200c3
:103d10006341410082cf50000900320065415100eb
:103d200082cf500083003a00080037000040a00016
:103d3000e5ff3700e1cf9f0000a0a000840037001e
:103d4000e1cf9f000070a00081003700e1cf9f000d
:103d50000fb29700c400780084b79f000104780078
:103d60000100e00001003a0068a520000801780089
:103d70008000eb00010037008100e800e2c178001c
:103d80000304e000fcff3a0081047800efb29700e2
:103d90000500e00003003200898f5200010031006d
:103da000850478000005eb00898f5500010036007e
:103db00009855500e80560002a003a001100370027
:103dc0003c0090000068a300070032000d0178005d
:103dd000010220000c00780036ff07000000e00020
:103de00006003a00060037008c0078000002200030
:103df0000ff70700e10f4000010032008d06e800d8
:103e00000a05e9000a00e000edff3a000085eb003a
:103e1000140037003c0090000068a3000900320045
:103e200008007800b000fb00000478000d01780065
:103e30000c0078001fff07000000e00008003a00b7
:103e400008003700880078003100fb00010478008a
:103e50008c007800f6f60700e10f40000100320008
:103e60008d06e800090078008004e9000000e00009
:103e7000e8ff3a000b00e000940332001100370025
:103e80003c0090000068a300070032000d0178009c
:103e9000010220000c00780006ff07000000e0008f
:103ea00006003a00060037008c007800000220006f
:103eb000dff60700e10f4000010032008d06e80048
:103ec0000a05e9000a00e000edff3a007f03370031
:103ed0000fb397004602780086b79f00cfa2de009e
:103ee000c82bdd004821de0002817300c829de00f6
:103ef000e2cf9f000048a300080032000204e00067
:103f000006003200e14f410004003200f2cf9f0072
:103f100084d79f002900200002003700f4cf9f00c3
:103f200019002000e1fc2f008f8040000104e80010
:103f300096ff3700e1cf9f00e8fc2f000f044400fc
:103f40001900200091ff3700e1cf9f00000cb30063
:103f5000d0b79f00007020005fb1970000006100a3
:103f6000f0016100a3af9f000000e00025023200d5
:103f700002c8a3000200320064002000e4b79f00e2
:103f8000afaa97000500e0000a0032000fb29700c8
:103f9000680252003400be002401be0084b79f00b6
:103fa00090b79f00a1b79f00b2b79f00c3b79f0013
:103fb0000a0037008fb297004500be0085b79f000a
:103fc00061fc07000002be000203be0094b79f0020
:103fd000a5b79f00b6b79f00c7b79f006022b80083
:103fe0006033b8001fb09700afb097003fb19700a3
:103ff000cfb19700a6fb07000000e0000c003d00d9
:104000001fb09700afb097003fb19700cfb19700b6
:1040100003f0a20090b79f00a1b79f00b2b79f0026
:10402000c3b79f00dfb097003100b300d1b79f0046
:104030000000eb0090af9f006022b8006033b80032
:104040001fb09700afb097003fb19700cfb1970076
:10405000f3fb07000000e0003400320024fd2f00d5
:104060000f0242001fb09700afb097003fb197001a
:10407000cfb1970086fc07001fa897000000e90059
:104080006302b900a2002000110009000202d8005a
:1040900090af9f000000e00002003d000000e9003a
:1040a00090af9f001fac97000840ea001ffe07007a
:1040b0001fb29700afb297003fb39700cfb39700fe
:1040c00091fc07000002be000203be00c4af9f00c7
:1040d000d5af9f00e6af9f00f7af9f006022b8000a
:1040e0000600200007ff230069fb07000000e00036
:1040f00002003d000804e9000b0037006022b80010
:1041000006002000470224004fa89700dfa8970070
:104110006fa99700ffa9970062fb07000000e0006d
:10412000020035000804e80098af9f00efb2970046
:10413000ec8f52000f003c00054078009efd070008
:104140000002be000203be001fb09700afb0970090
:104150003fb19700cfb19700cffa07000002be0031
:104160000203be0094b79f00a5b79f00b6b79f009b
:10417000c7b79f001fac9700e90f540015003c0023
:104180006022b8006033b8001fb09700afb097004e
:104190003fb19700cfb19700a1fb07000000e000fe
:1041a000310032001fb09700afb097003fb19700c9
:1041b000cfb1970003fc0700e00f5000e08f5800dc
:1041c000e00f5900e08f590027003a00e10f54003a
:1041d000250034000400200005002e00b6e0220077
:1041e000170124004fa89700dfa897006fa9970038
:1041f000ffa9970026fb07000000e00002003d0039
:1042000069045400010037006804540098af9f000f
:104210002fd09700c5fd07000002be000203be00bc
:10422000c4af9f00d5af9f00e6af9f00f7af9f00e0
:104230001fb09700afb097003fb19700cfb1970084
:104240001dfb0700dffb07000004be006000b80094
:104250006011b80090b79f00a1b79f00b2b79f0050
:10426000c3b79f00160037001fb09700afb097008c
:104270003fb19700cfb19700d2fb07000004be000a
:1042800001fc07000002be000203be001fb0970041
:10429000afb097003fb19700cfb1970090fc0700f7
:1042a0000002be000203be0094b79f00a5b79f00a6
:1042b000b6b79f00c7b79f000000eb0090af9f000c
:1042c000e1a6200010c0b30005003700e4804000e4
:1042d000b10f5400a18f5c00030039000040e800da
:1042e000ea4f5000f9ff3a00e0cf9f009fa89700e7
:1042f00081805500efb29700858050000000fb00e0
:10430000008550000500e000010032000a05e900c8
:104310005fb3970063006300010032000a05e90003
:10432000dfb397000728a3003900320061816300e2
:104330000718a3000f0032003c0090000068a300a3
:1043400006003200b10220000200e000010032004d
:104350008180e8000d0178000d003700b0022000d8
:104360000200e000010032000080e8008c007800cc
:104370000e0037000200e000220032003c009000f6
:104380000068a300070032000d0178000102200040
:104390000c007800c7fd07000000e00006003a00ae
:1043a000180037008c00780000022000a0f50700fc
:1043b000e10f4000130032008d06e80011003700c5
:1043c0003c0090000068a300070032000d01780057
:1043d000010320000c007800b6fd07000000e0009b
:1043e00006003a00060037008c0078000003200029
:1043f0008ff50700e10f4000010032008d06e80054
:104400000a05e9000a00e000edff3c005900370012
:104410005fb097000038a30014003a001100370085
:104420003c0090000068a300070032000d017800f6
:10443000010220000c0078009efd07000000e00053
:1044400006003a00060037008c00780000022000c9
:1044500077f50700e10f4000010032008d06e8000b
:104460000a05e9000a00e000edff3c00dfb097001c
:10447000618160000118a3000e0032003c00900032
:104480000068a30005003200b10220000200e00035
:10449000220032008180e80020003700b0022000b6
:1044a0000200e000010032000080e8008c0078008b
:1044b0002c0037000200e0002e0032003c0090008b
:1044c0000068a300030032000d0178000102200003
:1044d000130037008c007800000220002100370014
:1044e0003c019000e1a620000000fb000268a30050
:1044f000100032004200dd00008040001001be00cc
:104500000800be00f8fb0700a20020000300200006
:1045100005fc070001032000808040000d017800a9
:104520000c00780063fd07000000e00010003a0076
:10453000100037004200dd00008040001001be0086
:104540000800be00e8fb0700a200200003002000d6
:10455000f5fb070002032000000141008c007800f9
:104560000200780032f50700e10f40000100320040
:104570008d06e800efc897000140e900e0cf9f00fa
:104580000104e000d6ff3a00130037003c00900021
:104590000068a300070032000d017800010320002d
:1045a0000c00780043fd07000000e00006003a0020
:1045b000060037008c007800000320001cf507007f
:1045c000e10f4000010032008d06e8001fa89700af
:1045d0000000e90090af9f001fa897000000e000d6
:1045e000eaff3c006fb19700e80f51000300340070
:1045f00080c0b300e0cf9f0002003700cfe99700f2
:10460000e3cf9f006fc897008005fb006fb2970053
:104610008b0552000004e000100032003c009000c6
:104620000068a300070032000d017800e1022000bd
:104630000c0078001ffd07000000e00006003a00b3
:10464000060037008c007800e0022000f8f4070034
:10465000e10f4000010032008d06e8006fc89700ae
:10466000b2fc07000002be000203be001fb09700ac
:10467000afb097003fb19700cfb1970022fb070082
:10468000d0fa07002d0037003c019000e1a6200081
:104690000000fb000268a300100032004200dd00b1
:1046a000808040001101be000800be008efb0700a4
:1046b000a2002000030020009bfb07000103200054
:1046c000808040000d0178000c007800f9fc0700a4
:1046d0000000e00010003a00100037004200dd004a
:1046e000808040001101be000800be007efb070074
:1046f000a2002000030020008bfb07000203200023
:10470000000141008c00780002007800c8f4070026
:10471000e10f4000010032008d06e800efca97006b
:104720000500fb004200dd00e1a620000080400003
:104730001001be000800be007bfb07000004be00a5
:10474000efc897000140e900e0cf9f000104e000be
:10475000cdff3a00110037003c0090000068a30034
:10476000070032000d017800010320000c007800e2
:10477000d0fc07000000e00006003a000600370009
:104780008c00780000032000a9f40700e10f40002e
:10479000010032008d06e8008b05e9000b00e00007
:1047a000edff3a005fb397000638a30047013200df
:1047b0000a00e000450134003c0090000068a300be
:1047c000070032000d017800010220000c00780083
:1047d000b8fc07000000e00006003a0006003700c1
:1047e0008c0078000002200091f40700e10f4000e7
:1047f000010032008d06e8000a05e900eeff3a00ec
:1048000032013700afab97000700e0000400320030
:104810000fb097004004be0080b79f00040037002f
:104820008fb097004104780081b79f008004eb00af
:104830006fb197000200e00006003a0008807400a3
:1048400000f0a7000000ea000000e9004f00de00d1
:10485000e0b79f00dfb19700030cb20093b79f0051
:1048600000082000808f51000d003200000c200055
:10487000808f510018003a00e1a6200010c0b3005c
:10488000e4804000b10f5400a18f5c00110039009a
:104890000040e800ea4f5000f9ff3a000d003700f1
:1048a00010c0b3000201200003002000820f54005a
:1048b000838f5c0007003900441add00cc11de0054
:1048c000830172004411dd000040e800e84f500011
:1048d000f6ff3a00e0cf9f00efca97000500fb000b
:1048e0006fb39700860f500002003d00e6cf9f0097
:1048f00004003700efb39700808f530001003d00a4
:10490000e0b79f000b00e00004003200dfb097002a
:1049100063806000010032008b05e9005fb1970001
:1049200002e8a30006003200efb19700838f550024
:104930000200340083855500010037008005eb003c
:104940006fca97000400fb000007eb00808f550042
:104950000100340000875500dfb297000528a3004e
:1049600038003200618162000518a3000f00320098
:104970003c0090000068a30006003200b102200055
:104980000200e000010032008180e8000d017800a3
:104990000d003700b00220000200e00001003200ec
:1049a0000080e8008c0078000e0037000200e00074
:1049b000100032003c0090000068a30007003200a5
:1049c0000d017800010220000c00780039fc07007e
:1049d0000000e00006003a00060037008c00780076
:1049e0000002200012f40700e10f40000100320035
:1049f0008d06e8000e00e0004e0032003c00900002
:104a00000068a300070032000d01780001032000b8
:104a10000c00780027fc07000000e00006003a00c8
:104a2000060037008c0078000003200000f4070027
:104a3000e10f4000010032008d06e8000e07e9009a
:104a4000ecff37000e00e000150032005fb3970066
:104a50000638a30012003a003c0090000068a30052
:104a6000070032000d017800010220000c007800e0
:104a700010fc07000000e00006003a0006003700c6
:104a80008c00780000022000e9f30700e10f4000ed
:104a9000010032008d06e8000e07e900eeff3a0043
:104aa000dfb39700618163000718a3000f00320095
:104ab0003c0090000068a30006003200b102200014
:104ac0000200e000010032008180e8000d01780062
:104ad0000d003700b00220000200e00001003200ab
:104ae0000080e8008c0078000e0037000200e00033
:104af000100032003c0090000068a3000700320064
:104b00000d017800010220000c007800e9fb07008d
:104b10000000e00006003a00060037008c00780034
:104b200000022000c2f30700e10f40000100320044
:104b30008d06e8006fb097000002e9004222dd0018
:104b4000e0a6200000024200efb5970004057800bf
:104b5000450037008b05e900000820009fb0970052
:104b6000808f500021003200000c2000808f500008
:104b70002b003a002fa997000200e000100032003d
:104b80001a02be000401be000800be00f4b79f0078
:104b900085bf9f0054fa0700e0cf9f000000fb0094
:104ba000cf80de007fb297008fba97000401be006d
:104bb00060fa07000004540081845c00070037009d
:104bc0001a017800110009000284d800a200200018
:104bd000110009000280d800e1cf9f00efc99700c3
:104be0000343b000e3cf9f000d003700e0a6200094
:104bf000000055000802be00000378000603e9002b
:104c0000030033008502d1000482d300fbff37008c
:104c10006f006200d1a5200061407800e0cf9f00c6
:104c2000bc009000efcb97000700fb000168a300d9
:104c3000070032000d017800800078000c00780039
:104c40009cfb07000000e00005003a00050037006b
:104c50008c00780076f30700e10f4000010032007d
:104c60008d06e800640555000b00e000b9ff3a002e
:104c70005fb097000038a300140032000e00e0007f
:104c8000120034003c0090000068a30007003200ce
:104c90000d017800010220000c00780085fb070060
:104ca0000000e00006003a00060037008c007800a3
:104cb000000220005ef30700e10f40000100320017
:104cc0008d06e8000e07e900eeff3a00bfa8970046
:104cd00011407800e0cf9f000004e0008efb3a0016
:104ce0000d0078004f0778004f06be004f05be004c
:0c4cf0004f04be006f02b100000006007f
:020000040000fa
:104cfc0020200000202000002020000020200000a8
:104d0c002030000020200000202000002020000087
:104d1c002020000020000000202000004361000043
:104d2c006e6e00006f740000204700006f200000c2
:104d3c004c6f00007765000072200000200000001e
:104d4c0020430000616e00006e6f000074200000b4
:104d5c00476f00002048000069670000686500008c
:104d6c007220000020000000202000002020000005
:104d7c0020200000202000002034000035200000fe
:104d8c002020000020200000202000002000000037
:104d9c002020000020200000202000002020000007
:104dac0020390000302000002020000020200000ce
:104dbc002020000020000000202000002020000007
:104dcc00202000002020000031330000352000009e
:104ddc0020200000202000002020000020000000e7
:104dec0020200000202000002020000020200000b7
:104dfc00313800003020000020200000202000006e
:104e0c0020200000200000002020000020200000b6
:104e1c00202000002020000032320000352000004d
:104e2c002020000020200000202000002000000096
:104e3c002020000020200000202000002020000066
:104e4c00323700003020000020200000202000001d
:104e5c002020000020000000202000002020000066
:104e6c0020200000202000003331000035200000fd
:104e7c002020000020200000202000002000000046
:104e8c002020000020200000202000002020000016
:104e9c0020350000202000002020000020200000f1
:104eac002020000020000000202000002020000016
:104ebc0020200000202000002031000020200000d5
:104ecc0020200000202000002020000020000000f6
:104edc0020200000202000002020000020200000c6
:104eec0020320000202000002020000020200000a4
:104efc0020200000200000002020000020200000c6
:104f0c002020000020200000203300002020000082
:104f1c0020200000202000002020000020000000a5
:104f2c002020000020200000202000002020000075
:104f3c002034000020200000202000002020000051
:104f4c002020000020000000202000002020000075
:104f5c00202000002020000020360000202000002f
:104f6c002020000020200000202000002000000055
:104f7c002020000020200000202000002020000025
:104f8c0020370000202000002020000020200000fe
:104f9c002020000020000000202000002020000025
:104fac0020200000202000002038000020200000dd
:104fbc002020000020200000202000002000000005
:104fcc0020200000202000002020000020200000d5
:104fdc0020390000202000002020000020200000ac
:104fec0020200000200000002020000020200000d5
:104ffc002020000020200000203100003020000084
:10500c0020200000202000002020000020000000b4
:10501c002020000020200000202000002020000084
:10502c002031000031200000202000002020000052
:10503c00202000002000000050690000636b00007d
:10504c0020480000656900006768000074200000bb
:10505c00566100006c750000652000002000000007
:10506c0050690000636b0000205700006964000069
:10507c007468000020560000616c0000756500002b
:10508c00202000002000000050690000636b00002d
:10509c0020430000656e0000746500007220000063
:1050ac0058200000202000002020000020000000dc
:1050bc0050690000636b000020430000656e000027
:1050cc0074650000722000005920000020200000b0
:1050dc00202000002000000050690000636b0000dd
:1050ec00205200006f74000061740000696f0000b2
:1050fc006e200000446500006720000020000000c6
:10510c00526f000074610000746900006f6e000043
:10511c0020440000656700003a20000000250000d4
:10512c0066000000506c00006561000073650000b3
:10513c00206500006e7400006572000020610000a4
:10514c0020760000616c000069640000206900009a
:10515c006e700000757400002e0000006178000075
:10516c00203d000020250000660a00006179000047
:10517c00203d000020250000660a00006278000037
:10518c00203d000020250000660a00006279000026
:10519c00203d000020250000660a00006378000016
:1051ac00203d000020250000660a00006379000005
:1051bc00203d000020250000660000005069000022
:1051cc00636b000020530000696400006520000040
:1051dc004c6500006e670000746800002020000021
:1051ec0020000000003100002e5400007269000005
:1051fc00616e0000676c000065200000322e00001c
:10520c005265000063740000202000000033000091
:10521c002e530000717500006172000065200000c3
:10522c00342e0000456c00006c69000070730000a7
:10523c00652000000054000072690000616e0000df
:10524c00676c00006520000050690000636b000073
:10525c0065640000202000002020000000520000a7
:10526c0065630000746100006e6700006c650000ef
:10527c0020500000696300006b6500006420000092
:10528c0020200000005300007175000061720000c6
:10529c006520000050690000636b0000656400002d
:1052ac0020200000202000002020000000450000ed
:1052bc006c6c0000697000007365000020500000e9
:1052cc00696300006b650000642000002020000072
:1052dc0020200000004700006f20000061670000e4
:1052ec00616900006e3f00002020000020200000bb
:1052fc00202000002020000020200000004700009b
:10530c006f20000061670000616900006e200000e2
:10531c0070690000636b00006564000020200000d1
:10532c0020200000004500006e640000206f00008b
:10533c0066200000707200006f6700007261000050
:10534c006d20000020200000202000000000000044
:020000040000fa
:10535c000600fa0010079800210798008040eb0027
:10536c0010c0b300a1040700e0672a005b0507002a
:10537c000000eb00000f7800010037000000000077
:10538c001e0090009e007800808f500008003d00a9
:10539c008040eb000040eb0094040700d102200099
:1053ac001e8f400020692a004c050700f4ff3700cf
:1053bc002e0090009e007800808f50000800340072
:1053cc008040eb000040eb008804070031fd2f000b
:1053dc001e8f4000606a2a0040050700e8ff370076
:1053ec0020338000610060000000e00006003a00fd
:1053fc00d10220001e8f400000902000d10320001d
:10540c0008090700deff3700c03380006800600029
:10541c000000e00006003a0031fd2f001e8f400016
:10542c0000902000d1032000fe080700d4ff3700b5
:10543c00c0338000640060000000e00005003a000a
:10544c001e007800cf80de00e9ed07000080fa0036
:10545c00000006001e0078000000e00006003a0084
:10546c008040eb0010c0b30060040700e0672a0026
:10547c001a050700c2ff3700d00220009e007800fa
:10548c00808f500006003a008040eb0010c0b30043
:10549c0056040700a06b2a0010050700b8ff370060
:1054ac00a00520009e007800808f500006003a0076
:1054bc008040eb0010c0b3004c040700e06c2a00e5
:1054cc0006050700aeff3700700820009e0078002c
:1054dc00808f500006003a008040eb0010c0b300f3
:1054ec0042040700206e2a00fc040700a4ff3700ca
:1054fc00400b20009e007800808f500006003a0080
:10550c008040eb0010c0b30038040700606f2a0025
:10551c00f20407009aff3700100e20009e0078005e
:10552c00808f500006003a008040eb0010c0b300a2
:10553c002e040700a0702a00e804070090ff370033
:10554c00e01020009e007800808f500006003a008a
:10555c008040eb0010c0b30024040700e0712a0067
:10556c00de04070086ff3700b01320009e00780091
:10557c00808f500081ff3a008040eb0010c0b300d8
:10558c001a04070020732a00d40407007cff37009c
:10559c000600fa0010079800210798008040eb00e5
:1055ac0010c0b3001104070060742a00cb0407007c
:1055bc0050002000000f78000100370000000000b0
:1055cc001e0090009e007800808f500007003d0068
:1055dc008040eb000040eb00040407001e0fe800c5
:1055ec0020692a00bd040700f5ff37002e0090004b
:1055fc009e007800808f5000070034008040eb0044
:10560c000040eb00f90307001e0fe900606a2a0056
:10561c00b2040700eaff370020338000610060000d
:10562c000000e00005003a001e0fe800009020008a
:10563c00d10320007b080700e1ff3700c033800056
