:020000040000fa
:080000000001040000000000f3
:020000040000fa
:0400080046020000ac
:020000040000fa
:04000c008802000066
:020000040000fa
:04001000c802000022
:020000040000fa
:040014006602000080
:020000040000fa
:04001800a80200003a
:020000040000fa
:04001c00e8020000f6
:020000040000fa
:04002000e8020000f2
:020000040000fa
:04002400e8020000ee
:020000040000fa
:04002800e8020000ea
:020000040000fa
:04002c00e8020000e6
:020000040000fa
:04003000e8020000e2
:020000040000fa
:04003400e8020000de
:020000040000fa
:04003800e8020000da
:020000040000fa
:04003c00e8020000d6
:020000040000fa
:04004000e8020000d2
:020000040000fa
:04004400e8020000ce
:020000040000fa
:04004800e8020000ca
:020000040000fa
:04004c00e8020000c6
:020000040000fa
:04005000e8020000c2
:020000040000fa
:04005400e8020000be
:020000040000fa
:04005800e8020000ba
:020000040000fa
:04005c00e8020000b6
:020000040000fa
:04006000e8020000b2
:020000040000fa
:04006400e8020000ae
:020000040000fa
:04006800e8020000aa
:020000040000fa
:04006c00e8020000a6
:020000040000fa
:04007000e8020000a2
:020000040000fa
:040074000c0200007a
:020000040000fa
:04007800e80200009a
:020000040000fa
:04007c00e802000096
:020000040000fa
:04008000e802000092
:020000040000fa
:04008400e80200008e
:020000040000fa
:04008800e80200008a
:020000040000fa
:04008c00e802000086
:020000040000fa
:04009000e802000082
:020000040000fa
:04009400e80200007e
:020000040000fa
:04009800e80200007a
:020000040000fa
:04009c00e802000076
:020000040000fa
:0400a000e802000072
:020000040000fa
:0400a400e80200006e
:020000040000fa
:0400a800e80200006a
:020000040000fa
:0400ac00e802000066
:020000040000fa
:0400b000e802000062
:020000040000fa
:0400b400e80200005e
:020000040000fa
:0400b800e80200005a
:020000040000fa
:0400bc00e802000056
:020000040000fa
:0400c000e802000052
:020000040000fa
:0400c400e80200004e
:020000040000fa
:0400c800e80200004a
:020000040000fa
:0400cc00e802000046
:020000040000fa
:0400d000e802000042
:020000040000fa
:0400d400e80200003e
:020000040000fa
:0400d800e80200003a
:020000040000fa
:0400dc00e802000036
:020000040000fa
:0400e000e802000032
:020000040000fa
:0400e400e80200002e
:020000040000fa
:0400e800e80200002a
:020000040000fa
:0400ec00e802000026
:020000040000fa
:0400f000e802000022
:020000040000fa
:0400f400e80200001e
:020000040000fa
:0400f800e80200001a
:020000040000fa
:0400fc00e802000016
:020000040000fa
:04010000e802000011
:020000040000fa
:04010400e80200000d
:020000040000fa
:04010800e802000009
:020000040000fa
:04010c00e802000005
:020000040000fa
:04011000e802000001
:020000040000fa
:04011400e8020000fd
:020000040000fa
:04011800e8020000f9
:020000040000fa
:04011c00e8020000f5
:020000040000fa
:04012000e8020000f1
:020000040000fa
:04012400e8020000ed
:020000040000fa
:04012800e8020000e9
:020000040000fa
:04012c00e8020000e5
:020000040000fa
:04013000e8020000e1
:020000040000fa
:04013400e8020000dd
:020000040000fa
:04013800e8020000d9
:020000040000fa
:04013c00e8020000d5
:020000040000fa
:04014000e8020000d1
:020000040000fa
:04014400e8020000cd
:020000040000fa
:04014800e8020000c9
:020000040000fa
:04014c00e8020000c5
:020000040000fa
:04015000e8020000c1
:020000040000fa
:04015400e8020000bd
:020000040000fa
:04015800e8020000b9
:020000040000fa
:04015c00e8020000b5
:020000040000fa
:04016000e8020000b1
:020000040000fa
:04016400e8020000ad
:020000040000fa
:04016800e8020000a9
:020000040000fa
:04016c00e8020000a5
:020000040000fa
:04017000e8020000a1
:020000040000fa
:04017400e80200009d
:020000040000fa
:04017800e802000099
:020000040000fa
:04017c00e802000095
:020000040000fa
:04018000e802000091
:020000040000fa
:04018400e80200008d
:020000040000fa
:04018800e802000089
:020000040000fa
:04018c00e802000085
:020000040000fa
:04019000e802000081
:020000040000fa
:04019400e80200007d
:020000040000fa
:04019800e802000079
:020000040000fa
:04019c00e802000075
:020000040000fa
:0401a000e802000071
:020000040000fa
:0401a400e80200006d
:020000040000fa
:0401a800e802000069
:020000040000fa
:0401ac00e802000065
:020000040000fa
:0401b000e802000061
:020000040000fa
:0401b400e80200005d
:020000040000fa
:0401b800e802000059
:020000040000fa
:0401bc00e802000055
:020000040000fa
:0401c000e802000051
:020000040000fa
:0401c400e80200004d
:020000040000fa
:0401c800e802000049
:020000040000fa
:0401cc00e802000045
:020000040000fa
:0401d000e802000041
:020000040000fa
:0401d400e80200003d
:020000040000fa
:0401d800e802000039
:020000040000fa
:0401dc00e802000035
:020000040000fa
:0401e000e802000031
:020000040000fa
:0401e400e80200002d
:020000040000fa
:0401e800e802000029
:020000040000fa
:0401ec00e802000025
:020000040000fa
:0401f000e802000021
:020000040000fa
:0401f400e80200001d
:020000040000fa
:0401f800e802000019
:020000040000fa
:0401fc00e802000015
:020000040000fa
:100200008f9120000e7f24000e0188000000000066
:10021000000020000000e000020032000001200089
:100220002002880014000700f30007000000e0002f
:1002300003003a00003422000100200002003700d1
:100240000000200001002000810f7000010032003a
:1002500014000700000020000000e000020032004f
:100260000000020000000000222102000000000047
:100270000040da000000fe004440a900e030200009
:100280000000e00003003200002020009001880000
:100290004440a800000006008a1f78008b1f7800e9
:1002a00000000600a1028800800478000000eb0036
:1002b0001f003700e284440054a0b4009905ba003e
:1002c000e284440054a0b4009906ba00e2844400d9
:1002d00054a0b4000006eb00476fde00fd07b2003b
:1002e000ae018800636ce10003003a00eaff0700fa
:1002f0000000eb000e003700606ce10008003a00df
:10030000004deb000a05e800020039003420ec0043
:100310000af0a0008b05e900f9ff3e000400370059
:100320006168e100010032000086eb000b0007006d
:1003300019c7ba001905ba000e04e00003003a001c
:100340000a00e000dbff3a0000000600fe07b200f2
:10035000ae0288008a047800f5ff37000cd0a300b5
:10036000e20f4d001c00390089027800354dba00bb
:100370000a05e800020039003420ec000af0a00071
:100380008b05e9000f003200254dba000a05e80090
:10039000020039003420ec000af0a0008b05e900cf
:1003a000080032000c00e0000600320015cdba0053
:1003b0000a05e800020039003420ec000af0a00031
:1003c0008b05e9008984e80054a0b4000b00e0002c
:1003d000e2ff3a00000006009902ba00055d7800cd
:1003e0008b05e900f7ff3200c82ade00055d7800c2
:1003f0008b05e900f3ff32000c00e000f1ff320052
:1004000019ddba00eeff3700d8220400000000001a
:10041000861c0400000000003600f800809fbe002b
:10042000829fbe00849fbe00869fbe000000fa002f
:1004300050048000680060000000e0000c00320002
:100440002134800000102000008060000000e000e7
:1004500006003200704480000000e000020032001c
:1004600070448000000001008506a9008a60a90090
:100470000080fa004f03be004f02be004f01be00d5
:100480004f00be003600f900004006003600f800bc
:10049000809fbe00829fbe00849fbe00869fbe00dc
:1004a0000000fa008020a9000000eb00a610070061
:1004b0000080fa004f03be004f02be004f01be0095
:1004c0004f00be003600f900004006003600f8007c
:1004d000809fbe00829fbe00849fbe00869fbe009c
:1004e0000000fa009d1007008040a90010002000c5
:1004f000951007000080fa004f03be004f02be00b7
:100500004f01be004f00be003600f900004006005b
:100510003600f800809fbe00829fbe00849fbe0010
:10052000869fbe000000fa008060a9002000200025
:10053000851007000080fa004f03be004f02be0086
:100540004f01be004f00be003600f900004006001b
:100550003600f800809fbe00829fbe00849fbe00d0
:10056000869fbe000000fa008080a90030002000b5
:10057000751007000080fa004f03be004f02be0056
:100580004f01be004f00be003600f90000400600db
:100590003600f800809fbe00829fbe00849fbe0090
:1005a000869fbe000000fa008600a90070002000af
:1005b000651007000080fa004f03be004f02be0026
:1005c0004f01be004f00be003600f900004006009b
:1005d0000040da000000fe009803e20004003d0045
:1005e0009b43ab00020032009b03ab00feff3200d6
:1005f0000040da00feff37000000050003f0a20013
:10060000889fbe008a9fbe008c1f780037010700bc
:100610003e0133006450e1004f0032006420e100ed
:100620005200320003826c0007003b000905d00035
:100630000306d000820f54000c065d000200390052
:100640000200320089017800030678008582550097
:1006500004003d000003fd008103fd008502ea0067
:100660008b854200840f720002003b006000100086
:10067000e08018006011b8000005eb007a28e10066
:100680000a00390006007800c75ddd00f707b200f8
:10069000878075002d003700828171000a01780083
:1006a000610560008180d1000080d3008502e900ef
:1006b000f9ff3b00060440008784480002003b002d
:1006c00060041400e0841c000988a30007003200c5
:1006d0008a81710082817100610164008904d10006
:1006e0000884d3008b05e800170037000978a300c1
:1006f00013003a000b00e000130034008b05e90002
:100700000804440089844c000a4474000978a3005a
:100710000d003a000b00e000070034008b05e900f3
:100720000804440089844c0001003a000b002000ba
:100730000978a300f7ff32000001eb000200370048
:10074000828171000a017800ad0007000cf0a7005b
:1007500001f0a000f60037006420e10002003a003a
:10076000838f6c00f60033000801be000200be005b
:10077000ef0037000001eb004a00070004003200e0
:100780000200200003f8230001f0a6009cff0700f0
:10079000000006000081eb0003023700889fbe00c6
:1007a0008a9fbe008c1f7800d0000700d70033005e
:1007b00003866c006450e1002e0032006420e100ea
:1007c000330032006150e1002f0032006120e1006f
:1007d0003100320085855500eb07b000090020008c
:1007e00008042000050037000804440089844c00f8
:1007f0000a0031000603430087834b0000015300c9
:1008000081815b00f8ff33000203be000800a000f6
:100810000804440089844c00f6ff3900c639dd0025
:100820008301730001003200130020008904d1000d
:100830000884d3000998a300050032000800a7002f
:100840000300a0008904d1000884d3008b05e800d0
:100850008904d1000884d3000001eb000281d2009a
:100860006700070001f0a1000cf0a70001f0a00054
:10087000af0037006420e100b10032000801be0083
:100880000200be00f7ff37006120e100ac0032003b
:100890006000b800f3ff37000000200001f82700d7
:1008a000f0ff3700889fbe008a9fbe000003be0095
:1008b000790007008505780082815200020020003f
:1008c0006220e10004003a00f307b10004003500a3
:1008d0007718e100040035000600be001400370060
:1008e0006000b8000f003700f50f2000faff2f005e
:1008f0008502d1000a85d3008301e900fcff3b009b
:100900008184620000046500890f7400f2ff3200e8
:100910008582ea000a85ea0081846200000465009d
:100920003700070007f0a70001f0a0000081eb00ee
:100930000200e0004f05be004f04be0000000600ac
:100940001400200072023700f4ff2f0070023700fd
:100950000001be00500007000470a70003f0a100d2
:100960006509b100160032000d0035006828e1006d
:1009700006003500f0ff2f00f1ff27000300e00024
:1009800013003b00010028000000050000004000ab
:10099000818048008502e900fcff3a00080037002a
:1009a000f88f420002003c008000eb0000000500d0
:1009b0008100d1000080d3008502e800fcff3a00ee
:1009c0000300e00002003b0060001000e08018001f
:1009d000000006004f89de008201780067023700c0
:1009e0000001eb00afff070004003200020020000e
:1009f00003f8230001f0a70000ff07000000060035
:100a000081002000618055000b003d000b0020009c
:100a100061fe2f000100e1001d00340082817100a1
:100a2000610164008904d1000884d3000000e8005b
:100a3000faff3a00710020006100640003007000ba
:100a4000020060000900320061044400e0844c00b0
:100a50000988a500050032008b05e8006808e10060
:100a600002003a008904d1000884d300f20f20006c
:100a70000258e10005003d00c75ddd00f907b20046
:100a80008980750008007800000006000bf8270038
:100a90008b00780000000500c70ade00f107b200f5
:100aa000f50fb20008003200e1cf42000200320030
:100ab0000170a00024000500810f700001003200c9
:100ac0000408050044000500810f700002003a0090
:100ad000140005008502e9000000400081c04800c4
:100ae000fcff3b000170a000240005000004be00d4
:100af000e9ff07000003be000405be000200be00bf
:100b0000e5ff0700844f7500000006000200be00ec
:100b10006450e100050036006420e1000200360068
:100b20000968a30001003a000800be000160a000af
:100b30004f0678004f05be004f04be0000000600bf
:100b4000f0ff2f00f1ff2700f9ff3700889fbe005c
:100b50008a9fbe008c1f7800e4ff0700ebff330084
:100b600003866c006450e100240032006420e10040
:100b7000270032006150e100220032006120e100d4
:100b8000210032008b854200eb07b1000134b80030
:100b9000003ab8000804420089844a00013ab800cb
:100ba0000030b8008880400009014a00040033008a
:100bb0000000400081804800020149008b05e900e7
:100bc000c909dd008301700001003200130020001c
:100bd000c814de004814dd004709de001200b20030
:100be000c808de000884700085ff070001f0a1003e
:100bf0000cf0a70001f0a000cdff37006120e1005c
:100c0000cfff32000801be000200be00f7ff370030
:100c10006150e100fcff3a00c9ff37000c00fa0008
:100c2000889fbe008a9fbe008c9fbe00afff07005a
:100c30000206be00840578000200be00020020000b
:100c400018ff070005003a008b02b30012002000d5
:100c500014ff070001003a00f8856d000c01be008a
:100c6000c60007000800be009b0032000b08a3006e
:100c70009e003a000df0a7000be0a00009f0a700cd
:100c80000bf0a00009f0a1000801be00bb000700a6
:100c90000bf0a6009500320001003c000bd0a00034
:100ca0008acf7500b20033006000b8006250e100e6
:100cb00099003900a1003e000b28a300a2003a00d1
:100cc0000bf8a300060032000b58a300a700320067
:100cd0000801be00a90007000800be009400320011
:100ce0000800be001b0107000004be0005057800d7
:100cf0000bf0a7000b30a6000bf0a1005b079800db
:100d0000324f200053f323000dff070005003d0084
:100d10000800be0012002000280207000004be00e8
:100d20000a05e9004a0798006150b90029ff070049
:100d3000008fbe000c01be0084ff070004ff070007
:100d4000300798000100e00002003d006000100044
:100d5000e0801800f2ff2700820f5000e08f58005b
:100d600064003e000c00be00f9fe0700200798005a
:100d7000f2072000820f5000e08f580005003c0071
:100d800012f82f00f3ff2f00820f5000838f5800be
:100d900009003d000a00e0000300320001003c00b1
:100da0000201ea00020578006000b8002007980000
:100db0003a079800190037003e0090006100b90022
:100dc00004ff0700809fbe000c00be004109dd004b
:100dd0004811de007208b100b2fe07000005be0037
:100de0001e01be0059ff07004f01be0003fe0700b1
:100df000809fbe000c00be000a01be00fffd070080
:100e00001e01be0051ff07004f01be00fcfd0700a0
:100e10008221270013f323004cff07000005be00ca
:100e20002e0090006100b900eafe070001f0a20068
:100e30000c01be00f2fd07000006be000800be0067
:100e4000000207000c01be0040ff07000a01be00bf
:100e5000ebfd0700809fbe004a0007002e059000b2
:100e60000af0a7000a05ea00050037000800be00e6
:100e70000801be0035ff07000004be000c00be00e4
:100e80000801be000a00a70030ff07000006be00f0
:100e90000a05d100f5ff3a005e01900002e0a600cd
:100ea000030037000001be00360007003bfe0700cc
:100eb0000004be004f00be00b30007000801be00e2
:100ec00022ff07003e019000bc010700de059000f4
:100ed0000bf0a70001f0a2004f06be004f05be00b8
:100ee0004f04be000080fa00000006002500070045
:100ef000f9ff3700270007006000b8000bd0a700fb
:100f00000bc0a0000be0a7000bc0a2000bc0a70005
:100f100001f82700f0ff37000df8a30002003200af
:100f20001e000700190007000bf8a300eaff3200bb
:100f30000b30a70001f0a200e7ff37000df8a30077
:100f4000f9ff3a00f7ff37000801be000b00070069
:100f5000e6ff320001003c000df0a2006000b80086
:100f60000df0a70009000700dbff37000b000700aa
:100f7000f1ff2700f0ff2f00d7ff37000100070027
:100f80006ffe370001f823000000050001f827007c
:100f900000000500200220000100370010022000a0
:100fa0009044880000000600889fbe008a9fbe0013
:100fb0008c9fbe00820578000004be00b6fe0700cc
:100fc0000800be006420e1000700390002003a007a
:100fd000f1ff2700f0ff2f000160a00012022000a7
:100fe00092448800550037006120e10003003a0078
:100ff0000b00a70001f823005000370001f0a1000a
:1010000002002100936424004dfe07000800be008a
:1010100004003500b2fd2000930c240016010700e7
:101020000004be000005eb000b00a6004f0dde0023
:1010300001f0a1000004be0032982f0023ea230033
:10104000c2fe07000001eb0003f023000b00a70025
:1010500003f823006afd07003dfe07000000a7001b
:101060000a00a2005bfe07000b00e0000300320054
:101070000200200003f0230060fd070001f0a20041
:101080000006be000200200093042400affe07000b
:101090000801be005afd0700809fbe000c00be0084
:1010a00022a22a00d3a72300a8fe07004f01be00fa
:1010b00053fd07000004be0001f0a1000200200063
:1010c000039823001efe07000800be00190035002b
:1010d0000001be009dfe07000006be00b2c529004b
:1010e000e362230099fe070022222b00f3942b00d9
:1010f00043fd07000c01be0094fe0700e2732800c8
:1011000083c023003efd07000c01be008ffe0700d8
:1011100042aa2a00a3e22b0039fd07000c01be0001
:101120008afe07000801be0088fe07000801be0015
:1011300033fd07000a00a70001f0a2004f06be0021
:101140004f05be004f04be00000006000001eb008a
:1011500095ff37000003be004ffe07006220e1004c
:10116000020032000600be0005000500e507b100e0
:10117000f107b20004f023008480700007f0a7009c
:1011800001f0a00024000500889fbe008a9fbe00d9
:101190008c9fbe000004be003ffe07000800be009a
:1011a0006420e10048003e00550032007221270013
:1011b000132b2400e4fd070047003c000800be009c
:1011c000c2ec2800e32c2c00ddfd070047003500b1
:1011d0000800be0001f0a100020020000338230037
:1011e000d7fd0700430035000800be00b2a32a0067
:1011f00083fb230055fe07000200200003f02300bc
:1012000001f0a70003f0a000fdfc0700d0fd0700df
:101210000005be00effd070001f0a2000006be00c1
:101220000200280013f3230048fe07000801be0057
:10123000f3fc0700809fbe000c00be0032082800af
:10124000e3952b0041fe07004f01be00ecfc0700b8
:101250000006be000001be003cfe0700809fbe00ed
:101260004241250083b8230038fe07000200200019
:1012700003e82300e2fc07000c01be0033fe070078
:101280000006be004f00be00f2f92b00c3d42300bd
:101290002efe07000200200003f02300d8fc070008
:1012a0000c01be00d5fc07000001be000c00be0012
:1012b0003afd07000200200003f02300d0fc0700e5
:1012c00061014500bd0007004f06be004f05be008e
:1012d0004f04be000000060001f8270000002000b7
:1012e0002202200092448800f7ff37006000b80017
:1012f000fbff370001f8230000002000f2ff370059
:1013000009f8a300f0ff32006000b800eeff3700dc
:10131000889fbe008a9fbe00841f7800f3fd0700ef
:101320004f00780011003300f0ff2f00838f6c0016
:1013300006003b00040565000a00a700080037000e
:1013400009f0a6001000200008003700820f5400aa
:10135000838f5c00030039001000200001003e0074
:101360000000200009f0a7000000ea004f05be00c1
:101370004f04be000000e00000000600881f780057
:10138000030478000300e00007003d006000100047
:10139000e080180060011900e081190002003b00a4
:1013a00001f02d00030037000400070008f0a7003b
:1013b00001f0a0004f04780000000600889fbe00e6
:1013c0008a9fbe00008270000402710004827100d6
:1013d000260032000004be000200be006011b8000a
:1013e0006b092000950220000182cf000a0039001d
:1013f0000541b1000082cf00070039000541b1006e
:101400000982cf00040039000541b1000882cf00f5
:10141000010039000541b1000542520012003200be
:101420000a003b0082817100610164008100d100eb
:101430000080d3008984d3000884d3008b05e800a2
:101440000442e800f7ff3a000700370008044400b0
:1014500089844c0000004800818048008b05e90029
:101460000442e900f9ff3a0065fd07004f05be00a0
:101470004f04be00000006000400200000003700fa
:10148000889fbe008a9fbe008c1f78004f26dd001b
:1014900096fd07009dfd33006120e100430032000e
:1014a0006250e10041003e003e0039006420e1004e
:1014b0003c003200058255000f003b000402e800aa
:1014c00038003a00800f5300818f5b0035003400f4
:1014d0000800be0003f0a10001f0a60003f0a00088
:1014e0000cf0a70046fc070091fd370006034300ff
:1014f00087834b000c4646000005530081855b0046
:10150000020033000a03be000c00a0000402e90040
:10151000f6ff3b00850578000602430087824b00fa
:1015200004003a006000b80009f0a70001f0a00034
:101530007ffd37000002520081825a000704e0005c
:10154000040033000603430087834b008b05e9004a
:10155000faff3700090578000604be000203be004a
:101560006011b80026fd0700e00f5200e08f5a001e
:101570000700350002003c000c08a3000400320004
:101580000601be0003f0a0000cf0a7001cfc070041
:101590000a85680001f0a1000af0a70001f0a00090
:1015a00063fd37000800be0061fd37001002200017
:1015b0000cf0a6009044880061fd37000003be00d7
:1015c00035fd07006220e100020032000600be0087
:1015d0000000060085024100e30f20000328e1001f
:1015e00005003c00a3fe2f000328e10007003d009a
:1015f0000500200001003700f50f20002002200028
:10160000904488006000b8000800370013002000f4
:101610008381520005003d008100d1000080d3008d
:101620008301e800fcff3a0005002000c72add0026
:10163000f107b2008580700007f0a70001f0a0005c
:1016400000000600889fbe008a9fbe008c9fbe00df
:10165000c0fe0700850478000005be006420e1009c
:1016600049003e006220e10003003200090035001d
:101670000bf8a300440032000bf8a300080032006e
:101680001002200090448800f0ff2f00f1ff270097
:101690003d00370001f82f00000020003a0037001d
:1016a0003d000700d5fb07000006be000a00be0093
:1016b000324f200053f32300a3fc07000600340040
:1016c0000c00be0034000700ccfb07000006be0083
:1016d0000a00be00020037008904e9000c00be00c9
:1016e0002d00070019fd07002b000700c4fb0700b1
:1016f0000001be000c00be0028fc07000005be0073
:101700000001be0011fd07000006be00a2f3230089
:10171000430d2c00bafb0700809fbe000c00be00ea
:10172000d2e32700d3f02b0008fd07004f01be00d5
:101730001afc07000006be000a01be0003fd0700f8
:101740000a01be00aefb07000006be006148b900fa
:10175000a0fc07000005be0032082800e3952b001e
:10176000fafc07000c01be00a5fb07000006be0046
:101770000a00be000200280013f32300f3fc070058
:101780000c01be009efb07004f06be004f05be00c9
:101790004f04be000000060003f023000200050015
:1017a0000004780002000700080078008afb0700a8
:0417b000000006002f
:020000040000fa
:1017b4002020000020200000202000002020000025
:1017c4002030000020200000202000002020000005
:1017d40020200000200000002020000043610000c1
:1017e4006e6e00006f740000204700006f20000040
:1017f4004c6f00007765000072200000200000009c
:1018040020430000616e00006e6f00007420000031
:10181400476f000020480000696700006865000009
:101824007220000020000000202000002020000082
:10183400202000002020000020340000352000007b
:1018440020200000202000002020000020000000b4
:101854002020000020200000202000002020000084
:10186400203900003020000020200000202000004b
:101874002020000020000000202000002020000084
:10188400202000002020000031330000352000001b
:101894002020000020200000202000002000000064
:1018a4002020000020200000202000002020000034
:1018b40031380000302000002020000020200000eb
:1018c4002020000020000000202000002020000034
:1018d40020200000202000003232000035200000cb
:1018e4002020000020200000202000002000000014
:1018f40020200000202000002020000020200000e4
:10190400323700003020000020200000202000009a
:1019140020200000200000002020000020200000e3
:10192400202000002020000033310000352000007a
:1019340020200000202000002020000020000000c3
:101944002020000020200000202000002020000093
:10195400203500002020000020200000202000006e
:101964002020000020000000202000002020000093
:101974002020000020200000203100002020000052
:101984002020000020200000202000002000000073
:101994002020000020200000202000002020000043
:1019a4002032000020200000202000002020000021
:1019b4002020000020000000202000002020000043
:1019c4002020000020200000203300002020000000
:1019d4002020000020200000202000002000000023
:1019e40020200000202000002020000020200000f3
:1019f40020340000202000002020000020200000cf
:101a040020200000200000002020000020200000f2
:101a140020200000202000002036000020200000ac
:101a240020200000202000002020000020000000d2
:101a340020200000202000002020000020200000a2
:101a4400203700002020000020200000202000007b
:101a540020200000200000002020000020200000a2
:101a6400202000002020000020380000202000005a
:101a74002020000020200000202000002000000082
:101a84002020000020200000202000002020000052
:101a94002039000020200000202000002020000029
:101aa4002020000020000000202000002020000052
:101ab4002020000020200000203100003020000001
:101ac4002020000020200000202000002000000032
:101ad4002020000020200000202000002020000002
:101ae40020310000312000002020000020200000d0
:101af400202000002000000050690000636b0000fb
:101b04002048000065690000676800007420000038
:101b1400566100006c750000652000002000000084
:101b240050690000636b00002057000069640000e6
:101b34007468000020560000616c000075650000a8
:101b4400202000002000000050690000636b0000aa
:101b540020430000656e00007465000072200000e0
:101b64005820000020200000202000002000000059
:101b740050690000636b000020430000656e0000a4
:101b8400746500007220000059200000202000002d
:101b9400202000002000000050690000636b00005a
:101ba400205200006f74000061740000696f00002f
:101bb4006e20000044650000672000002000000043
:101bc40050690000636b0000204200006173000054
:101bd40065200000566100006c750000652000005f
:101be400202000002000000050690000636b00000a
:101bf4002053000069640000652000004c6500006b
:101c04006e670000746800002020000020000000bf
:101c1400003100002e54000072690000616e000063
:101c2400676c000065200000322e00005265000041
:101c34006374000020200000003300002e530000d5
:101c4400717500006172000065200000342e0000f0
:101c5400456c00006c690000707300006520000092
:101c64000054000072690000616e0000676c00009f
:101c74006520000050690000636b0000656400008b
:101c840020200000202000000052000065630000b6
:101c9400746100006e6700006c6500002050000055
:101ca400696300006b6500006420000020200000d0
:101cb400005300007175000061720000652000008f
:101cc40050690000636b0000656400002020000080
:101cd4002020000020200000004500006c6c000063
:101ce4006970000073650000205000006963000003
:101cf4006b6500006420000020200000202000000c
:101d04000053000068610000706500002069000055
:101d140073200000446f00006e6500002020000066
:101d24002020000020200000004700006f20000059
:101d340061670000616900006e3f00002020000020
:101d4400202000002020000020200000202000008f
:101d5400004700006f200000616700006169000017
:101d64006e20000070690000636b00006564000071
:101d74002020000020200000004500006e640000c8
:101d8400206f000066200000707200006f67000082
:101d9400726100006d20000020200000202000005f
:101da40000000000496e00007465000072720000bb
:101db4007570000074200000466c0000616700002c
:0c1dc400676500006420000020000000a3
:020000040000fa
:101dd0000000fa0083e0a8000000000000000000fe
:101de0000080fa00000006000c00fa00881f78004e
:101df0002007980031079800420798005307980081
:101e00008040eb0010c0b300eb050700a0bd280028
:101e1000a50607006000b800008fbe000100370073
:101e20000000000018c0b3002e019000be01900019
:101e30001e00be00c2fa07000000e00001003500ed
:101e40000044eb000804e0000b0032008040eb008f
:101e50000040eb00d80507000200200043232400c7
:101e60001e00be00e6f90700008fbe00e0be28009d
:101e70008d060700ebff370018c0b3004e0190003d
:101e8000de0190001e00be00affa07000000e00077
:101e900001003c000044eb000804e0000b003200ad
:101ea0008040eb000040eb00c3050700020020006b
:101eb000432324001e00be00d0f90700008fbe009f
:101ec00020c0280078060700d6ff370020338000a6
:101ed000610060000000e00009003a0002002000fc
:101ee000432324001e00be00c5f90700008fbe007a
:101ef00000402d0001032000050a0700c9ff37003c
:101f0000c0338000680060000000e00009003a0073
:101f100002002000432324001e00be00b7f9070082
:101f2000008fbe0000402d0001032000f8090700cb
:101f3000bcff3700c0338000640060000000e00098
:101f400004003a001e00be004f0478000080fa0032
:101f5000000006006011b8001e00be0078fa0700fd
:101f60000000e00006003a008040eb0010c0b30023
:101f700091050700a0bd28004b060700a9ff370008
:101f800002002000432324001e00be006cfa07005c
:101f90000000e00006003a008040eb0010c0b300f3
:101fa0008505070060c128003f0607009dff370038
:101fb00002002000432b24001e00be0060fa070030
:101fc0000000e00006003a008040eb0010c0b300c3
:101fd00079050700a0c228003306070091ff3700eb
:101fe00002002000733024001e00be0054fa0700d7
:101ff0000000e00006003a008040eb0010c0b30093
:102000006d050700e0c328002706070085ff37009d
:1020100002002000433324001e00be0048fa0700df
:102020000000e00006003a008040eb0010c0b30062
:102030006105070020c528001b06070079ff37004f
:1020400002002000133624001e00be003cfa0700e8
:102050000000e00006003a008040eb0010c0b30032
:102060005505070060c628000f0607006dff370002
:1020700002002000733824001e00be0030fa070062
:102080000000e00006003a008040eb0010c0b30002
:1020900049050700a0c728000306070061ff3700b5
:1020a00002002800d33924001e00be0024fa0700d5
:1020b0000000e0005aff3a008040eb0010c0b3007f
:1020c0003d050700e0c82800f705070055ff370069
:1020d0000c00fa00881f780020079800310798004c
:1020e00042079800530798008040eb0010c0b300ef
:1020f0003105070020ca2800eb050700000020007a
:10210000010a2400008fbe0001003700000000001b
:1021100018c0b3002e019000be0190001e00be004a
:1021200007fa07000000e000010035000044eb0062
:102130000804e0000b0032008040eb000040eb00a0
:102140001d0507000200200003f823001e00be004a
:102150002bf90700008fbe00e0be2800d205070063
:10216000ebff370018c0b3004e019000de01900075
:102170001e00be00f4f907000000e00001003c0072
:102180000044eb000804e0000b0032008040eb004c
:102190000040eb00080507000200200003f82300c0
:1021a0001e00be0015f90700008fbe0020c02800e9
:1021b000bd050700d6ff37002033800061006000b6
:1021c0000000e00009003a000200200003f82300ac
:1021d0001e00be000af90700008fbe0000402d005f
:1021e000010320004a090700c9ff3700c0338000ff
:1021f000680060000000e00009003a0002002000d2
:1022000003f823001e00be00fcf80700008fbe008c
:1022100000402d00010320003d090700bcff3700ee
:10222000c0338000640060000000e00004003a0059
:102230001e00be004f0478000080fa000000060077
:102240000200200003f823001e00be00bcf90700b6
:102250000000e00006003a008040eb0010c0b30030
:10226000d504070060cb28008f050700a8ff3700c2
:1022700002002000030024001e00be00b0f9070089
:102280000000e00006003a008040eb0010c0b30000
:10229000c9040700a0cc2800830507009cff370075
:1022a00002002000030424001e00be00a4f9070061
:1022b0000000e00006003a008040eb0010c0b300d0
:1022c000bd040700e0cd28007705070090ff370028
:1022d00002002000030824001e00be0098f9070039
:1022e0000000e00006003a008040eb0010c0b300a0
:1022f000b104070020cf28006b05070084ff3700da
:1023000002002000030a24001e00be008cf9070012
:102310000000e00006003a008040eb0010c0b3006f
:10232000a504070020ca28005f05070078ff3700d2
:1023300002002000030c24001e00be0080f90700ec
:102340000000e00006003a008040eb0010c0b3003f
:102350009904070060d02800530507006cff370080
:1023600002002000030e24001e00be0074f90700c6
:102370000000e00006003a008040eb0010c0b3000f
:102380008d040700a0d128004705070060ff370033
:1023900002002000031024001e00be0068f90700a0
:1023a0000000e00006003a008040eb0010c0b300df
:1023b00081040700e0d228003b05070054ff3700e6
:1023c00002002000031124001e00be005cf907007b
:1023d0000000e00006003a008040eb0010c0b300af
:1023e0007504070020d428002f05070048ff370098
:1023f00002002000031224001e00be0050f9070056
:102400000000e00006003a008040eb0010c0b3007e
:102410006904070060d52800230507003cff37004a
:1024200002002000031324001e00be0044f9070030
:102430000000e00035ff3a008040eb0010c0b30020
:102440005d040700a0d628001705070030ff3700fd
:102450000000fa007104070050002000b3040700d8
:102460007904070050002000b0040700e0d72800de
:102470000d050700020020000310240000002000ca
:1024800001f8230012ff0700a0448800b14488002f
:1024900000402d00010320009d0807005f04070095
:1024a00050002000a104070067040700500020002e
:1024b0009e04070020d92800fb040700020020002a
:1024c000031024000000200001f8230000ff070093
:1024d000c0448800d14488000080fa000000060053
:1024e0000000fa004d040700500020008f04070090
:1024f00055040700500020008c04070060da280013
:10250000e904070002002000030c24000000200062
:1025100001082400eefe07000045880011458800f0
:1025200000402d0001032000790807003b0407004c
:10253000500020007d0407004304070050002000e5
:102540007a040700a0db2800d7040700020020005f
:10255000030c24000000200001082400dcfe07001a
:1025600020458800314588000080fa000000060000
:102570000000fa0029040700500020006b04070047
:10258000310407005000200068040700e0dc280048
:10259000c504070002002000433b24006000b8008f
:1025a00011fe0700e0448800f14488000080fa0032
:1025b000000006006600fa00889fbe008a9fbe00e9
:1025c00020379800a2448000b3448000028fbe00f0
:1025d000c2448000d344800022079800330798004b
:1025e000e2448000f34480004207980053079800bb
:1025f0000245800013458000620798007307980029
:102600002245800033458000020f9800130f980088
:102610002e309000e10f500061013a006e019000f1
:10262000fe019000220f9800330f98000200200056
:10263000030024000e0890009e08900057f8070041
:102640000e0990009e099000edf70700400f9800da
:10265000510f980002002000030024006e0090003b
:10266000fe0090004df807000001be006e009000d3
:10267000fe009000e1f70700600f9800710f9800ce
:1026800002002000030024000e0890009e08900025
:1026900042f807000001be000e0890009e0890005e
:1026a000d6f70700001798001117980002002000c5
:1026b000030024006e009000fe00900037f8070031
:1026c0006e019000fe019000cdf7070020179800e2
:1026d0003117980002002000030024000e0890002b
:1026e0009e0890002df807000001be000e08900023
:1026f0009e089000c1f707004017980051179800f6
:10270000727a2e00e3c823004e009000de00900095
:102710000ef9070040079800510798004e009000fe
:10272000de0090001bf807000004be006e01900060
:10273000fe0190002e089000be089000aff7070041
:102740000001be000800be0000f907000004be0042
:102750004e009000de0090007cfa07000005be00ed
:102760000e0990009e0990004e089000de0890002f
:10277000a2f707000001be000a00be00f3f8070040
:102780000001be000800be009cf707006e0190002b
:10279000fe0190009af707006017980071179800e3
:1027a0004e009000de00900068fa07000004be00b2
:1027b0006e019000fe0190002e089000be0890006f
:1027c0008ef707000001be000800be00dff807001a
:1027d0000004be004e009000de009000edf7070000
:1027e0000005be000e0990009e0990004e08900062
:1027f000de08900081f707000001be000a00be005d
:10280000d2f807000001be000800be007cf70700f8
:102810000e0990009e09900079f70700001f9800ac
:10282000111f98004e009000de009000d9f70700bd
:102830000004be006e019000fe0190006e08900042
:10284000fe0890006df707000001be000800be0002
:10285000bef807000004be004e009000de009000ad
:102860003afa07000005be000e0990009e0990008c
:102870000e1090009e10900060f707000001be004f
:102880000a00be00b1f807000001be000800be004b
:102890005af707006e019000fe01900058f70700fc
:1028a000201f9800311f98004e009000de0090001d
:1028b00026fa07000004be006e019000fe019000a1
:1028c0006e089000fe0890004cf707000001be0063
:1028d0000800be009df807000004be004e009000f6
:1028e000de009000abf707000005be000e09900067
:1028f0009e0990000e1090009e1090003ff7070078
:102900000001be000a00be0090f807000001be00f2
:102910000800be003af707000e0990009e099000db
:1029200037f70700401f9800511f98004e00900095
:10293000de00900097f707000004be006e019000d3
:10294000fe0190002e109000be1090002bf70700a3
:102950000001be000800be007cf807000004be00b5
:102960004e009000de009000f8f907000005be0060
:102970000e0990009e0990004e109000de1090000d
:102980001ef707000001be000a00be006ff8070036
:102990000001be000800be0018f707006e0190009d
:1029a000fe01900016f70700601f9800711f980045
:1029b0004e009000de009000e4f907000004be0025
:1029c0006e019000fe0190002e109000be1090004d
:1029d0000af707000001be000800be005bf8070010
:1029e0000004be004e009000de00900069f7070072
:1029f0000005be000e0990009e0990004e10900048
:102a0000de109000fdf607000001be000a00be00c7
:102a10004ef807000001be000800be00f8f60700ef
:102a20000e0990009e099000f5f607000027980017
:102a3000112798006e119000fe1190004245880009
:102a4000534588000e1990009e1990006245880039
:102a5000734588002e199000be19900082458800a9
:102a6000934588004e199000de199000a245880019
:102a7000b34588006e199000fe199000c245880089
:102a8000d34588000e2190009e219000e2458800e9
:102a9000f345880068c82100224580003345800046
:102aa00000458000114580000203be000002be0008
:102ab0006011b8006000b800080001006ac8210079
:102ac0006445800075458000424580005345800084
:102ad0002045800031458000084580001945800070
:102ae0000403be000202be000001be000800be00da
:102af0000a0001006ac82100a4458000b545800095
:102b000082458000934580006045800071458000cb
:102b100048458000594580000403be000202be0003
:102b20000001be000800be000a0001006ac82100c2
:102b3000e4458000f5458000c2458000d345800013
:102b4000a0458000b14580008845800099458000ff
:102b50000403be000202be000001be000800be0069
:102b60000a0001006ac821006445800075458000a4
:102b70004245800053458000e0458000f1458000db
:102b8000c8458000d94580000403be000202be0093
:102b90000001be000800be000a000100bd013700b0
:102ba0002e309000e20f5000030032002e309000d3
:102bb000e30f5000b7013a00727a2e00e3c82300f9
:102bc0004e009000de009000e0f7070040079800fc
:102bd0005107980002002000030024002e009000fe
:102be000be009000edf607000004be004e0090000d
:102bf000de009000e7f607000001be000800be00fe
:102c0000d2f707006e019000fe0190007cf60700ed
:102c10000004be0002002000030024001e00be00cd
:102c2000def607000005be004e009000de009000ba
:102c300046f907000001be000a00be00c3f7070006
:102c40000001be000800be006cf6070020279800b7
:102c50003127980002002000030024002e0090007d
:102c6000be009000cdf607000004be004e009000ac
:102c7000de00900035f907000001be000800be002c
:102c8000b2f707000e0990009e0990005cf607005d
:102c90000004be0002002000030024001e00be004d
:102ca000bef607000005be004e009000de0090005a
:102cb000b8f607000001be000a00be00a3f7070037
:102cc0000001be000800be004df607004027980036
:102cd0005127980002002000030024002e009000dd
:102ce000be009000adf607000004be004e0090004c
:102cf000de009000a7f607000001be000800be003d
:102d000092f707000001be006e009000fe009000e8
:102d10003af607000004be00020020000300240071
:102d20001e00be009df607000005be004e0090008c
:102d3000de00900005f907000001be000a00be0099
:102d400082f707000001be000800be002bf6070056
:102d500060279800712798000200200003002400db
:102d60002e009000be0090008cf607000004be000c
:102d70004e009000de009000f4f807000001be0055
:102d80000800be0071f707000001be000e089000a9
:102d90009e08900019f607000004be000200200003
:102da000030024001e00be007cf607000005be00e4
:102db0004e009000de00900076f607000001be0095
:102dc0000a00be0061f707000001be000800be0057
:102dd0000bf60700002f9800112f9800020020002a
:102de000030024002e009000be0090006bf6070048
:102df0000004be004e009000de00900065f6070063
:102e00000001be000800be0050f707000001be0030
:102e10006e009000fe009000f8f507000004be0070
:102e200002002000030024001e00be005bf6070025
:102e30000005be004e009000de009000c3f80700c1
:102e40000001be000a00be0040f707000001be00fe
:102e50000800be00eaf50700202f9800312f9800e7
:102e600002002000030024002e009000be0090000d
:102e70004af607000004be004e009000de009000fd
:102e8000b2f807000001be000800be002ff70700df
:102e90000001be000e0890009e089000d7f50700c4
:102ea0000004be0002002000030024001e00be003b
:102eb0003af607000005be004e009000de009000cc
:102ec00034f607000001be000a00be001ff707002d
:102ed0000001be000800be00c8f50700402f9800a2
:102ee000512f980002002000030024002e009000c3
:102ef000be00900029f607000004be004e009000be
:102f0000de00900023f607000001be000800be00ae
:102f10000ef707006e019000fe019000b8f5070063
:102f20000004be0002002000030024001e00be00ba
:102f30001af607000005be004e009000de0090006b
:102f400082f807000001be000a00be00fff607007d
:102f50000001be000800be00a9f50700602f980020
:102f6000712f980002002000030024002e00900022
:102f7000be00900009f607000004be004e0090005d
:102f8000de00900071f807000001be000800be00de
:102f9000eef607000e0990009e09900098f50700d4
:102fa0000004be0002002000030024001e00be003a
:102fb000faf507000005be004e009000de0090000c
:102fc000f4f507000001be000a00be00dff60700ae
:102fd0000001be000800be0088f507000037980019
:102fe000113798002e219000be2190000000200093
:102ff0000113240081f507004045880051458800f1
:103000004e219000de21900000002000811024005d
:103010007af5070060458800714588006e219000b0
:10302000fe219000000020000113240073f507002a
:1030300080458800914588000e2990009e299000c7
:1030400000002000811024006cf50700a0458800d6
:10305000b14588002e299000be2990000000200074
:103060000113240065f50700c0458800d14588009c
:103070004e299000de2990000000200081102400dd
:103080005ef50700e0458800f14588006e29900054
:10309000fe299000000020000113240057f50700ce
:1030a00000468800114688000e3190009e31900045
:1030b000000020008110240050f507002046880001
:1030c0003146880068c821002245800033458000d1
:1030d00000458000114580000203be000002be00d2
:1030e0006011b8006000b800080001006ac8210043
:1030f000644580007545800042458000534580004e
:103100002045800031458000084580001945800039
:103110000403be000202be000001be000800be00a3
:103120000a000100d03380004400de0061406000ee
:103130000004a200614060000080fb0061006000ac
:103140004400dd00d13380000140a1000100700087
:10315000d03388006ac82100a4458000b5458000ae
:103160008245800093458000604580007145800065
:1031700048458000594580000403be000202be009d
:103180000001be000800be000a000100004828003f
:10319000e10120005e0507006ac82100e4458000c7
:1031a000f5458000c2458000d3458000a0458000e1
:1031b000b145800088458000994580000403be0029
:1031c0000202be000001be000800be000a000100ad
:1031d00000482800e10120004d0507006ac82100d1
:1031e0002446800035468000024680001346800059
:1031f000e0458000f1458000c8458000d945800049
:103200000403be000202be000001be000800be00b2
:103210000a00010000482800e10120003c050700e9
:103220006ac82100644580007545800042458000e1
:1032300053458000204680003146800008468000cb
:10324000194680000403be000202be000001be0059
:103250000800be000a00010000482800e10120002b
:103260002b050700d03380004400de006140600081
:103270000004a200614060000080fb00610060006b
:103280004400dd00d13380000140a1000100700046
:10329000d03388004f05be004f04be000080fa0006
:1032a000000006000000fa008dfc070000a02600c8
:1032b0008101200016050700d800070050002000fb
:1032c0001a010700e0000700500020001701070066
:1032d000e0d728007401070002002000031024003a
:1032e0000000200001f8230079fb0700a0448800bb
:1032f000b144880000402d000103200004050700b0
:10330000c60007005000200008010700ce0007009b
:10331000500020000501070020de280062010700a0
:1033200002002000031024000000200001f8230008
:1033300067fb0700c0448800d144880000a0260035
:1033400081012000f204070089fc070000a026008c
:1033500081012000ee0407001000200095fc07000a
:103360000080fa00000006000200fa00000f78005a
:103370001e0078000000e0000f003a0058fc070033
:1033800000a0260081012000e104070030fc0700b6
:1033900000a0260081012000dd04070074fc070066
:1033a00000a0260081012000d90407002000200091
:1033b00080fc07002000370049fc070000a0260021
:1033c00081012000d2040700940007005000200073
:1033d000d60007009c00070050002000d300070023
:1033e00060df2800300107000200200003102400e5
:1033f0000000200001f8230035fb0700a0448800ee
:10340000b1448800a0448000b1448000c0448800da
:10341000d144880000a0260081012000bc040700e0
:1034200053fc070000a0260081012000b80407001b
:10343000300020005ffc07000080fa00000006005a
:103440000000fa0026fc070001fc070048fc07000a
:103450004000200057fc07000080fa000000060032
:103460000200fa00004f78001e80fb00610060003f
:103470004700dd00c13380000170a1000100700031
:10348000c033880000c4290001002000a004070008
:103490000000eb000080fa00000006000200fa00c5
:1034a000000f78000900370078c6a80000f421005a
:1034b000010020009604070078c6a90000f421004e
:1034c00001002000920407001e0fe9001e00780092
:1034d0000000e000f4ff3c000000eb000080fa0078
:1034e000000006000200fa00004f78001e80fb007a
:1034f000610060004b00dd00c133800001b0a1001d
:1035000001007000c033880000c4290001002000c1
:103510007f0407000000eb000080fa0000000600b6
:103520000200fa00000f7800090037007946a80071
:1035300000f4210001002000750407007946a9006d
:1035400000f4210001002000710407001e0fe900b3
:103550001e0078000000e000f4ff3c000000eb00db
:103560000080fa00000006000200fa00000f780058
:103570000b0037007946a80078c6a80000f42100a7
:1035800001002000620407007946a90078c6a9005e
:1035900000f42100010020005d0407001e0fe90077
:1035a0001e0078000000e000f2ff3c000000eb008d
:1035b0000080fa00000006000400fa00204798008e
:1035c000314798000040eb00004f78002e409000fb
:1035d000e14f500004003a00be40900000ccb30020
:1035e00000cf400003003700be40900000c8b30089
:1035f00000cf40008100070080c7b30054000700df
:103600000040eb00520007001e4078005000070009
:10361000860007000080fa00000006000000fa00a3
:103620007600070080c7b300490007000040eb00a8
:103630004700070010c0b300450007007b000700eb
:103640000080fa00000006000000fa006b0007008e
:1036500080c7b3003e0007000040eb003c000700bd
:1036600020c0b3003a000700700007000080fa0095
:10367000000006000000fa007986a90000e224009c
:103680002a0007007986a80079c6a90079a6a900b2
:1036900077c6a90077a6a9000080fa0000000600fe
:1036a0000000fa005500070080c7b300280007009b
:1036b0000040eb002600070080c3b3002400070091
:1036c000803e20001900070090c3b30020000700cf
:1036d000803e20001500070040c1b3001c00070019
:1036e00080c7b3001a000700e0c5b3001800070048
:1036f000d0c6b30016000700c0c0b3001400070016
:1037000010c0b3001200070060c0b3001000070033
:10371000803e2000050007004400070000712200e1
:10372000020007000080fa00000006000200fa0014
:10373000000f7800010037001e0fe9001e0078001e
:103740000000e000fcff3c000080fa0000000600e2
:103750000400fa00204798000040eb00004f78007a
:103760001a00370077a6a90020408000cf00de00b5
:10377000008040000080d100ecff07002e40900048
:103780008080fb001e80fb008008dd000008200018
:10379000008060000000e0000200320077c6a80050
:1037a0000100370077c6a90020408000cf00de006e
:1037b000008040000080d100dcff070077a6a80051
:1037c00020408000d9ff07001e4fe8001e4078000f
:1037d000e74f5000e3ff360077a6a90077c6a800a0
:1037e00020408000d1ff070077a6a800204080007d
:1037f000ceff07000080fa00000006000000fa007b
:1038000079c6a90079a6a90077a6a80077c6a8005e
:1038100020408000c5ff070077c6a9002040800037
:10382000c2ff07000080fa00000006000000fa0056
:1038300077a6a90020408000cf00de000080400075
:103840000080d100b9ff070077c6a90020408000a2
:10385000cf00de00008040000080d100b3ff0700f1
:1038600077a6a80020408000cf00de000080400046
:103870000080d100adff070077c6a800204080007f
:10388000cf00de00008040000080d100a7ff0700cd
:1038900040012000a5ff070077c6a90077a6a90070
:1038a0000080fa00000006000600fa0020079800d9
:1038b0000000eb0010079800d0ff070080c7b3009e
:1038c000a3ff070000c4b300a1ff07000000eb0046
:1038d000000f7800070037002e009000104078009d
:1038e0009bff07002e0090000000e80020079800d2
:1038f0001e0fe8001e007800f30f5000f6ff3400a2
:10390000caff07000080fa00000006001000fa005d
:10391000889fbe00008fbe002207980033079800e2
:1039200044079800550798006607980077079800a5
:10393000d0cc2c00c1f423005042880061428800a2
:103940005042800061428000325c2f00830c2400d2
:103950007ef4070010428800214288005042800017
:1039600061428000325c2f00830c240077f4070052
:10397000304288004142880090d4290001d02300c1
:10398000704288008142880010c0b3008ce8b70004
:103990008d68ef001e01be004e009000de0090001a
:1039a00016f30700a28320000089be002e019000bc
:1039b000be0190006e009000fe0090000ff3070023
:1039c000a28320002001980031019800a0832000ec
:1039d0001000be0018c0b3006011b800daf3070091
:1039e0000000e00001003c000044eb000804e0009f
:1039f000030032008cc8bf008ae8b7000f00370010
:103a0000a08320001000be0018c0b3006011b800f1
:103a1000cbf307000000e000010035000044eb009c
:103a20000804e000030032008dc8bf008ae8b70038
:103a3000020037008cc8bf008ae8b700a0832000ce
:103a4000b00090002000900018c0b3006011b800d2
:103a5000bdf307000000e00001003c000044eb0063
:103a60000804e000030032008cc8bf008be8b700f8
:103a700010003700a0832000b000900020009000cc
:103a800018c0b3006011b800adf307000000e000fb
:103a9000010035000044eb000804e00003003200a0
:103aa0008dc8bf008be8b700020037008cc8bf008c
:103ab0008be8b7008ac8bf000080fb00610060008f
:103ac0004700dd00c13380000170a10001007000db
:103ad000c033880000c42900010020000c03070047
:103ae0008bc8bf000080fb00610060004b00dd0060
:103af000c133800001b0a10001007000c033880014
:103b000000c429000100200001030700a083200059
:103b10001000be0032332300b31c24000bf4070056
:103b20000002be0010428000214280000001be0061
:103b30000400be0005f407000002be0070428000d1
:103b4000814280000001be000400be0013f30700a4
:103b50005043880061438800a0832000b00090009b
:103b60002000900032332300b31c2400f7f3070039
:103b70000002be0030428000414280000001be00d1
:103b80000400be00f1f307000002be007042800096
:103b9000814280000001be000400be00fff2070069
:103ba0007043880081438800504380006143800057
:103bb00018c0b3006011b80061f307000000e00016
:103bc000010035000044eb000804e000050032006d
:103bd000504380006143800001f0a2005043880000
:103be00061438800704380008143800018c0b300a7
:103bf0006011b80052f307000000e000010035003a
:103c00000044eb000804e00005003200704380002f
:103c10008143800001f0a200704388008143880046
:103c2000504380006143800018c0b3006011b800a9
:103c300045f307000000e00001003c000044eb00f9
:103c40000804e000ae003200704380008143800031
:103c500018c0b3006011b8003bf307000000e0009b
:103c600001003c000044eb000804e000a400320026
:103c700030002000e040880054438000654380000d
:103c800070438000814380000001be000400be003c
:103c9000c2f207000004be00e04080000000e9001e
:103ca000cf80de004bf307000001be0000002000c3
:103cb00001122400d9f307000001be000800be0075
:103cc000a2f30700320107000004be00e0408000bc
:103cd0000000e900cf80de003ef307000001be00d7
:103ce0000000200001122400ccf307000001be00f8
:103cf0000800be00a9f2070090428800a142880097
:103d0000e0408000cf80de0032f307000001be00fb
:103d10000000200001122400c0f30700b042880018
:103d2000c142880090428000a14280002cf307002d
:103d3000d0428800e142880094428000a542800081
:103d4000d0428000e14280000001be000400be00bd
:103d50002af20700f042880001438800f442800004
:103d600005438000b0428000c14280000001be00d7
:103d70000400be0075f30700104488002144880049
:103d8000b0428000c1428000304488004144880035
:103d90003044800041448000edf2070000047800c8
:103da0001044800021448000e9f207000000780000
:103db00088007800ce000700cf80de0005f3070002
:103dc000f043880001448800f442800005438000ed
:103dd000b0428000c14280000001be000400be006d
:103de0005af307000002be00f04380000144800047
:103df0000001be000400be0068f20700d4f2070014
:103e000000007800f0408800b4428000c542800085
:103e1000f0438000014480000001be000400be00a9
:103e20005ef20700caf20700000078000041880037
:103e300000418000cf80de00e6f207000002be00f5
:103e4000d0428000e14280000001be000400be00bc
:103e50003ef307000004be00f0408000cf80de008b
:103e6000dcf207000001be000800be00e4f107001c
:103e7000b7f2070000007800404088000041800051
:103e800050408800584380006943800040408000d3
:103e9000cf80de00cff207000001be000800be00a8
:103ea0003ef20700aaf20700000078009040880068
:103eb000784380008943800050408000cf80de003e
:103ec000c4f207000001be000800be0033f2070084
:103ed0009ff2070000007800a04088009140800019
:103ee000a0408000808f500003003400904080008c
:103ef000b040880002003700a0408000b040880039
:103f000050438000614380006011b8008cf20700cc
:103f10000000e00011003a000828ef007043800024
:103f2000814380008af2070000007800504088003a
:103f3000784380008943800050408000cf80de00bd
:103f4000a4f207000001be000800be0013f2070043
:103f50007ff2070000007800b040880070438000c6
:103f6000814380006011b80075f207000000e00096
:103f700011003a00504380006143800074f2070052
:103f800000007800404088000a28ef005843800075
:103f90006943800040408000cf80de008df2070042
:103fa0000001be000800be00fcf1070068f2070037
:103fb00000007800b0408800414080005040800000
:103fc000808f50000500350050408000c0408800c0
:103fd00040408000d040880004003700404080000e
:103fe000c040880050408000d04088000c28ef007e
:103ff000380037000e28ef000d00370078c6a80003
:104000007946a80000f4210001002000c00107004b
:1040100078c6a9007946a90000f42100010020001b
:10402000bb010700704080000000e800704088007d
:1040300071408000c0408000808f5000efff35004d
:104040001028ef001c0037004140800050408000e5
:10405000808f50000900340078c6a80000f42100c9
:1040600001002000aa01070078c6a90000f4210081
:1040700001002000a60107000c003700414080002d
:1040800050408000808f500008003d007946a80015
:1040900000f42100010020009d0107007946a900dd
:1040a00000f42100010020009901070080408000f9
:1040b0000000e8008040880081408000d0408000ff
:1040c000808f5000e0ff3500604080000000e80075
:1040d0006040880061408000b0408000808f5000c8
:1040e000c4ff35004f04be000080fa000000060047
:1040f0000800fa00200798003107980010002000ff
:10410000000f7800100020001007980015003700fd
:10411000ae0090001e009000000178001100090020
:104120008200d8008000fd000000e0000a003a0094
:10413000be0090001e0090000001780011000900f0
:104140008200d8008000fd000000e00002003a007c
:104150009e009000010f78001e0090000000e80013
:10416000100798009e0090002e009000808f500055
:1041700004003c009e0090003e009000808f5000a4
:10418000e3ff34001e0078000080fa000000060003
:104190000400fa00881f7800008fbe001e00be00d9
:1041a0000ff207000001be001e00be0013f1070061
:1041b00018c0b3000200200003f02300e2f1070062
:1041c0000000e00001003d000044eb000804e000b6
:1041d000050032001e00be0066f107003043880073
:1041e00041438800120037001e00be00fcf10700aa
:1041f0000001be001e00be0000f1070018c0b300a1
:104200000200200003f02300cdf107000000e000d1
:10421000010035000044eb000804e0000400320017
:104220001e00be00eef107003043880041438800c5
:1042300030438000414380004f0478000080fa0042
:10424000000006000200fa004b010700e0f607003c
:104250002000200020408800a0e028008040780056
:10426000808f200001487800100020003040880036
:1042700000fd070000e224002cfd070008fd0700f8
:1042800000e2240029fd070078c6a90078e6a9000d
:104290007946a9007966a90079e6a900dffc070044
:1042a0005000200021fd0700e7fc0700500020001f
:1042b0001efd0700b0e028007bfd07008040eb00fa
:1042c00010c0b300bcfc0700f0e1280076fd070039
:1042d00000b02100710b20000d0107000100370024
:1042e0000000000020338000610060000000e0005a
:1042f0000d003a00c9fc0700500020000bfd07002c
:10430000d1fc07005000200008fd070030e3280022
:1043100065fd07000030270051052000fc00070064
:10432000e0fb0700390037002033800062006000a6
:104330000000e00010003a00b8fc07005000200028
:10434000fafc0700c0fc070050002000f7fc070043
:1043500070e4280054fd07000030270051052000bc
:10436000eb0007000000eb00000f78001e00780053
:10437000fdfb070025003700c033800064006000ab
:104380000000e00010003a00a4fc070050002000ec
:10439000e6fc0700acfc070050002000e3fc07002f
:1043a000b0e5280040fd070000302700510520003f
:1043b000d700070010002000000f78001e007800d2
:1043c000e9fb070011003700203380006400600023
:1043d0000000e000c2ff3a0090fc070050002000ff
:1043e000d2fc070098fc070050002000cffc07001b
:1043f000f0e628002cfd07000030270051052000c2
:10440000c30007000efc070000000000003027007a
:1044100051052000be00070080fc0700500020006e
:10442000c2fc070088fc070050002000bffc07000a
:1044300030e828001cfd07000100370000000000e4
:1044400020338000640060000000e000fbff3a00c1
:104450000030270051052000ad0007006ffc070069
:1044600050002000b1fc070077fc0700500020003e
:10447000aefc070070e928000bfd070001003700c3
:104480000000000020338000610060000000e000b8
:104490000d003a0061fc070050002000a3fc07005b
:1044a00069fc070050002000a0fc0700b0ea2800cb
:1044b000fdfc070000302700510520009400070094
:1044c000100020001e003700c0338000680060002c
:1044d0000000e0000d003a0050fc070050002000f2
:1044e00092fc070058fc0700500020008ffc0700da
:1044f000f0eb2800ecfc07000030270051052000fd
:10450000830007000000eb00a5f4070020338000c3
:10451000620060000000e00008003200c03380004c
:10452000640060000000e00004003200c03380003e
:10453000640060000000e000d1ff3a00100020009d
:104540000080fa00000006000000fa006626ef0076
:104550007a26ef007001200010338800f0322e0020
:10456000b03388007426ef008826ef007226ef0033
:1045700000102000303488006826ef007c26ef0011
:104580006a26ef0000002400f03388008306a800ac
:104590008506a9005fe6a800802d2200070007001d
:1045a0008a60a9009a60a8000080fa000000060056
:1045b0000000fa000080fa00000006000200fa0085
:1045c000000f78009a60a9009e007800714488006e
:1045d0009a60a8000080fa00000006000200fa00bd
:1045e000000f78001e007800f4ff07000080fa003a
:1045f000000006000000fa000000230010088800f8
:104600000621ef006821ef006a21ef000821ef008a
:1046100000702000500888000c21ef000e21ef00f0
:104620007821ef007a21ef007c21ef007e21ef005e
:104630008021ef008221ef008421ef008621ef002e
:104640002200200080072000a10920001310200074
:104650008049780081497800824978000001eb00a8
:1046600060042000710520000310200080497800bc
:1046700081497800824978000080fa000000060035
:020000040000fa
:104680008e0800000200000080000000f808000012
:1046900020000000800000009008000002000000e0
:1046a00082000000ffff000094080000640000008a
:1046b00080000000000800008e0000008000000064
:1046c00092080000020000008000000000000000ce
:020000040000fa
:1046d0000000fa0081058000f0ff280000806000e3
:1046e00000c0a00080058800ccfb0700500020001f
:1046f0000efc0700d4fb0700500020000bfc070055
:1047000040ed280068fc07000080fa000000060069
:020000040000fa
:10471000f03fb1000180b10006003500ee03090052
:1047200000000000403fb1000180b100fbff3d00f0
:104730001000b000203fb0000200350000800900ea
:0847400000000000000006006b
:020000040000fa
:104748000200fa00000f78009e007800814488007b
:10475800ffff37000000fa00808f200080077800f4
:1047680000912000000188000080fa000000060087
:104778000000fa0072ff07009cff0700d2ff070045
:084788000080fa0000000600a9
:020000040000fa
:020000040005f5
:045e0000ffffff00a1
:020000040000fa
:020000040005f5
:045e2000ffffff0081
:020000040000fa
:020000040005f5
:045e30007affff00f6
:020000040000fa
:020000040005f5
:045e3800b1ffff00b7
:020000040000fa
:020000040005f5
:045e40009fffff00c1
:020000040000fa
:020000040005f5
:045e4800ffffff0059
:020000040000fa
:020000040005f5
:045e5000dfffff0071
:020000040000fa
:020000040005f5
:045e5800ffffff0049
:00000001FF
